:020000040002F8
:1060000000000420F1A4030019A503001BA5030050
:106010001DA503001FA5030021A50300000000002B
:1060200000000000000000000000000023A50300A5
:1060300025A503000000000027A5030029A50300F3
:106040002BA503002BA5030091A3030055A3030078
:1060500069A303002BA50300D59703002BA503001C
:1060600035A003003DA0030045A003002BA50300BD
:106070002BA503002BA503002BA503002BA50300D4
:106080002BA503002BA503002BA503002BA50300C4
:106090002BA503002BA503002BA503002BA50300B4
:1060A0002BA503002BA503004DA0030055A0030062
:1060B0002BA503002BA5030000000000000000003A
:1060C0002BA503002BA503002BA503007DA3030034
:1060D0002BA503002BA503002BA503002BA5030074
:1060E000B9A303002BA503002BA5030000000000AB
:1060F000000000002BA5030000000000A5A3030082
:10610000000000000000000000000000000000008F
:10611000000000000000000000000000000000007F
:10612000000000000000000000000000000000006F
:10613000000000000000000000000000000000005F
:10614000000000000000000000000000000000004F
:10615000000000000000000000000000000000003F
:10616000000000000000000000000000000000002F
:10617000000000000000000000000000000000001F
:10618000000000000000000000000000000000000F
:1061900000000000000000000000000000000000FF
:1061A00000000000000000000000000000000000EF
:1061B00000000000000000000000000000000000DF
:1061C00000000000000000000000000000000000CF
:1061D00000000000000000000000000000000000BF
:1061E00000000000000000000000000000000000AF
:1061F000000000000000000000000000000000009F
:106200007CB0EE877CB0EE87FF00FF00FF00FF0050
:10621000FF00FF00FF00FF00FF00FF00FF00FF0086
:10622000FF00FF00FF00FF00FF00FF00FF00FF0076
:10623000FF00FF00FF00FF002DE9F04F85B0039144
:106240000778A7F10903042B044607F07F0200F149
:106250000100F5D9202AF3D02B2F04BF677804461C
:106260002D2F72D09FED427B8DED007B4FF000080B
:106270004FF000098FB34FF0000E4FF0000ADFF827
:1062800000B1754619E016F081FE80468946304619
:1062900016F016FE42464B4616F0C6FC52468046A5
:1062A00089465B46DDE9000135B316F099FFCDE97B
:1062B0000001AE4614F8017F7FB1A7F13006092E28
:1062C00052465B4640464946DDD9C5B92E2F16D108
:1062D00014F8017F0125002FEFD142464B46DDE93E
:1062E000000116F053FE80468946039B404649460E
:1062F0001C6005B0BDE8F08F4FF0010EDAE7BEF18B
:10630000000F29D042464B46DDE9000116F03EFE63
:1063100007F0DF07452F80468946E6D10399601CC8
:106320000A2216F065FC16490246002017F08EF985
:1063300002460B464046494616F028FE80468946EE
:106340004046494605B0BDE8F08F9FED0B7B67786E
:106350008DED007B013489E7DFF828904FF00008CD
:106360004046494605B0BDE8F08F00BFAFF300805E
:10637000000000000000F03F000000000000F0BF3F
:10638000000024400000F87F2DE9F84F1646002356
:10639000002204460D4617F06BF8002840F09D805F
:1063A000002200232046294617F058F828B1302251
:1063B000002332707370BDE8F88F2046294615F02F
:1063C000E7F817F093F87BA3D3E900238146294629
:1063D000204617F04DF8002800F08680B9F1000F34
:1063E000C0F2BE804A4600206F4917F02FF90246DE
:1063F0000B462046294616F0F3FE04460D4666A1DC
:10640000D1E9000101274FF0000822462B4616F083
:10641000BDFD0022654B16F007FC17F053F9002F65
:10642000CC464FF0FF3AC1464FF0000840F385805C
:10643000DFF888E15E4C0122AEF1700945F6F325E4
:106440004FF02E0BA94208BFA0424FF0300309D3F2
:10645000001B61EB0501A94208BFA04203F1010343
:10646000F6D2DBB2337050EA010306F1010409D120
:10647000BA4210DACE4502F101020CD026467EE87F
:106480000245DFE7BA4204BF86F801B0B41CCE452E
:1064900002F10102F2D1B8F1000F0DD022463021F5
:1064A00002F8011BC2F1010353442344002BF7DC23
:1064B0002AEAEA7301331C44BCF1010F4CD0652376
:1064C000BCF1000F2370C5BF2B236370611CA11C9E
:1064D0006046BDE8F84F0EF089BF05F100431D4648
:1064E0002D23337001365BE72DA3D3E9002320462B
:1064F000294616F0DBFF00287FF470AFB9F10E0FCC
:1065000009F101073DDDA9F10E08424600202649A8
:1065100017F09CF802460B462046294616F060FE0E
:106520000022224B16F080FB17F0CCF8002FA9F1C7
:106530000F0A4FF0010C3FF77BAF334630222E2479
:1065400003F8022B74707FEA090618D01E4403F882
:10655000012BB342FBD16BE700232370BDE8F88F1A
:10656000C9F100020020104917F070F802460B46EE
:106570002046294616F00AFD04460D463FE71E4612
:1065800056E7C9F10E0200200749C84617F05EF829
:106590004FF0010939E700BF0000901EC4BCD6428D
:1065A00050EFE2D6E41A4B44000024400000E03FE4
:1065B00000407A108DEDB5A0F7C6B03E88E103002B
:1065C00070B54FF0FF3006F079F904466FF07F4068
:1065D00006F074F90646204616F062FC00220C4BC9
:1065E00016F0D4FC044630460D4616F059FC06A3BE
:1065F000D3E9002316F0F4FD02460B462046294657
:1066000016F012FB70BD00BF0000E0DFFFFF6F431C
:106610000000F03D0000000008B510F093F9DFED38
:106620000C7A07EE100A67EE277A17EE900A16F03A
:1066300059FC05A3D3E9002316F0D2FD16F056FF4E
:1066400008BD00BFAFF30080EA2E4454FB2119407F
:106650000000B4430000000008B510F087F9DFED3A
:106660000C7A07EE100A67EE277A17EE900A16F0FA
:1066700039FC05A3D3E9002316F0B2FD16F036FF6E
:1066800008BD00BFAFF30080EA2E4454FB2119403F
:106690000000B44300000000494A21F00043934247
:1066A0002DE9704304460D464BDC464A93420E46A4
:1066B0000EDC3FA3D3E9002316F0B6FA0022424BCA
:1066C00016F0F4FE00284CD020462946BDE8708321
:1066D0003E4A93423BDCB3F1804F42DD14F052FB63
:1066E0002246804689462B462046294616F04EFC17
:1066F0000022354B16F098FA15F008FA02460B46C0
:106700004046494616F090FA02460B4600202E49B4
:1067100016F066FD424604460D464B464046494645
:1067200016F082FA02460B462046294616F07CFAFD
:1067300002F06AF8002EC9DC01F100431946BDE8F9
:10674000708302460B4616F06FFABDE8708314F0B2
:1067500019FB02F059F818A3D3E9002316F064FAE4
:10676000E8E722462B462046294616F00FFC8046D5
:1067700089462046294614F005FB002204460D46B2
:10678000114B4046494616F04FFA15F0BFF900226A
:106790000D4B16F049FA02460B464046494616F0A4
:1067A0001FFD22462B4616F03FFA00F0C5FAC1E75E
:1067B0009C7500883CE4377EEF39FAFE422EE63FB6
:1067C000FFFFEF7FFFFF2F3E0000F03F0000B041D2
:1067D0002DE9F84FC44B21F000469E4204460D4679
:1067E0008A460EDDC14B9E4200F3AC8000F0A780CC
:1067F000BAF1000F40F3EA809FA1D1E90001BDE8A2
:10680000F88FBB4B9E4200F3B580A3F1DE739E422E
:1068100040F3A0804FF0FF3B22462B4620462946FE
:1068200016F0B4FB02460B468046894616F0AEFBD6
:1068300093A3D3E9002306460F4616F0A7FB92A3C5
:10684000D3E9002316F0F0F932463B4616F09EFBE2
:106850008FA3D3E9002316F0E7F932463B4616F042
:1068600095FB8DA3D3E9002316F0DEF932463B46B3
:1068700016F08CFB8AA3D3E9002316F0D5F9324633
:106880003B4616F083FB88A3D3E9002316F0CCF92E
:1068900042464B4616F07AFB85A3D3E90023804697
:1068A00089463046394616F071FB83A3D3E90023AD
:1068B00016F0B8F932463B4616F068FB80A3D3E9E0
:1068C000002316F0AFF932463B4616F05FFB7EA37D
:1068D000D3E9002316F0A6F932463B4616F056FBE4
:1068E0007BA3D3E9002316F09DF932463B4616F010
:1068F0004DFBBBF1FF3F02460B466CD0404649467C
:1069000016F092F922462B4616F040FB794E7A4B50
:106910004FEACB0B5E449B44DBE9002316F082F97F
:1069200022462B4616F07EF902460B46D6E90001B8
:1069300016F078F9BAF1000F43DBBDE8F88F0028B4
:106940003FF456AF22462B462046294616F06CF9F6
:10695000BDE8F88F60A3D3E9002316F065F90022A3
:10696000664B16F0A3FD00283FF454AF204629469D
:10697000BDE8F88F14F006FA614B9E4204460D46BE
:1069800039DCA3F550239E425EDC02460B4616F02E
:106990004BF90022594B16F045F9002206460F46E6
:1069A0004FF080432046294616F03EF902460B463A
:1069B0003046394616F014FC4FF0000B04460D46E5
:1069C0002AE701F100431946BDE8F88F44A1D1E957
:1069D0000001BDE8F88F4046494616F025F92246E9
:1069E0002B4616F0D3FA02460B462046294616F0EF
:1069F00019F9BDE8F88F434B9E421ADC0022424B46
:106A000016F010F9002206460F463F4B2046294655
:106A100016F0BCFA0022394B16F006F902460B4676
:106A20003046394616F0DCFB4FF0020B04460D46AB
:106A3000F2E602460B460020344916F0D1FB4FF037
:106A4000030B04460D46E7E600222C4B16F0EAF84D
:106A5000002206460F46294B2046294616F0E4F848
:106A600002460B463046394616F0BAFB4FF0010B92
:106A700004460D46D0E600BF182D4454FB21F93FD3
:106A800011DA22E33AAD903FEB0D76244B7BA93F20
:106A9000513DD0A0660DB13F6E204CC5CD45B73FEE
:106AA000FF8300922449C23F0D5555555555D53F9A
:106AB0002F6C6A2C44B4A2BF9AFDDE522DDEAD3F8E
:106AC0006D9A74AFF2B0B33F711623FEC671BC3F2E
:106AD000C4EB98999999C93F9C7500883CE4377E2E
:106AE000182D4454FB21F9BFFFFF0F440000F07F35
:106AF000FFFFDB3F98E10300B8E103000000F03F37
:106B0000FFFFF23FFF7F03400000F83F0000F0BFAF
:106B10002DE9F843C1F30A59A9F2FF35132D0246B6
:106B20000B460C4606468846074622DC002D50DB05
:106B3000DFF8F09049FA05F901EA090E5EEA060667
:106B40001CD036A3D3E9002316F06EF800220023F0
:106B500016F0ACFC48B1002C04DD4FF4801343FA6E
:106B600005F5A84428EA0904002721463846BDE86F
:106B7000F883332D06DDB5F5806F3DD010461946FC
:106B8000BDE8F883A9F213494FF0FF3E2EFA09F948
:106B900010EA090FF2D021A3D3E9002316F044F83C
:106BA0000022002316F082FC0028DED0002C09DD34
:106BB000142D2BD00127C5F1340507FA05F5AE19C0
:106BC00028BFB844444626EA090721463846BDE8AE
:106BD000F88312A3D3E9002316F026F8002200233D
:106BE00016F064FC0028C0D0002C0BDB54EA06072A
:106BF00006D00027084CB8E716F016F8BDE8F88371
:106C00003C46B2E700274FF00044AEE704F101082C
:106C1000D8E700BFAFF300800000F03F9C7500880C
:106C20003CE4377EFFFF0F002DE9F041C1F30A5726
:106C3000A7F2FF35132D02460B460C468846064642
:106C40001CDC002D3FDB3A4F2F41864601EA070C42
:106C50005CEA0E0E17D034A3D3E9002315F0E4FF4D
:106C60000022002316F022FC20B1002C3FDB28EA92
:106C70000704002621463046BDE8F081332D06DDAD
:106C8000B5F5806F2FD010461946BDE8F081A7F208
:106C900013474FF0FF3E2EFA07F73842F3D022A3F6
:106CA000D3E9002315F0C0FF0022002316F0FEFBFD
:106CB0000028DFD0002C20DB444626EA07062146C8
:106CC0003046BDE8F08118A3D3E9002315F0ACFFEE
:106CD0000022002316F0EAFB0028CBD0002C17DBA3
:106CE00000263446C6E715F09FFFBDE8F0814FF45B
:106CF000801343FA05F5A844B9E7142D10D00123F9
:106D0000C5F1340503FA05F5AE1928BF9844D3E759
:106D100024F00042074B324318BF1C460026A9E767
:106D200004F10108C8E700BF9C7500883CE4377E89
:106D3000FFFF0F000000F0BF2DE9F04FD84B994244
:106D400087B0804689460E4613DCD64B21F00044BE
:106D50009C4218DD0022D44B16F080FB002879D02D
:106D6000002200230020D14916F03AFA07B0BDE80E
:106D7000F08FCF4B99422FDD42464B4615F054FF22
:106D800007B0BDE8F08FCB4B9C4270DDCA4B1E4470
:106D90009E427ED80022C94B4046494615F044FF2A
:106DA0004FEA215AAAF2FF3ABAF1000F04460D4603
:106DB0000E4640F3DE8142464B4615F033FF024655
:106DC0000B460020BD4915F02DFF22462B4616F03C
:106DD00007FACDE902010BE0B94B9E42DADD9FEDE7
:106DE0009A7B8DED027B4FEA265A4446AAF2FF3A7F
:106DF000B44BC6F313069E4246F07F5500F3E7807E
:106E000045F44015204629460022AC4B15F00AFFF8
:106E1000002204460D46AC4B16F0B8F822462B462D
:106E200016F0B4F8A046CDE90401A946CDE9000169
:106E3000002E3AD1002200232046294616F00EFBF0
:106E4000002800F0CE80BAF1000F40F074810020DD
:106E5000002195E742464B464046314615F0E2FE9A
:106E600002460B4616F0BCF907B0BDE8F08F0022D1
:106E7000964B15F0D9FE0022002316F017FB0028D0
:106E800000F0CC80924B9C4200F3C88040464946BB
:106E900076E700228C4B16F079F842464B4616F006
:106EA00075F8CDE900014FF0000A00224FF0804351
:106EB0004046494615F0B8FE02460B464046494654
:106EC00016F08EF902460B4606460F4616F05EF89F
:106ED0005FA3D3E9002304460D4616F057F85EA3DE
:106EE000D3E9002315F0A0FE22462B4616F04EF8FB
:106EF0005BA3D3E9002315F097FE22462B4616F03C
:106F000045F859A3D3E9002315F08EFE22462B46FF
:106F100016F03CF856A3D3E9002315F085FE22466F
:106F20002B4616F033F854A3D3E9002315F07CFE6A
:106F300022462B4616F02AF851A3D3E9002315F078
:106F400073FE22462B4616F021F804460D46BAF190
:106F5000000F00F0BF80504615F0B2FF4AA3D3E9FE
:106F6000002382468B4616F011F8DDE90023CDE9B7
:106F700004012046294615F057FE32463B4616F0DE
:106F800005F843A3D3E9002304460D46504659466D
:106F900015F0FCFFDDE9022315F046FE02460B4624
:106FA0002046294615F040FE02460B46DDE9000169
:106FB00015F038FE42464B4615F034FE02460B46AD
:106FC000DDE9040115F02EFE07B0BDE8F08F45F4B1
:106FD0000015C6F5801620462946B6100AF1010AAA
:106FE00012E72DA3D3E900232046294615F0CEFF52
:106FF00002460B460020314915F014FEDDE904235A
:1070000015F0C4FF06460F46BAF1000F73D10246D1
:107010000B462046294615F005FEB1E642464B4692
:107020004046494615F0B2FF0022274B15F0AEFF4F
:1070300002460B464046494615F0F4FD07B0BDE850
:10704000F08F00BFAFF300800000000000000000E0
:1070500044523EDF12F1C23F9FC678D0099AC33F27
:10706000DE03CB966446C73FAF788E1DC571CC3F1B
:10707000599322942449D23F04FA97999999D93F78
:10708000935555555555E53F0000E0FE422EE63F2D
:10709000763C7935EF39EA3D555555555555E53F1F
:1070A0007982DA3FFFFFEF3F0000F0BF000050C3DE
:1070B000FFFFEF7FFFFF1F3E3C412D400000F03FF0
:1070C000FFFF3F439DA006000000E03F000050434B
:1070D000FFFF8F3CDDE9004522462B4615F0A4FD5D
:1070E00032463B4615F052FF02460B4620462946E3
:1070F00015F098FD9CE7504615F0E2FE23A3D3E976
:10710000002382468B4615F041FF22A3D3E90023DA
:10711000804689465046594615F038FFDDE902237E
:1071200015F082FD02460B463046394615F07AFDD1
:1071300022462B46DCE7504615F0C2FE15A3D3E9E4
:10714000002306460F4615F021FFDDE9022315F066
:107150006BFD0EA3D3E9002304460D4630463946A5
:1071600015F014FF02460B462046294615F05CFD3B
:1071700006E60022044B15F055FD02460B4640463C
:10718000494615F04FFD20E60000F03F0000E0FE0C
:10719000422EE63F763C7935EF39EA3D00000000AB
:1071A00008B514F075F904A3D3E9002316F018F814
:1071B00008BD00BFAFF30080EF39FAFE422EE63F74
:1071C0002DE9F043DFF8B4808BB004460D4601F0A2
:1071D000F3F898F90030013306460F462BD02246CB
:1071E0002B462046294616F06BF9814618BB2046EF
:1071F000294613F0C7FD1FA3D3E9002316F056F963
:10720000C8B1194A98F90030CDF820900321CDE992
:107210000445CDE902458DE806008BB9134B4FF0CC
:107220006042CDE90623684615F0FEFA70B1089B6E
:107230009BB9DDE90667304639460BB0BDE8F083FF
:107240000B490020022BCDE90601ECD115F078FCAA
:1072500022230360089B002BEBD015F071FC089BE8
:107260000360E6E7AFF30080CCF20300FFFFEF47D7
:107270000000F07F7DF8B98FCE338640FB8100207F
:107280002DE9F043DFF8E4808BB004460D4601F0B1
:1072900043F998F90030013306460F4633D02046B3
:1072A000294615F0BBFA70B32CA3D3E9002320467E
:1072B000294616F0FBF8814650BB2AA3D3E90023E8
:1072C0002046294616F0D4F8E8B198F90030204A53
:1072D000CDF82090002600270421022BCDE904459B
:1072E000CDE90245CDE906678DE8060029D068465C
:1072F00015F09AFA28B3089B1BB115F021FC089BE6
:107300000360DDE90667304639460BB0BDE8F0831F
:107310000F4A98F90030019203210022CDE904457B
:10732000CDE90245009108922BB90A4B4FF060421B
:10733000CDE90623DBE708490020022BCDE9060151
:10734000D5D115F0FDFB22230360D4E7AFF3008015
:10735000D4F20300FFFFEF470000F07FEF39FAFEA1
:10736000422E864051302DD5104987C0FB81002028
:107370002DE9F04FDFF80C938DB006460F4614460A
:107380001D4601F0C5FC99F90080B8F1FF3FCDE939
:10739000000136D022462B462046294616F090F8AA
:1073A000834670BB32463B463046394616F088F875
:1073B0008246002840F0A280304639460022002351
:1073C00016F04CF810B3002200232046294616F090
:1073D00045F8834600286AD09FEDA17B0122A44B8B
:1073E000CDF828A00292CDE90467CDE906458DEDE0
:1073F000087B0393B8F1000F45D09FED9B7B8DED8B
:10740000007BDDE900010DB0BDE8F08FDDE9000192
:1074100015F004FA8046002800F08D804FF0000A35
:107420004FF0000BDDE9000152465B4616F016F8FE
:107430000028E6D03046394615F0F0F90028E0D0B3
:107440002046294615F0EAF90028DAD099F90030EB
:10745000874A039204210022022BCDE90467CDE97B
:107460000645CDE908AB02910A9203D002A815F0B7
:10747000DBF968B915F064FB2223036008E09FED97
:10748000787B8DED087B02A815F0CEF9002830D06E
:107490000A9B1BB115F054FB0A9B03609DED087B12
:1074A0008DED007BDDE900010DB0BDE8F08F2046D9
:1074B000294615F0B3F90028A3D000220023204666
:1074C000294615F0D5FF00289BD099F90030684A6D
:1074D000CDF828B00121CDE90467CDE90645029138
:1074E0000392002BCBD063490020022BCDE9080189
:1074F000C9D115F025FB21230360C9E70022002331
:107500002046294615F0AAFF00283FF47AAF5A4BCF
:107510005749CDF828B000220120B8F1020FCDE97B
:1075200004670290CDE90645CDE908230391AAD16D
:10753000CDE9002365E73046394615F06FF900289C
:107540003FF46CAF2046294615F068F900283FF457
:1075500065AFDDE900231046194615F0B1FF00289C
:107560005FD1032399F900800293414B0A90CDE942
:107570000467CDE906450393B8F1000F2BD1DFF87E
:1075800008B14FF0604A0022002330463946CDE969
:1075900008AB15F06DFF00283FF468AF0022374BB1
:1075A0002046294615F0F2FC04460D4615F044F934
:1075B00002460B462046294615F050FF70BB304B63
:1075C00099F900804FF06042CDE90823B8F1020F2D
:1075D0007FF44CAF4EE7DFF8B4B04FF0000A002262
:1075E000002330463946CDE908AB15F041FF0028AD
:1075F000ECD00022214B2046294615F0C7FC04465A
:107600000D4615F019F902460B462046294615F09D
:1076100025FF18B9174B0022CDE9082399F90080FE
:10762000D4E799F90090124BCDF828800122CDE9DA
:107630000467CDE9064502920393B9F1000F3FF4C8
:107640001EAF002200231046194615F0C9FDB9F1FE
:10765000020FCDE908013FF44CAF14E7AFF300800F
:107660000000000000000000000000000000F03FEB
:10767000ECF203000000F0FF0000F03F0000E03FEC
:10768000FFFFEFC7FB810020FFFFEF470000F07F07
:107690002DE9F84FC44E21F00043B34204460D4695
:1076A0000DDD03F1404303F58013034340F0B9803F
:1076B000002940F3408100200021BDE8F88FBB4E37
:1076C000B34240F3A6800029C0F2788102460B46FF
:1076D0000020B74915F0A6FA0022B64B15F056FC6B
:1076E00004460D4614F012FA95A3D3E90023894607
:1076F00080462946204615F049FC93A3D3E9002390
:1077000015F092FA22462B4615F040FC90A3D3E9DF
:10771000002315F087FA22462B4615F037FC8EA37E
:10772000D3E9002315F080FA22462B4615F02EFCF3
:107730008BA3D3E9002315F075FA22462B4615F0EA
:1077400025FC89A3D3E9002315F06EFA22462B46C7
:1077500015F01CFC86A3D3E9002382468B46204605
:10776000294615F013FC84A3D3E9002315F05AFA37
:1077700022462B4615F00AFC81A3D3E9002315F01D
:1077800053FA22462B4615F001FC7FA3D3E90023D0
:1077900015F048FA22462B4615F0F8FB0022844BE0
:1077A00015F042FA02460B465046594615F018FDB0
:1077B00042464B4615F0EAFB002682468B4632468F
:1077C0004B463046494615F0E1FB02460B46204643
:1077D000294615F027FA324604460D464B464046E8
:1077E000494615F021FA02460B462046294615F077
:1077F000F7FC02460B465046594615F015FA32463C
:107800004B4615F011FA02460B4615F00DFABDE88D
:10781000F88F694A93420EDC5DA1D1E90001BDE811
:10782000F88F02460B4615F0FDF902460B4615F09F
:10783000D7FCBDE8F88F02460B4615F0A7FB40A326
:10784000D3E9002306460F4615F0A0FB3EA3D3E97B
:10785000002315F0E9F932463B4615F097FB3CA3AF
:10786000D3E9002315F0DEF932463B4615F08EFBD6
:1078700039A3D3E9002315F0D7F932463B4615F07A
:1078800085FB37A3D3E9002315F0CCF932463B46FC
:1078900015F07CFB34A3D3E9002315F0C5F932467B
:1078A0003B4615F073FB32A3D3E90023804689469B
:1078B0003046394615F06AFB2FA3D3E9002315F0B3
:1078C000B1F932463B4615F061FB2DA3D3E9002305
:1078D00015F0AAF932463B4615F058FB2AA3D3E926
:1078E000002315F09FF932463B4615F04FFB00226E
:1078F0002F4B15F099F902460B464046494615F0C4
:107900006FFC22462B4615F041FB02460B4622A196
:10791000D1E9000115F086F902460B4620462946BA
:1079200015F080F902460B4619A1D1E9000115F0C6
:1079300079F9BDE8F88F1AA1D1E90001BDE8F88F07
:1079400009F7FD0DE13D023F88B20175E0EF493FC7
:107950003B8F68B52882A43F5544880E55C1C93F66
:107960007D6FEB0312D6D43F555555555555C53F40
:1079700082922EB1C5B8B33F59018D1B6C06E63F0C
:10798000C88A599CE52A00404B2D8A1C273A03409F
:10799000182D4454FB21F93F075C143326A6913C73
:1079A000182D4454FB210940FFFFEF3FFFFFDF3F4D
:1079B0000000F03F0000E03F0000603C00225C4B14
:1079C00015F032F900225B4B15F0E0FA40A3D3E941
:1079D000002304460D4615F0D9FA3FA3D3E900234E
:1079E00015F022F922462B4615F0D0FA3CA3D3E934
:1079F000002315F017F922462B4615F0C7FA3AA3D3
:107A0000D3E9002315F010F922462B4615F0BEFAF3
:107A100037A3D3E9002315F005F922462B4615F0CC
:107A2000B5FA35A3D3E9002315F0FEF822462B461C
:107A300015F0ACFA804689462046294614F066F8CF
:107A40002FA3D3E9002306460F462046294615F00A
:107A50009DFA2DA3D3E9002315F0E4F822462B4626
:107A600015F094FA2AA3D3E9002315F0DDF8224695
:107A70002B4615F08BFA28A3D3E9002315F0D2F892
:107A800022462B4615F082FA0022294B15F0CCF83D
:107A900002460B464046494615F0A2FB32463B469D
:107AA00015F074FA1EA3D3E9002315F0BBF8324693
:107AB0003B4615F0B9F802460B4615F0B5F80246FC
:107AC0000B4619A1D1E9000115F0ACF8BDE8F88F1B
:107AD00009F7FD0DE13D023F88B20175E0EF493F36
:107AE0003B8F68B52882A43F5544880E55C1C93FD5
:107AF0007D6FEB0312D6D43F555555555555C53FAF
:107B000082922EB1C5B8B33F59018D1B6C06E63F7A
:107B1000C88A599CE52A00404B2D8A1C273A03400D
:107B2000075C143326A6913C182D4454FB210940D0
:107B30000000F03F0000E03F434A91422DE9F84346
:107B400004460D4639DD414A914209DD02F1795280
:107B5000914240DD02460B4615F066F8BDE8F88319
:107B600001F1404202F58012024330D0B1F1804F62
:107B70003ADC0022364B15F055F802460B46044617
:107B80000D4615F051F8224606460F462B46204674
:107B9000294615F0FBF902460B463046394615F0EA
:107BA00043F813F0B3FF0B4602462946204615F072
:107BB0003BF8BDE8F843FFF7BFB802460B4615F0A7
:107BC00031F802460B4615F00BFBBDE8F8830020A8
:107BD0000021BDE8F88300F017FE19A3D3E90023C4
:107BE00015F022F8BDE8F88302460B4615F0CEF9F1
:107BF0000022174B15F016F813F088FF2246804636
:107C000089462B462046294615F00EF84246064680
:107C10000F464B462046294615F006F802460B460D
:107C200000200B4915F0DCFA0B4602463946304677
:107C300014F0F8FFBDE8F84300F0E6BDAFF30080B4
:107C4000EF39FAFE422EE63FFFFFEF3FFFFFAF4165
:107C50000000F03F000000002DE9F047BE4B21F08E
:107C60000048984584B004460D4612DD08F14048AE
:107C700008F58018034658EA030321D002460B4654
:107C800014F0D0FF02460B4615F0AAFA04B0BDE886
:107C9000F087B24B98458A4629DCB8F1795F80F2CB
:107CA000658191A3D3E9002314F0BEFF0022AC4B01
:107CB00015F0FCFBD8B12046294604B0BDE8F0879A
:107CC0008BA3D3E9002315F061F98BA3D3E900233B
:107CD00006460F462046294615F058F902460B463F
:107CE0003046394614F0A0FF04B0BDE8F0872046C6
:107CF000294613F047F802460B460020984914F035
:107D000091FF0022974B15F041F97DA3D3E90023A1
:107D100004460D4615F03AF97BA3D3E9002314F08D
:107D200083FF22462B4615F031F979A3D3E90023CE
:107D300014F078FF22462B4615F028F976A3D3E9F4
:107D4000002314F071FF22462B4615F01FF974A38F
:107D5000D3E9002314F066FF22462B4615F016F9EE
:107D600071A3D3E9002314F05FFF22462B4615F0E0
:107D70000DF96FA3D3E90023CDE900012046294680
:107D800015F004F96CA3D3E9002314F04BFF22464D
:107D90002B4615F0FBF86AA3D3E9002314F044FF47
:107DA00022462B4615F0F2F867A3D3E9002314F01E
:107DB00039FF22462B4615F0E9F8694B002214F0F2
:107DC00033FFCDE902012046294613F09FFE664BA2
:107DD000984506460F4666DCDDE90223DDE9000131
:107DE00015F0FEF93246CDE900013B4630463946F2
:107DF00014F01AFF02460B46DDE9000115F0C6F843
:107E00004FF00008CDE9000142463B464046394666
:107E100015F0BCF802460B462046294614F002FF36
:107E2000424604460D463B463046394614F0FCFEB9
:107E300002460B462046294615F0D2F902460B466B
:107E400014F0F2FE02460B462BA1D1E9000114F01A
:107E5000E9FE02460B46DDE9000114F0E3FE42466E
:107E600004460D463B464046394614F0DDFE0246C8
:107E70000B4637A1D1E9000114F0D4FE02460B46AF
:107E80002046294614F0CEFE02460B4630A1D1E929
:107E9000000114F0C7FEBAF1000F3FF7F7AE01F191
:107EA00000431946F2E6DDE90223DDE9000115F0A1
:107EB00097F932463B4615F069F832463B4614F0D6
:107EC000B3FE02460B4614F0AFFE0BA3D3E900232A
:107ED00014F0A8FE02460B4605A1D1E9000114F0FA
:107EE000A1FED8E7AFF300809C7500883CE4377EA4
:107EF000182D4454FB21F93F075C143326A6913C0E
:107F000009F7FD0DE13D023F88B20175E0EF493F01
:107F10003B8F68B52882A43F5544880E55C1C93FA0
:107F20007D6FEB0312D6D43F555555555555C53F7A
:107F300082922EB1C5B8B33F59018D1B6C06E63F46
:107F4000C88A599CE52A00404B2D8A1C273A0340D9
:107F5000182D4454FB21E93FFFFFEF3FFFFFDF3FB8
:107F60000000F03F0000E03F3233EF3F02460B4697
:107F700015F00CF837A3D3E9002306460F4615F099
:107F800005F836A3D3E9002314F04EFE32463B46F3
:107F900014F0FCFF33A3D3E9002314F043FE324670
:107FA0003B4614F0F3FF31A3D3E9002314F03CFE69
:107FB00032463B4614F0EAFF2EA3D3E9002314F027
:107FC00031FE32463B4614F0E1FF2CA3D3E90023F7
:107FD00014F02AFE32463B4614F0D8FF29A3D3E919
:107FE0000023804689463046394614F0CFFF27A348
:107FF000D3E9002314F016FE32463B4614F0C6FFC8
:1080000024A3D3E9002314F00FFE32463B4614F0BC
:10801000BDFF22A3D3E9002314F004FE32463B4601
:1080200014F0B4FF00220A4B14F0FEFD02460B468A
:108030004046494615F0D4F822462B4614F0A6FFD8
:1080400022462B4614F0F0FD04B0BDE8F08700BFD7
:108050000000F03F09F7FD0DE13D023F88B20175D8
:10806000E0EF493F3B8F68B52882A43F5544880E16
:1080700055C1C93F7D6FEB0312D6D43F55555555B9
:108080005555C53F82922EB1C5B8B33F59018D1BDE
:108090006C06E63FC88A599CE52A00404B2D8A1C95
:1080A000273A0340000000002DE9F84F1D465342D7
:1080B000134325F0004ADFF8E0E14AEAD373734541
:1080C000144606460F4647D8C0F1000848EA0008A3
:1080D00021F0004343EAD878F0458B463CD805F1BF
:1080E000404808F5801858EA020850D04FEAA578B1
:1080F00008F0020848EAD17850EA030134D052EA85
:108100000A023CD0F24557D0734538D0A3EB0A039E
:108110001B153C2B42DC002D70DB22462B463046E3
:10812000394615F05DF812F02DFEFEF751FBB8F15F
:10813000010F5FD0B8F1020F4ED0B8F1000F62D03E
:1081400043A3D3E9002314F06DFD43A3D3E9002337
:1081500014F068FDBDE8F88F32463B4620462946BC
:1081600014F062FDBDE8F88FB8F1020F1AD0B8F133
:10817000030F10D13AA1D1E90001BDE8F88FBBF19E
:10818000000F14DB38A1D1E90001BDE8F88FBDE88C
:10819000F84FFEF71DBB3946BDE8F88F32A1D1E993
:1081A0000001C4E72CA1D1E90001BDE8F88F30A19E
:1081B000D1E90001BDE8F88F534526D0B8F1020F90
:1081C000F0D0B8F1030FD5D0B8F1010F4FF0000097
:1081D00029D00021BDE8F88F1DA3D3E9002314F0B6
:1081E00021FD02460B461CA1D1E9000114F01AFD45
:1081F000BDE8F88F01F10041BDE8F88F3C338CDA1F
:108200000020002193E7BDE8F88FB8F1020F18D0E5
:10821000B8F1030F10D0B8F1010F08D016A1D1E9C1
:108220000001BDE8F88F4FF00041BDE8F88F14A1C0
:10823000D1E90001BDE8F88F13A1D1E90001BDE843
:10824000F88F13A1D1E90001BDE8F88FAFF30080EA
:10825000075C143326A6A13C182D4454FB21094089
:10826000182D4454FB2109C0182D4454FB21F93F1B
:10827000182D4454FB21F9BF182D4454FB21E93F2C
:10828000182D4454FB21E9BFD221337F7CD902C091
:10829000D221337F7CD902400000F07F0000000033
:1082A00043422DE9F047034321F000463E4A46EAA7
:1082B000D373934204460D4613D896423DD03B4BB0
:1082C0009E428A4617DC36A3D3E9002314F0ACFCA7
:1082D0000022002315F0EAF8A8B320462946BDE89D
:1082E000F08702460B4614F09DFC02460B4614F044
:1082F00077FFBDE8F0872E4B9E42354624DD33469E
:108300000246314614F090FC224606460F462B46A4
:108310000020254914F086FC02460B4630463946BB
:1083200014F05EFFFEF708FD0022224B14F02EFE33
:10833000BAF1000F2FDBBDE8F0870022002314F014
:108340004FFFBDE8F087354622462B46204629469A
:1083500014F06AFC22462B4606460F4614F016FE21
:108360002246804689462B4600200F4914F05AFCCD
:1083700002460B464046494614F032FF32463B4621
:1083800014F052FCFEF7D8FC00220A4B14F0FEFD5C
:10839000BAF1000FCFDA01F100431946BDE8F087CA
:1083A0009C7500883CE4377E0000F03FFFFF2F3EC5
:1083B000FFFFDF3F0000E03F2DE9F8434E4B21F087
:1083C00000449C4206460F461BDC4C4B9C4222DD7F
:1083D0004B4B9C4263DD4B4B9C427BDD4A4B9C42AA
:1083E00046DD01339C4240D041A3D3E9002310462F
:1083F000194614F0CBFD06460F4630463946BDE817
:10840000F88302460B4614F0C1FD06460F4630467F
:108410003946BDE8F88312F0B5FC02F0B1FC002249
:108420003A4B8046894614F0FFFBB4F1725F064672
:108430000F46ECDB42464B464046494614F0A6FD4B
:1084400032463B4604460D463046394614F0ECFBB6
:1084500002460B462046294614F0C2FE00222B4B52
:1084600014F0E2FB06460F46D1E7294B9842BBD8F1
:108470003046394612F086FC0022264B14F086FD69
:1084800000F04AF8002204460D46224B14F07EFD0F
:1084900022462B4614F07AFD06460F46B7E712F047
:1084A00071FC00F039F800221A4B06460F4614F012
:1084B0006DFD32463B4604460D460020154914F03A
:1084C0008FFE02460B462046294614F0ADFB0646B9
:1084D0000F469CE712F056FC00F01EF800220D4BF0
:1084E00014F054FD06460F4691E700BFAFF300803D
:1084F0009C7500883CE4377EFFFFEF7F422ED63F1D
:10850000FFFF3540412E8640CD3386400000F03FCE
:108510007DF8B98F0000E03F2DE9F04FB04E21F01B
:108520000042B24283B004460D464FEAD1770DD9DE
:10853000AC4EB24225D9C1F31303034340F0EC80A3
:108540000FB10020002103B0BDE8F08FA64B9A4286
:1085500000F2CB80A54B9A4200F2DC808AA3D3E9DB
:10856000002314F061FB0022A14B14F09FFF0028B0
:1085700000F006812046294600229D4B14F054FB52
:10858000E1E783A3D3E9002314F090FF002840F033
:10859000C88081A3D3E900232046294614F068FF50
:1085A0000028CED1934E7EA3D3E9002306EBC70665
:1085B0002046294614F0EAFCD6E9002314F034FBE7
:1085C00014F094FF064614F07BFC77A3D3E9002354
:1085D0008046894614F0DAFC02460B4620462946BE
:1085E00014F020FB72A3D3E90023CDE9000140463B
:1085F000494614F0CBFC82468B4652465B46DDE989
:10860000000114F00FFB04460D4622462B4620467F
:10861000294614F0BBFC68A3D3E9002380468946B1
:1086200014F0B4FC66A3D3E9002314F0FBFA42462D
:108630004B4614F0ABFC64A3D3E9002314F0F4FA26
:1086400042464B4614F0A2FC61A3D3E9002314F088
:10865000E9FA42464B4614F099FC5FA3D3E90023A4
:1086600014F0E2FA42464B4614F090FC02460B46E8
:108670002046294614F0D6FA80468946002E58D066
:108680002046294642464B4614F080FC42460446AA
:108690000D464B4600204FF0804114F0C3FA0246CD
:1086A0000B462046294614F09BFD02460B465046D9
:1086B000594614F0B7FADDE9002314F0B3FA0B467B
:1086C00002464B49002014F0ADFA6FF47F739E42CE
:1086D00051DA06F57A7601EB065100224FF0B873B5
:1086E00014F054FC03B0BDE8F08F434B9A423FF6C0
:1086F00059AF424BFC002344D3E9002314F092FA13
:108700003F4BC7F101062344CDE90001D3E900AB9B
:10871000F61B72E7002678E702460B4614F084FA4F
:1087200011E719A3D3E900231046194614F02EFCD3
:1087300009E702460B462046294614F027FC002292
:1087400006460F464FF080434046494614F06AFA09
:1087500002460B463046394614F042FD22462B466F
:1087600014F060FA02460B460020214914F05AFA30
:1087700003B0BDE8F08F01EB065103B0BDE8F08F08
:10878000064642E7AFF300809C7500883CE4377EE4
:10879000EF39FAFE422E864051302DD5104987C060
:1087A000FE822B654715F73F0000E0FE422EE63FB4
:1087B000763C7935EF39EA3DD0A4BE726937663E22
:1087C000F16BD2C541BDBB3E2CDE25AF6A56113FD1
:1087D00093BDBE166CC1663F3E5555555555C53FB8
:1087E000412E8640FFFFEF7F422ED63FFFFF2F3EF8
:1087F0000000F03FD8E10300B1A2F03FE8E1030040
:10880000F8E10300000000002DE9F04FB1F5801FF2
:1088100085B006460F460B465ADA024621F0004460
:10882000224300F0F8800029C0F27A810022D64B62
:1088300014F0ACFBD54A0B46934206460F466FF048
:10884000350C4ADCC3F3130505F5152E0EF6647ED0
:108850000EF4801E8EF07F5282F440121C1542EA04
:108860000507A4F2FF3464440022C94B3046394660
:1088700004EB1E5414F0D6F9AB1CC3F31303022B04
:1088800082468B464FF0000230DC002314F0E6FDF8
:10889000002800F0C980002C00F04B81204614F025
:1088A0000FFBA5A3D3E9002306460F4614F06EFB89
:1088B000A3A3D3E9002304460D463046394614F0FD
:1088C00065FB02460B462046294614F0ADF90AE046
:1088D000AE4A93424FF0000CB4DD32463B46304680
:1088E000394614F0A1F905B0BDE8F08F4FF0804390
:1088F00014F09AF902460B465046594614F070FCA3
:10890000064620460F4614F0DBFA3246CDE9000158
:108910003B4630463946CDE9026714F037FB024644
:108920000B468046894614F031FB87A3D3E9002328
:1089300006460F4614F02AFB85A3D3E9002314F062
:1089400073F932463B4614F021FB83A3D3E900239D
:1089500014F06AF932463B4614F018FB80A3D3E9C1
:10896000002314F061F942464B4614F00FFB7EA33E
:10897000D3E90023804689463046394614F006FB89
:108980007BA3D3E9002314F04FF932463B4614F0A1
:10899000FDFA79A3D3E9002314F046F932463B46A9
:1089A00014F0F4FA0B4602464946404614F03CF9EE
:1089B000A5F5C223C5F5D725A3F27A4351351D434A
:1089C000002D8046894656DD0022724B504659469E
:1089D00014F0DCFA52465B4614F0D8FA06460F460D
:1089E000002C68D132463B464046494614F01CF9FB
:1089F000DDE9022314F0CAFA02460B463046394636
:108A000014F010F902460B465046594614F00AF984
:108A100005B0BDE8F08F0022002300205E4914F06D
:108A2000DFFB05B0BDE8F08F55A3D3E90023504626
:108A3000594614F0ABFA02460B460020554914F093
:108A4000F1F8524606460F465B465046594614F02A
:108A50009DFA02460B463046394614F097FA064610
:108A60000F46002C40F09A8002460B46504659466D
:108A700014F0D8F837E7002C00F0A4802EA3D3E937
:108A80000023DDE9000114F081FA42464B4604461A
:108A90000D465046594614F0C5F8DDE9022314F09E
:108AA00075FA27A3D3E9002306460F46DDE9000146
:108AB00014F06CFA21E020A3D3E90023DDE90001E2
:108AC00014F064FA32463B4604460D464046494699
:108AD00014F0AAF8DDE9022314F058FA18A3D3E938
:108AE000002380468946DDE9000114F04FFA024672
:108AF0000B464046494614F097F802460B4630466E
:108B0000394614F08FF852465B4614F08BF8024653
:108B10000B462046294614F085F805B0BDE8F08FD5
:108B200002460B4614F07EF80022002314F058FB96
:108B3000D9E600200021D6E60000E0FE422EE63F06
:108B4000763C7935EF39EA3D44523EDF12F1C23FBF
:108B5000DE03CB966446C73F599322942449D23F03
:108B6000935555555555E53F9FC678D0099AC33F53
:108B7000AF788E1DC571CC3F04FA97999999D93F6A
:108B8000555555555555D53F00005043FFFFEF7FD4
:108B90000000F03F0000E03F000050C3204614F00A
:108BA0008FF90FA3D3E900238046894614F0EEF92C
:108BB0000DA3D3E9002304460D464046494614F070
:108BC000E5F99AE702460B465046594614F02AF852
:108BD000DDE9022314F0DAF914E700BFAFF30080F7
:108BE0000000E0FE422EE63F763C7935EF39EA3D63
:108BF000B1F5801F2DE9F84304460D460B461ADAFD
:108C0000024621F00046324359D000295FDB0022A2
:108C10003B4B14F0BBF93B4A0D462B4693420446AE
:108C20006FF035010CDD22462B462046294613F015
:108C3000FBFFBDE8F883334A93424FF00001F2DCBA
:108C40001815A0F2FF3008444FEAD0794844C3F326
:108C5000130814F035F9C9F57F73033348EA035557
:108C600006460F4620462946FFF7CEFD1EA3D3E950
:108C70000023804689463046394614F087F91CA304
:108C8000D3E9002304460D464046494614F07EF9D8
:108C900002460B462046294613F0C6FF16A3D3E929
:108CA000002304460D463046394614F06FF902465B
:108CB0000B462046294613F0B7FFBDE8F883002293
:108CC00000230020104914F08BFABDE8F883024617
:108CD0000B4613F0A7FF0022002314F081FABDE831
:108CE000F88300BFAFF30080362BF111F3FE593D3E
:108CF0000EE526157BCBDB3F00609F501344D33F2E
:108D000000005043FFFFEF7F000050C30000000051
:108D10002DE9F04F23F0004757EA020493B037D013
:108D2000674C21F00046A64283460D4629DC9A4650
:108D3000964625D0A74224DC614CA74279D0002D6D
:108D400080468946CDE9002377DB0024BEF1000F81
:108D50002CD15B4B9F4200F08B805A4B9F4261D0DD
:108D6000BAF1804F00F0C383574B9A451ED1002DB6
:108D70001CDB4046494613B0BDE8F04F12F0C6BEBA
:108D800058B106F1404606F5801656EA0B0306D1A7
:108D90004C49002013B0BDE8F08FB742CCDD4B4802
:108DA00013B0BDE8F04F13F041BD002440464946E2
:108DB00011F0E8FFBBF1000F19D126B1414B25F0AE
:108DC00040429A4213D1BAF1000FC0F2CA83002D7B
:108DD000E0DA06F1404606F5801656EA040300F094
:108DE000A584012CD6D101F100431946D2E7ED0F3D
:108DF000013D54EA05034ED0354B9F426EDD03F131
:108E000004739F4240F3FE83324B9E424EDDBAF123
:108E1000000F4EDD28A3D3E900231046194614F0B5
:108E2000B5F8B7E7BAF1000FC0F2528440464946A0
:108E3000B0E7BEF1000F82D0A3E7274B9F4228DCAA
:108E4000A3F154739F4280DD3B15A3F2FF33142B33
:108E500040F35484C3F134032EFA03F202FA03F30D
:108E60009E457FF472AF02F00102C2F102046DE789
:108E700006F1404303F5801353EA0B0388D0154BEA
:108E80009E4240F33B83BAF1000F12DBDDE90001A3
:108E900080E702245AE742464B461046194613F033
:108EA000C1FE02460B4614F09BF973E7BAF1000FBE
:108EB000B0DB002000216DE79C7500883CE4377E24
:108EC0000000F07F0000F03F0000E03FB8E9030041
:108ED0000000E041FFFFEF3FFFFF3F43B6F5801F7B
:108EE0004FF0000205DAD84B14F050F86FF034025E
:108EF0000E463315D54FC6F31306A3F2FF331344C2
:108F000046F07F5ABE421A460D934AF4401A40F387
:108F10002F83CF4B9E4240F30D849FEDB57B8DEDAB
:108F2000087B8DED0E7B9FEDB47B13468DED067BAC
:108F300001330D93AAF5801A0027DDE90623514677
:108F4000CDE90A0113F06EFEDDE90623804689466D
:108F5000DDE90A0113F068FE02460B460020BD4918
:108F600014F03EF90A460146CDE91012134649466F
:108F70000246404614F00AF84FEA6A0343F00053F1
:108F80008C46834603F50023CDE904BCDA468B46C4
:108F9000D9190023CDE902AB0293DDE902AB002031
:108FA00006460F4602460B465046594613F0EEFF62
:108FB00002460B464046494613F034FEDDE90623DF
:108FC000804689463046394613F02CFE02460B4651
:108FD000DDE90A0113F026FE52465B4613F0D6FF88
:108FE00002460B464046494613F01CFEDDE91023BD
:108FF00013F0CCFFDDE90467CDE9060132463B46BC
:109000003046394613F0C2FF7DA3D3E9002306465C
:109010000F4613F0BBFF7CA3D3E9002313F004FE3B
:1090200032463B4613F0B2FF79A3D3E9002313F095
:10903000FBFD32463B4613F0A9FF77A3D3E900239B
:1090400013F0F2FD32463B4613F0A0FF74A3D3E9C0
:10905000002313F0E9FD32463B4613F097FF72A35D
:10906000D3E9002313F0E0FD3246804689463B46B3
:109070003046394613F08AFF02460B4640464946C1
:1090800013F084FF524606460F465B46DDE90401B5
:1090900013F0CAFDDDE9062313F078FF32463B46A4
:1090A00013F0C2FD5246804689465B4650465946FB
:1090B00013F06CFF0022684BCDE90A0113F0B4FDF8
:1090C00042464B4613F0B0FD02980F460646324624
:1090D0003B465046594613F059FF002282468B46C4
:1090E0005D4B3046394613F09DFDDDE90A2313F050
:1090F00099FD02460B464046494613F093FDDDE9D3
:10910000042313F043FF3246804689463B46DDE99F
:10911000060113F03BFF02460B464046494613F05A
:1091200083FD8046894602460B4650465946CDE9A6
:1091300004AB13F079FDDDE902AB3DA3D3E90023D5
:1091400050460F4613F022FFDDE90423CDE902016A
:109150003946504613F066FD02460B4640464946E6
:1091600013F060FD34A3D3E9002313F00FFF34A301
:10917000D3E90023804689465046394613F006FF5E
:1091800002460B464046494613F04EFDDDE90E23EC
:1091900013F04AFD80460D98894613F091FE424631
:1091A00006460F464B46DDE9020113F03DFDDDE9C1
:1091B000082313F039FD32463B4613F035FD3246A5
:1091C0003B4650468B4613F02DFDDDE9082313F096
:1091D00029FDDDE9022313F025FD02460B4640463A
:1091E000494613F01FFD8046894637E0AFF3008003
:1091F0000000000000000000000000000000F03F40
:10920000EF4E454A287ECA3F65DBC9934A86CD3F6B
:1092100001411DA96074D13F4D268F515555D53F51
:10922000FFAB6FDBB66DDB3F033333333333E33FE9
:10923000000000E009C7EE3FFD033ADC09C7EE3F3E
:10924000F5015B14E02F3EBE000040438E98030002
:1092500079B60B000000F03F00000840013C54EAE2
:10926000050300F079819FEDC87B8DED047BDDE97E
:1092700000120B461446CDE9023400230293DDE9C7
:10928000024508462B461146224613F0CBFC5246B7
:109290005B4613F07BFEDDE9002306460F464046A1
:1092A000494613F073FE02460B463046394613F02A
:1092B000BBFC2246804689462B4650465946CDE99E
:1092C000008913F063FE0B46024606460F464046F1
:1092D000494613F0A9FCC64B994204460D468A46FE
:1092E00040F3168101F13F4303F5E003034340F0EF
:1092F000F781A7A3D3E90023DDE9000113F094FC73
:109300003246804689463B462046294613F08AFC71
:1093100002460B464046494614F0C8F8002840F083
:10932000DF81A8464FEA28534FF48012A3F2FE33A0
:1093300042FA03F35344C3F30A52AE4DA2F2FF3292
:109340001541C3F3130423EA05010020C2F1140BF5
:1093500044F48014BAF1000F02460B4644FA0BFBAA
:1093600030463946B8BFCBF1000B13F05BFC024628
:109370000B4606460F46DDE9000113F055FC4FEAA7
:109380000B5A0D46002484A3D3E900232046294626
:1093900013F0FCFD3246804689463B46204629466E
:1093A00013F040FC02460B46DDE9000113F03AFCE5
:1093B0007BA3D3E9002313F0E9FD7BA3D3E90023CA
:1093C00006460F462046294613F0E0FD02460B46AE
:1093D0003046394613F028FC06460F4602460B4637
:1093E0004046494613F020FC42464B4604460D4693
:1093F00013F018FC02460B463046394613F012FCB7
:109400002246804689462B462046294613F0BEFD5B
:1094100067A3D3E9002306460F4613F0B7FD66A302
:10942000D3E9002313F0FEFB32463B4613F0AEFDBA
:1094300063A3D3E9002313F0F7FB32463B4613F056
:10944000A5FD61A3D3E9002313F0ECFB32463B46B4
:1094500013F09CFD5EA3D3E9002313F0E5FB324635
:109460003B4613F093FD02460B462046294613F077
:10947000D9FB06460F4602460B462046294613F006
:1094800085FD0022CDE900014FF08043304639468A
:1094900013F0C8FB02460B46DDE9000113F0A0FE05
:1094A000424606460F464B462046294613F06EFDBF
:1094B00042464B4613F0B8FB02460B46304639464F
:1094C00013F0B0FB22462B4613F0ACFB02460B46D2
:1094D0000020494913F0A6FB8A44BAF5801FC0F268
:1094E00039815146DDE9042313F050FD52E4424630
:1094F0004B464046494613F049FD4BE4BAF1000F94
:10950000BFF6D7ACDDE90034184604F1004141E470
:109510003A4B21F00048984540F3FF80384B0B440C
:1095200003430CD132463B4613F07CFB02460B460C
:10953000DDE9000113F0A6FF00283FF4F3AEDDE9FA
:10954000040125A3D3E9002313F020FD22A3D3E9CE
:10955000002313F01BFD1DE49FED217B8DED047BAB
:1095600085E602460B460020234913F039FE2EE41F
:109570009FED1D7B8DED087B8DED0E7B9FED027BBE
:1095800000278DED067BD8E4000000000000F03FCE
:10959000FE822B654715973C00000000432EE63FF6
:1095A000EF39FAFE422EE63F396CA80C615C20BE12
:1095B000D0A4BE726937663EF16BD2C541BDBB3ED9
:1095C0002CDE25AF6A56113F93BDBE166CC1663FB7
:1095D0003E5555555555C53F59F3F8C21F6EA50167
:1095E000000000000000F0BF0000000000000000CC
:1095F000FFFF8F40FFFF0F000000F03FFFCB9040C8
:1096000000346F3F684B9E427FF750AC674B9E42E1
:109610003FF7FDAB0022654B13F004FB52A3D3E9E7
:10962000002306460F4613F0B1FC51A3D3E90023F3
:10963000804689463046394613F0A8FC002282460F
:109640008B465B4B3046394613F0A0FC02460B4676
:1096500049A1D1E9000113F0E5FA32463B4613F087
:1096600095FC02460B460020524913F0DBFA3246C5
:10967000CDE902013B463046394613F087FC0246ED
:109680000B46DDE9020113F081FC3DA3D3E9002381
:1096900013F07CFC02460B465046594613F0C2FAC2
:1096A00002460B4606460F464046494613F0BCFAB2
:1096B00042464B46002082468B4613F0B3FA0246E0
:1096C0000B463046394613F0ADFA80468946C5E56B
:1096D00042464B460020354913F082FDFFF75ABB46
:1096E000DDE9040128A3D3E9002313F04FFC26A3EE
:1096F000D3E9002313F04AFCFFF74CBBBEF1000F87
:109700007FF453ABC3F1140347FA03F202FA03F3F5
:109710009F4223D07446FFF720BB264B98453FF766
:1097200001AEDDE90223924693462BE602460B4644
:10973000FFF7B3BB9FED167B8DED087B9FED167B8E
:109740008DED0E7B9FED167B4FF480278DED067B14
:10975000FFF7F3BB5A4601F04FFDC3E602F00102EA
:10976000C2F10204FFF7F9BA000000604715F73FA5
:1097700044DF5DF80BAE543E555555555555D53F14
:10978000FE822B654715F73F9C7500883CE4377EC9
:109790000000004003B8E23F06D0CF43EBFD4C3E53
:1097A000000000000000F83FFEFFEF3F0000F03F28
:1097B0000000D03F0000E03F2DE9F0479C4B21F036
:1097C00000479F4290B08046894640F38E80994B77
:1097D0009F420C46924626DC00298BA3D3E9002346
:1097E00040F3B08113F01EFA934B9F4204460D469E
:1097F00000F0908086A3D3E9002313F013FA024609
:109800000B46CAE900232046294613F00BFA80A331
:10981000D3E9002313F006FA0125CAE9020128461C
:1098200010B0BDE8F087854B9F4240F39080844B99
:109830009F4265DC3D15A5F21645A7EB0553194679
:109840001F46064613F052FE13F03AFB8046894647
:1098500042464B4630463946CDE90A8913F0E2F9D3
:109860000022784B13F092FB8946804613F03EFEAF
:1098700013F026FB06460F4632463B464046494615
:10988000CDE90C6713F0CEF900226E4B13F07EFB8E
:1098900000220023CDE90E0113F0E0FD002800F0C6
:1098A0006F81002330463946002213F0D7FD00288F
:1098B00014BF01230223644A019202212A46009127
:1098C0000AA8514600F08CFB002C054614DADAF8A1
:1098D0000420DAF80C3002F1004203F10043454263
:1098E000CAF80420CAF80C3006E000200021C2E9C2
:1098F0000089C2E902010025284610B0BDE8F087C2
:1099000002460B4613F08EF90025CAE90201CAE9A6
:109910000001F1E740A3D3E9002313F083F940A34A
:10992000D3E900230D46044613F07CF902460B46AA
:10993000CAE900232946204613F074F938A3D3E975
:10994000002313F06FF90125CAE90201D4E711F0F1
:1099500019FA35A3D3E900238046894613F016FB94
:1099600000223A4B13F060F913F0C0FD054613F0E6
:10997000A7FA25A3D3E90023CDE9060113F006FBDE
:1099800002460B464046494613F04CF920A3D3E962
:109990000023CDE90201DDE9060113F0F7FA1F2DDE
:1099A00080468946CDE9048954DC294B6A1E53F868
:1099B00022309F424ED002460B46DDE9020113F0F1
:1099C00031F980468946CAE9008942464B46DDE9BD
:1099D000020113F027F9DDE9042313F023F9002C29
:1099E000CAE9020188DA09F1004401F100436D423D
:1099F000CAF80080CAF80440CAF80800CAF80C3057
:109A00007AE700BFAFF3008000004054FB21F93F2C
:109A10003163621A61B4D03D0000601A61B4D03D78
:109A20007370032E8A19A33B83C8C96D305FE43F6E
:109A3000FB21E93F7BD90240FB21F93FFB21394162
:109A4000FFFFEF7F0000704188F303000000E03F5C
:109A500008F30300DDE90423DDE9020113F0E2F875
:109A60003F15C1F30A53FB1A80468946102BCAE9F9
:109A70000089AADD58A3D3E90023DDE9060113F02C
:109A800085FA8046894602460B46DDE9020113F05D
:109A9000C9F802460B46DDE90201CDE9082313F0BF
:109AA000C1F842464B4613F0BDF84DA3D3E900235D
:109AB00080468946DDE9060113F068FA42464B46C6
:109AC00013F0B0F80B46CDE904010246DDE90801C8
:109AD00013F0A8F8C1F30A53FF1A80468946312FC4
:109AE000CAE900896CDD41A3D3E90023DDE9060161
:109AF00013F04CFADDE9088906460F4602460B468C
:109B00004046494613F08EF802460B464046494609
:109B1000CDE9022313F086F832463B4613F082F873
:109B200034A3D3E9002306460F46DDE9060113F00E
:109B30002DFA32463B4613F075F802460B46CDE946
:109B400004233AE713F070F8274B9F4204460D4672
:109B500018D01FA3D3E9002313F066F802460B4682
:109B6000CAE900232946204613F05CF818A3D3E97C
:109B7000002313F059F84FF0FF35CAE90201BBE6A4
:109B8000032398E614A3D3E9002313F04DF814A39C
:109B9000D3E900230D46044613F046F802460B466F
:109BA000CAE900232946204613F03CF80CA3D3E968
:109BB000002313F039F84FF0FF35CAE902019BE6A4
:109BC0009DED087B8DED027BFFE600BFAFF30080CB
:109BD0003163621A61B4D03D0000601A61B4D03DB7
:109BE0007370032E8A19A33BFB21F93F0000002E5E
:109BF0008A19A33BC14920259A837B3900000000C4
:109C0000594A2DE9F84F21F00048904506460F4685
:109C10002BDC564B0029B4BF554D564D98454FF09F
:109C2000000410DC544B984570DC4DA3D3E90023AD
:109C300012F0FAFF0022514B13F038FCD8B1304635
:109C40003946BDE8F88F4E4B98457CDD4D4B984525
:109C500044DD013398453ED03046394640A3D3E930
:109C6000002313F093F9BDE8F88F02460B4612F07B
:109C7000DBFFBDE8F88F3046394611F083F801F07C
:109C80007FF806460F4632463B463046394612F0CC
:109C9000CBFF324682468B463B463046394613F070
:109CA00075F9002280468946344B3046394612F019
:109CB000BBFF02460B464046494613F091FA024666
:109CC0000B465046594612F0ADFF22462B4613F084
:109CD0005DF9BDE8F88F2C4B9842BDD83046394627
:109CE00011F050F80022234B13F050F9FEF714FC4A
:109CF00006460F4602460B462046294613F046F913
:109D000032463B4613F042F9BDE8F88F11F03AF8BD
:109D100001F036F81D4B984506460F46B3DD00228C
:109D2000164B12F081FF02460B463046394613F0BF
:109D300057FA32463B4612F077FF22462B4613F085
:109D400025F9BDE8F88F11F01DF8FEF7E5FB024696
:109D50000B462046294613F019F9BDE8F88F00BFDD
:109D60003374AC3C1F7BAC7FFFFFEF7FFFFF3540C0
:109D70000000E0BF0000E03FFFFF2F3E0000F03F8B
:109D8000412E8640CD3386407DF8B98FFFFFEF3FEF
:109D90002DE9F04F21F00048B8F1795F85B0064613
:109DA0000F4692469B466BDA13F0A0FB002800F0AA
:109DB000EA8032463B463046394613F0E7F874A352
:109DC000D3E9002304460D4613F0E0F872A3D3E96B
:109DD000002312F029FF22462B4613F0D7F870A378
:109DE000D3E9002312F01EFF22462B4613F0CEF8D3
:109DF0006DA3D3E9002312F017FF22462B4613F080
:109E0000C5F86BA3D3E9002312F00CFF22462B46C2
:109E100013F0BCF868A3D3E9002312F005FF224633
:109E20002B4613F0B3F8CDE900010022664B204623
:109E3000294613F0ABF8DDE9002380468946204629
:109E4000294613F0A3F8524604460D465B463046B9
:109E5000394613F09BF802460B462046294612F07D
:109E6000E1FE02460B464046494612F0DBFE024642
:109E70000B460020554912F0D5FE05B0BDE8F08F25
:109E800002460B4613F082F841A3D3E900230446AF
:109E90000D4613F07BF840A3D3E9002312F0C4FE73
:109EA00022462B4613F072F83DA3D3E9002312F0AB
:109EB000B9FE22462B4613F069F83BA3D3E90023F1
:109EC00012F0B2FE22462B4613F060F838A3D3E915
:109ED000002312F0A7FE22462B4613F057F836A3B4
:109EE000D3E9002312F0A0FE2B46224613F04EF8D1
:109EF000374B9845CDE9000197DD364B984539DC65
:109F0000A8F500130022002030499046994612F02F
:109F100089FECDE9020100222B4B2046294613F091
:109F200035F842464B4612F07DFEDDE900238046BF
:109F300089462046294613F029F8524604460D4624
:109F40005B463046394613F021F802460B46204660
:109F5000294612F067FE02460B464046494612F07B
:109F600061FE02460B46DDE9020112F05BFE05B020
:109F7000BDE8F08F9FED127B4FF000088DED027B66
:109F8000DFF85490C7E71149002005B0BDE8F08F15
:109F9000D43888BEE9FAA8BDC4B1B4BD9EEE213E56
:109FA000AD529C804F7E923E9015CB19A001FA3E97
:109FB0007751C1166CC1563F4C5555555555A53F67
:109FC000000000000000E73F0000E03F0000F03F1D
:109FD0003233D33F0000E93F0000D23F00000000D1
:109FE0002DE9F04FADF51B7D9F4CA49E9F4D54F87D
:109FF000264007942646D41E85FB0475E417C4EB5F
:10A00000A50424EAE4741D460A93631CA3EB8303AE
:10A01000013D02EBC30306932B460B940395651B8E
:10A02000F418049008911AD42C4400260027013417
:10A030000DF18808DDF8949208E059F8250012F037
:10A040003FFF0135A542E8E8020108D0002DF4DA0F
:10A05000013530463946A542E8E80201F6D1079BB2
:10A06000002BC0F2DF83079B03F1010B0A9B22A99F
:10A07000DB001A4601EB03090093049B0DF5E47A1B
:10A0800019460AEBCB0B01EB0208039B002BC0F235
:10A09000F582049C4D460026002775E90223F4E86A
:10A0A000020112F073FF02460B463046394612F0A9
:10A0B000BBFD444506460F46EFD1EAE80267DA45A4
:10A0C00009F10809E1D107990098049C009101F178
:10A0D0008043013B9B0020441A1F83460EA8024484
:10A0E00003440C920D93009A9AA901EBC203002A33
:10A0F00053E9284529DD0DF5E47A0AEBC2080DF194
:10A10000340900225A4B2046294612F03FFF13F033
:10A11000EDF912F0D5FE0022564B06460F4612F01E
:10A1200035FF02460B462046294612F07BFD13F010
:10A13000DDF978E9022349F8040F3946304612F078
:10A1400073FDD04504460D46DBD1DDF8189020465E
:10A1500029464A4601F050F800224FF07F5304464A
:10A160000D4612F013FFFCF75FFD0022424B12F088
:10A170000DFF02460B462046294612F053FD0D46C0
:10A18000044613F0B3F9804612F09AFE0B460246DD
:10A190002946204612F046FD4B46002B06460F4648
:10A1A00040F3F980009A0EA9013AC9F1180351F859
:10A1B000225045FA03F101FA03F30EA8EB1A40F816
:10A1C0002230C9F11705884443FA05F5002D6DDDED
:10A1D000009B002B08F1010840F36F820E9C002CBD
:10A1E00040F01683009B012B40F38F820EAA0123BF
:10A1F00052F8044F002C00F08382581C0EAAC4F1C0
:10A20000807442F82340009A824219DD0EAA0EACF7
:10A2100052F820106FF07F42511A44F82010009934
:10A22000023399420CDD1046009A0EA901EB83031C
:10A2300001EB82011A68821A43F8042B8B42F9D190
:10A24000069B002B1ADD069B012B4FF0010440F00A
:10A250003C82009B5A1E0EAB0EA953F82230C3F36A
:10A26000160341F822303CE228F80300ABAAAA2AE0
:10A270000000703E0000704100002040022D15D10A
:10A2800032463B460020924912F0CCFC06460F466F
:10A29000069A8F49002000F0AFFF02460B46304679
:10A2A000394612F0BFFC022506460F460022002365
:10A2B0003046394613F0D2F8002800F03782009A71
:10A2C000079B501E83420FDC02F18043013B0EAA24
:10A2D0000D9C02EB8303002253F80419A34242EAC7
:10A2E0000102F9D1002A67D1079B0EAA013B52F85F
:10A2F0002330002B40F018820C9A012352F80419E5
:10A3000001330029FAD0009AD31802F1010A9A45C4
:10A3100009933DDC009B0A990B9A0B4409990AEBBF
:10A320000208994622AB08F1804803EBC9098B1853
:10A33000A59A08F1FF3802EB880872AA02EBCA0A54
:10A34000A59A02EB8303009358F8040F12F0B8FDAE
:10A35000039B002BE9E802014FF000064FF00007D5
:10A3600011DB049C4D4675E90223F4E8020112F06A
:10A370000DFE02460B463046394612F055FC5C4550
:10A3800006460F46EFD1009B9845EAE80267DBD10D
:10A39000099B0093A7E606D1009B0EAA013B52F849
:10A3A0002350ED1512E700224A4B13F075F80028F0
:10A3B00040F06E81054679E70EA9039551F82030EB
:10A3C0000699CDF8248018390246009006916BB9A1
:10A3D00000F18043013B0EA800EB830353F804090E
:10A3E000013A18390028F9D000920691069A3849A6
:10A3F000002000F001FF009B002B04460D46C0F238
:10A40000F781DA0072A901EB020B06920EAA02EBA9
:10A410008306DFF8C4904FF000080BF108070436FC
:10A4200056F8040D12F04CFD22462B4612F0AEFDFC
:10A430004B4667E9020142462046294612F0A6FD36
:10A440000EAB9E4204460D46EAD14AACDDF81C90A4
:10A4500004944FF0000AB9F1000FC0F22B81DFF82D
:10A460007C805D4618A1D1E9000100260027002468
:10A4700003E0544510DCF8E80201F5E8022312F08D
:10A4800085FD02460B463046394612F0CDFB0134BD
:10A49000A14506460F46ECDA049B03EBCA03ABF179
:10A4A000080BC3E9006770AB9B450AF1010AD2D1E2
:10A4B000A49B049C032B00F28980DFE803F0C58E87
:10A4C0008E1100BFAFF3008000000040FB21F93F78
:10A4D0000000F03F0000E03F0000703E20E203007B
:10A4E000009B002B40F38181069A04EB020ADAE913
:10A4F000008902F1080525440DF5987B1AED027BD1
:10A5000042464B4651EC170B8DED047B12F08CFB51
:10A5100006460F4602460B46DDE9040112F082FBB7
:10A5200042464B4612F080FB65E902015D45B046AC
:10A53000B9466AE90267E1D1009B012B40F35581DE
:10A54000069BE518D5E9008903F1080B04EB0B0A1B
:10A5500015ED027B42464B4651EC170B8DED007B0F
:10A5600012F062FB06460F4602460B46DDE900018B
:10A5700012F058FB4B46424612F056FB6AE90201C4
:10A580004EAB5345B046B94665E90267E0D10020BD
:10A59000002104EB0B0575E9022312F045FBAA45E7
:10A5A000F9D1039B002B00F00A816268E368089FE1
:10A5B0002568A4683D6002F1004203F1004301F107
:10A5C00000417A60FB60BC6038617961099B03F0EF
:10A5D00007000DF51B7DBDE8F08F069D083525446D
:10A5E0000020002175E9022312F01EFBA542F9D1DB
:10A5F000039B002B00F0D280089E024601F100432D
:10A6000086E80C000B460246D4E9000112F00AFB72
:10A61000009B002B0BDD4CAD0124F5E8022312F06A
:10A6200003FB009B0134A342F7DA039B13B101F152
:10A6300000431946089BC3E90201099B03F0070088
:10A640000DF51B7DBDE8F08F069D0835002000212B
:10A65000254475E9022312F0E7FAAC42F9D1039BD5
:10A6600013B101F100431946089BC3E90001099B9E
:10A6700003F007000DF51B7DBDE8F08F00260027D5
:10A68000EAE80267DA4509F108097FF4FEAC1AE549
:10A69000009B002B08F10108C8BF02253FF79EADC3
:10A6A00032463B460020614912F0BCFA02250646BC
:10A6B0000F46FBE500260027EEE6069B002B27DD74
:10A6C0000024069B012B3FF4C4AD022B09D1009B53
:10A6D0005A1E0EAB0EA953F82230C3F3150341F8EE
:10A6E0002230022D7FF4E2AD32463B4600204F4936
:10A6F00012F098FA06460F46002C3FF4D7ADC7E596
:10A700000099013399427FF473AD069B002BD8DC8E
:10A71000022D7FF4CBAD32463B460020434912F078
:10A7200081FA06460F46C1E50123ECE53946069F4E
:10A7300003957A423046CDF8248000F05DFD00227A
:10A740003B4B04460D4612F0A7FE002843D00022E2
:10A75000384B2046294612F019FC12F0C7FE064677
:10A7600012F0AEFB0022324B12F010FC02460B46F8
:10A770002046294612F056FA12F0B8FE00990B4610
:10A7800001331A4600933B46183306930B460EA935
:10A7900041F82300134641F8236027E6089B024650
:10A7A000C3E900010B46D4E9000112F03BFA009B1B
:10A7B000002B3FF730AF089BC3E902013DE7D4E926
:10A7C0000067D4E90223089DC5E90401C5E90067D3
:10A7D000C5E90223FAE62946204612F087FE009AD0
:10A7E0000EA941F8220001E64AAC00200021D8E67B
:10A7F000A49B032B3FF6EAAE01A252F823F000BF60
:10A800001FA8020017A8020017A80200E9A702006B
:10A8100001200023F2E4002000214AACE8E60020F9
:10A8200000211CE70A9BDB0000934CE40000F03F92
:10A83000000070410000703E2DE9F04F21F000460D
:10A84000B6F1795F85B004460D469046994604DA24
:10A8500012F04CFE002800F0858022462B46204650
:10A86000294612F093FB06460F4602460B46204649
:10A87000294612F08BFB41A3D3E9002382468B4685
:10A880003046394612F082FB3EA3D3E9002312F092
:10A89000C9F932463B4612F079FB3CA3D3E90023C9
:10A8A00012F0C2F932463B4612F070FB39A3D3E9ED
:10A8B000002312F0B7F932463B4612F067FB37A38C
:10A8C000D3E9002312F0B0F90E9BCDE900019BB350
:10A8D0000022294B4046494612F058FBDDE900238F
:10A8E000CDE902015046594612F050FB02460B4694
:10A8F000DDE9020112F096F932463B4612F046FBC2
:10A9000042464B4612F08EF919A3D3E900230646BE
:10A910000F465046594612F039FB02460B46304668
:10A92000394612F081F902460B462046294612F0BC
:10A9300079F905B0BDE8F08F02460B46304639463E
:10A9400012F024FB0AA3D3E9002312F06BF952465C
:10A950005B4612F01BFB22462B4612F065F905B050
:10A96000BDE8F08F2046294605B0BDE8F08F00BF56
:10A97000495555555555C53F0000E03F7CD5CF5A48
:10A980003AD9E53DEB9C2B8AE6E55A3E7DFEB15770
:10A99000E31DC73ED561C119A0012A3FA6F81011D9
:10A9A0001111813F000000002DE9F04FBE4C21F055
:10A9B000004687B0A64282468B460F46CDE900236B
:10A9C0001BDC12F093FD002837D153461E43109B29
:10A9D0000133334300F0B381109B012B00F0C88199
:10A9E00052465B460020B14912F0FAFB04460D4680
:10A9F0002046294607B0BDE8F08FAD4B9E421CDDD6
:10AA00000029C0F2A98152465B4687A1D1E9000125
:10AA100012F008F9DDE9002304460D4684A1D1E9CE
:10AA2000000112F0FFF89FED847B22462B468DED4E
:10AA3000007B12F0F9F882468B4652465B46504640
:10AA4000594612F0A3FA02460B468046894612F098
:10AA50009DFA424604460D464B465046594612F072
:10AA600095FA77A3D3E90023CDE9020120462946D0
:10AA700012F08CFA74A3D3E9002312F0D5F8224621
:10AA80002B4612F083FA72A3D3E9002312F0CCF81C
:10AA900022462B4612F07AFA6FA3D3E9002312F074
:10AAA000C3F822462B4612F071FA6DA3D3E90023B6
:10AAB00012F0BAF822462B4612F068FA6AA3D3E9DC
:10AAC000002312F0B1F842464B4612F05FFA68A339
:10AAD000D3E90023CDE904012046294612F056FAB5
:10AAE00065A3D3E9002312F09FF822462B4612F00B
:10AAF0004DFA63A3D3E9002312F096F822462B46C1
:10AB000012F044FA60A3D3E9002312F08DF8224634
:10AB10002B4612F03BFA5EA3D3E9002312F084F82F
:10AB200022462B4612F032FA5BA3D3E9002312F03F
:10AB30007BF802460B46DDE9040112F075F8DDE909
:10AB4000022312F023FADDE9004522462B4612F0DB
:10AB50006BF842464B4612F019FA02460B46204665
:10AB6000294612F061F84EA3D3E9002304460D46AE
:10AB7000DDE9020112F00AFA22462B4612F054F8DF
:10AB80000B460246804689465046594612F04CF81C
:10AB9000474B9E4204460D4600F38E80109B012BCE
:10ABA0003BD002460B460020404912F019FB00241E
:10ABB00006460F462046294652465B46CDE90067C9
:10ABC000CDE90201009412F02DF8DDE900AB024658
:10ABD0000B464046494612F025F852465B4612F0B5
:10ABE000D5F9524604460D465B46DDE9020112F0F6
:10ABF000CDF900222F4B12F017F802460B462046E3
:10AC0000294612F011F832463B4612F0BFF952467F
:10AC10005B4612F009F804460D462046294607B067
:10AC2000BDE8F08FAFF30080182D4454FB21E93FBD
:10AC3000075C143326A6813C0000000000000000E1
:10AC4000D47ABF74702AFB3EE9A7F0320FB8123FE6
:10AC500068108D1AF726303F1583E0FEC8DB573F9A
:10AC600093846EE9E326823FFE41B31BBAA1AB3F5A
:10AC7000735360DBCB75F3BEA69237A0887E143F7A
:10AC80000165F2F2D844433F280356C9226D6D3F57
:10AC900037D60684F464963F7AFE10111111C13F35
:10ACA000635555555555D53FFFFF2F3E0000F0BF6A
:10ACB0002794E53F0000F03F109812F001F922467A
:10ACC000CDE900012B462046294612F05FF9DDE967
:10ACD0000023CDE902012046294611F0A5FF0246D6
:10ACE0000B46DDE9020112F07BFA42464B4611F0B9
:10ACF00099FF02460B465046594611F093FF024613
:10AD00000B4611F091FF02460B46DDE9000111F000
:10AD100089FF0446B81700F00200C0F101000D469B
:10AD200012F0CEF802460B462046294612F02EF9C4
:10AD300004460D462046294607B0BDE8F08F504630
:10AD4000594610F01FF802460B4600200A4912F03F
:10AD500047FA04460D4660E7DDE9004501F1004190
:10AD6000224605F1004382468B46CDE900234AE6A0
:10AD700054465D4651E700BF0000F03F0000000070
:10AD80002DE9F04FD24A21F00043934285B082462C
:10AD90008B460C462DD9CF4A93421AD8002C80F20C
:10ADA0001681B5A3D3E900235046594611F03CFF64
:10ADB0000022002312F05CFBC0B9B1A3D3E9002349
:10ADC0005046594612F0E2F802460B460020C249AE
:10ADD00008E1C24A934240F2D0800346C1F3130215
:10ADE000134340F0F481002980F2C4800020BC4964
:10ADF000C0E0BC4A934200F22981BB4A934240F230
:10AE0000DE80002301930022B84B5046594612F0D1
:10AE1000BDF806460F4602460B465046594612F00C
:10AE2000B5F899A3D3E9002304460D4612F0AEF815
:10AE300097A3D3E9002311F0F7FE22462B4612F028
:10AE4000A5F895A3D3E9002311F0ECFE22462B468A
:10AE500012F09CF892A3D3E9002311F0E5FE2246FC
:10AE60002B4612F093F890A3D3E9002311F0DAFEF9
:10AE700022462B4612F08AF800229D4B11F0D4FE98
:10AE80008046894602460B463046394612F07EF827
:10AE900002460B460020974911F0C4FE06460246C2
:10AEA0000B460F464046494611F0BCFE32468046EE
:10AEB00089463B465046594612F068F802460B4612
:10AEC00000208D4911F0AEFE02460B464046494631
:10AED00012F086F922462B4612F058F8019E0246DF
:10AEE0000B46002E38D0DDE9026732463B4611F0B2
:10AEF00099FE52465B4612F049F832463B4611F045
:10AF000091FE2B46224611F08DFE019B0133064631
:10AF10000F4600F00F81019B012B00F0F180019B97
:10AF20000133392B39D8019B132B40F31281019C3B
:10AF3000C4F57F75033500222B0511F075FE02461E
:10AF40000B465046594611F06DFE0022684B11F039
:10AF50006BFE01EB04510DE05046594612F016F815
:10AF600022462B4611F05EFE02460B4650465946DD
:10AF700011F058FE05B0BDE8F08F4DA3D3E90023D2
:10AF800012F094FA00283FF409AF4BA3D3E9002351
:10AF90001046194611F0FAFFECE752465B4611F0F5
:10AFA00041FE02460B460020514911F03BFE019A3A
:10AFB0004F4B01EB0251002211F034FEDAE73EA3C1
:10AFC000D3E9002311F030FE02460B46CAE72CA35A
:10AFD000D3E900235046594611F0D8FF0B464349A8
:10AFE0000246002011F020FE12F080FA019011F0CC
:10AFF00067FF33A3D3E9002306460F4611F0C6FFCF
:10B0000002460B465046594611F00CFE2EA3D3E9DA
:10B010000023804689463046394611F0B7FF064680
:10B020000F4632463B464046494611F0FBFD02467C
:10B030000B4682468B464046494611F0F3FD3246A8
:10B040003B4611F0EFFDCDE90201DCE62B4A9342CD
:10B0500000F2958000291AA3D3E90023C0F2AC8046
:10B0600011F0E0FD012380468946019316A7D7E938
:10B070000067D6E7AFF3008059F3F8C21F6EA50151
:10B08000FE822B654715F73F2DC3096EB7FD8ABEBB
:10B090003952E686CACFD03EB7DBAA9E19CE143FFE
:10B0A0008555FE19A0015A3FF41011111111A13F4D
:10B0B000EF39FAFE422E86409C7500883CE4377ECC
:10B0C0000000E0FE422EE63F763C7935EF39EA3D5E
:10B0D00079684340412E86400000E0BFFFFFEF7FCC
:10B0E0000000F0BF422ED63FFFFF8F3C0000E03F44
:10B0F0000000F03F0000084000001840B1A2F03FFF
:10B100000022394B5046594612F0B2F9002844D07B
:10B11000504659460022354B11F086FD02460B463B
:10B120003046394611F07EFD00224FF0404311F0C9
:10B130002DFF1FE702460B465046594611F072FD9F
:10B1400000222A4B11F022FF0022284B11F06AFD49
:10B1500010E7019C4FF400132341C3F17F5752467F
:10B160005B4611F05FFD002607F5401702460B46CF
:10B170003046394611F056FD01EB0451FAE616A3AC
:10B18000D3E9002311F002FF002C02460B464FF0DA
:10B190000000FFF61CAE154924E732463B465046F8
:10B1A000594611F03FFD02460B4611F03DFD0022CD
:10B1B0000F4B11F039FDDDE611F036FD4FF0FF3396
:10B1C00080468946019306A7D7E9006729E702462A
:10B1D0000B4611F029FDCDE6FE822B654715F73FA2
:10B1E000763C7935EF39EABD0000D0BF0000E03F82
:10B1F0000000F03F00000000F8B5C1F30A56044615
:10B200000D460B4617460EBB21F00043034386460E
:10B2100025D00022344B11F0B9FE344A974204463F
:10B220000D460B462ADBC1F30A56363E3E4440F239
:10B23000FE72964228DC002E12DD23F0FF4323F439
:10B24000E00343EA065520462946F8BD40F2FF7266
:10B250009642EBD102460B4611F0E6FCF8BDF8BD74
:10B2600016F1350F1DDA4CF250339F4222462B4621
:10B2700025DC19A1D1E9000111F046FC16A3D3E9A0
:10B28000002311F083FEF8BD22462B4614A1D1E91C
:10B29000000111F039FC12A3D3E9002311F076FE6E
:10B2A000F8BD23F0FF4323F4E003363643EA0655A6
:10B2B0002046294600220E4B11F068FEF8BD08A179
:10B2C000D1E9000111F020FC05A3D3E9002311F01E
:10B2D0005DFEF8BDAFF3008059F3F8C21F6EA50103
:10B2E0009C7500883CE4377E00005043B03CFFFF73
:10B2F0000000903C10B5054C237833B9044B13B1D2
:10B300000448AFF300800123237010BD1085002096
:10B310000000000080F903000C4B43B10C480D49BC
:10B3200010B5AFF300800C48036823B910BD0A487C
:10B33000036833B97047094B002BF7D0BDE81040C4
:10B340001847064B002BF5D0184700BF000000003F
:10B3500080F9030014850020108200200000000006
:10B36000154B002B08BF134B9D46A3F5803A0021D7
:10B370008B460F461348144A121A07F0ADFF0F4BC5
:10B38000002B00D098470E4B002B00D09847002090
:10B39000002104000D000D48002802D00C48AFF336
:10B3A000008011F0E7FB2000290005F057F911F0AB
:10B3B000CDFB00BF000008000000042000000000DA
:10B3C0000000000000840020808C002000000000AD
:10B3D0000000000070B504460E4600F0D1F888B1B8
:10B3E0000368DB6A05469847082C0CD0A4F10903D2
:10B3F000012B14D93246214610230D20BDE87040A0
:10B4000004F066B870BD2B6828465B6A984702282E
:10B41000F0DC2B6828461B6A04219847EAE72B6872
:10B4200028465B6A98470528E4DC2B6828461B6A97
:10B4300008219847DEE700BF30B52DED028B83B0C1
:10B44000054600F09DF8044640B10368DB6A984762
:10B45000032D50D8DFE805F0373F470801900198E9
:10B4600003B0BDEC028B30BD20460BF0E3F907EED4
:10B47000900A2046F8EEE78A0BF0ECF907EE900A06
:10B480002046B8EEE78A0BF0F5F968EE087A07EE89
:10B49000100AE8EEA87AB8EEC77AE7EE077AF5EE7A
:10B4A000407AF1EE10FAB1EEE78A03D517EE900A72
:10B4B00010F0B4F9FDEEC87ACDED017A019803B031
:10B4C000BDEC028B30BD204603B0BDEC028BBDE865
:10B4D00030400BF0AFB9204603B0BDEC028BBDE8A5
:10B4E00030400BF0B7B9204603B0BDEC028BBDE88D
:10B4F00030400BF0BFB900230193B0E738B50546E3
:10B5000000F03EF858B10368DB6A0446984745B13D
:10B51000012D04D12046BDE83840FBF79DB800203E
:10B5200038BD2046BDE83840FBF776B810B5044674
:10B5300000F026F828B1036821461B6ABDE81040D8
:10B54000184710BD0048704716FCFFFF704700BF4A
:10B5500010B5034B036004460AF04CFF204610BDB3
:10B56000F0EE030010B5054B036004460AF042FFFD
:10B57000204612F04DFA204610BD00BFF0EE030049
:10B580002DE9F043C04C236885B01BB1986805B025
:10B59000BDE8F0834FF0FF31012001F0D1FCC0B2D3
:10B5A00004F0E6FA002800F0ED800C2012F032FAE8
:10B5B00003210646512001F0C3FCDFF8FCE2B34B47
:10B5C000054605F00F07C5F3031815F4807518BF7D
:10B5D0007346AF48394642460AF00AF92A1C18BF9A
:10B5E00001223946434630460DF08AF80023A94827
:10B5F000B3600AF0FDF84FF0FF31032001F0A0FC2A
:10B60000C0B204F0B5FA4FF0FF310546022001F058
:10B6100097FCC0B204F0ACFA002D00F09A8000282C
:10B6200000F097800146284604F034F807460028C9
:10B6300000F0A4804FF0FF31462001F081FC322859
:10B6400080462BD028DD382869D068283FD14FF0BC
:10B65000FF31012001F074FCC0B204F089FA814688
:10B660004C2012F0D7F90523054601934A46CDF840
:10B670000080394633460CF013F82846B060036862
:10B680009B6A9847B0680368DB6A984782480AF06B
:10B69000AFF82660B0687AE7302818D14FF0FF3154
:10B6A000012001F04DFCC0B204F062FA81464C204A
:10B6B00012F0B0F91FFA88F1054605234A460091B9
:10B6C0000193394633460BF0CDFD2846D6E73A685C
:10B6D0000125002301950095D2F82080B3600F2248
:10B6E0000DF10F0332213846C047002856D14FF0E4
:10B6F0003208414669480AF07BF84FF0FF310120DB
:10B7000001F01EFCC0B204F033FA81464C2012F066
:10B7100081F9052305464A46CDF80080D0E74FF071
:10B72000FF31012001F00CFCC0B204F021FA814687
:10B73000442012F06FF9052305464A46CDF80080F3
:10B740003946019333460BF003FF554B2B602846D7
:10B7500094E754480AF04CF84FF0FF31192001F0FB
:10B76000EFFBC0B204F004FA4FF0FF310546182099
:10B7700001F0E6FBC0B204F0FBF953E74A480AF0D7
:10B7800037F886E74FF0FF31032001F0D9FBC0B254
:10B7900004F0EEF900287FF408AFF8E63B68019565
:10B7A0000095D3F820800F220DF10F033021384689
:10B7B000C04718B94FF0300841469BE73B680195F8
:10B7C0000095D3F820800D220DF10F033821384663
:10B7D000C047C0B9382131480AF00AF84FF0FF31AC
:10B7E000284601F0ADFBC0B204F0C2F98046442007
:10B7F00012F010F94FF0050E38230546424639463F
:10B800008DE808409EE73A6801950095D2F82080BF
:10B810000DF10F03752268213846C047E0B9682151
:10B820001E4809F0E5FF4FF0FF31284601F088FB84
:10B83000C0B204F09DF980464C2012F0EBF84FF0B6
:10B84000050E682305468DE80840424639463346D2
:10B850000BF026FF284611E7144809F0C9FFB0682D
:10B8600000287FF40CAF4FF0FF31032001F068FB9C
:10B87000C0B204F07DF918B10D4809F0B9FF08E72E
:10B880000C4809F0B5FF04E72C850020ACE203006A
:10B89000B4E20300D4E203006CE3030090E303008E
:10B8A00070E20300E4E20300F8E203007CE303003B
:10B8B00010E303004CE30300A4E2030008B501F029
:10B8C00067FCFBF76DFCBDE8084001F0CFB900BF95
:10B8D00008B501F05DFCFBF7D3FCBDE8084001F0C2
:10B8E000C5B900BF08B501F053FC0FF0C1FABDE8BF
:10B8F000084001F0BBB900BF08B501F049FC0FF0EA
:10B90000C9FEBDE8084001F0B1B900BF08B501F0BB
:10B910003FFCFBF755FCBDE8084001F0A7B900BFAC
:10B9200008B501F035FC0FF0E1FCBDE8084001F07E
:10B930009DB900BF08B501F02BFCFAF7ADFEBDE8DC
:10B94000084001F093B900BF08B501F021FC0FF0E9
:10B9500021FCBDE8084001F089B900BF70B5049E24
:10B9600096420C4628DB15466BB1002A00EB02011B
:10B9700007DD2046A21811F8013D00F8013B904276
:10B98000F9D1002070BD042A0FD0022A02D110F094
:10B99000010306D001462A46204606F0B7FA0020E9
:10B9A00070BD02880A80184670BD10F00303F1D103
:10B9B00002680A60184670BD0846002107F08CFC3A
:10B9C0004FF0FF3070BD00BF0830704740B1002914
:10B9D00005DB4368994202DA0844007A7047002088
:10B9E000704700BF30B1002904DB43689942BCBFF7
:10B9F00040180272704700BF40B1002905DB436860
:10BA0000994202DA0844007A70470020704700BF6C
:10BA1000830705D120B1030F0CBF01200020704720
:10BA20000120704730B1002904DB43689942BCBF54
:10BA300040180272704700BF002B23DB002921DB76
:10BA400070B54668B1421ADC5568761A1446EA1A8F
:10BA5000B242A8BF3246002A11DB84420D4607D00D
:10BA6000083408300844E11806F050FA002070BD90
:10BA70000834E118601911F0FBFF002070BD4FF091
:10BA8000FF3070BD4FF0FF30704700BF4068704717
:10BA900010B4141E10DB426894420DDC33EA230319
:10BAA00028BF1346121B08309A422044A8BF1A46EA
:10BAB0005DF8044B07F010BC5DF8044B704700BF05
:10BAC00043688B4210B400F108041846A8BF08462A
:10BAD00032EA220128BF19461B1A99422044A8BF06
