:020000040801F1
:10000000008001206D490208ED6F02087598010813
:1000100021F4020821F4020821F402080000000083
:10002000000000000000000000000000F16F020866
:10003000F56F020800000000F96F0208FD6F02086A
:1000400021F4020821F4020821F4020821F4020834
:1000500021F4020821F40208756602087966020894
:100060007D66020881660208856602084D6D0208F9
:100070005D6D02086D6D02087D6D02088D6D0208D0
:100080009D6D0208AD6D020821F4020821F40208FA
:1000900021F4020821F4020821F40208896602080A
:1000A00021F4020821F4020821F4020821F40208D4
:1000B000A1500208A9500208B150020821F4020818
:1000C00021F4020821F4020821F40208696B0208F5
:1000D000756B020821F4020821F4020821F40208D9
:1000E0008D66020821F4020821F4020821F40208B6
:1000F00021F4020821F4020821F40208BD6D02086F
:1001000021F4020821F40208B9500208816B0208A8
:1001100021F4020821F4020821F4020821F4020863
:10012000CD6D0208DD6D0208ED6D0208FD6D02085F
:100130000D6E020821F4020821F4020821F40208DD
:1001400021F4020821F4020821F40208E552020811
:100150001D6E02082D6E02083D6E020821F4020891
:1001600021F4020821F4020821F4020821F4020813
:1001700021F4020821F4020821F402080000000022
:1001800021F4020821F4020821F4020821F40208F3
:100190008D6B020821F4020821F4020821F4020800
:1001A00021F4020821F4020821F4020821F40208D3
:1001B00021F40208000000002DE9F04F85B0039102
:1001C0000778A7F10903042B044607F07F0200F12A
:1001D0000100F5D9202AF3D02B2F04BF67780446FD
:1001E0002D2F72D09FED427B8DED007B4FF00008EC
:1001F0004FF000098FB34FF0000E4FF0000ADFF808
:1002000000B1754619E01BF0CBFE804689463046AA
:100210001BF060FE42464B461BF010FD52468046E6
:1002200089465B46DDE9000135B31BF0E3FFCDE90C
:100230000001AE4614F8017F7FB1A7F13006092E08
:1002400052465B4640464946DDD9C5B92E2F16D1E8
:1002500014F8017F0125002FEFD142464B46DDE91E
:1002600000011BF09DFE80468946039B404649469F
:100270001C6005B0BDE8F08F4FF0010EDAE7BEF16B
:10028000000F29D042464B46DDE900011BF088FEF5
:1002900007F0DF07452F80468946E6D10399601CA9
:1002A0000A221EF0EDFC1649024600201CF0D8F987
:1002B00002460B46404649461BF072FE8046894680
:1002C0004046494605B0BDE8F08F9FED0B7B67784F
:1002D0008DED007B013489E7DFF828904FF00008AE
:1002E0004046494605B0BDE8F08F00BFAFF300803F
:1002F000000000000000F03F000000000000F0BF20
:10030000000024400000F87F2DE9F84F1646002336
:10031000002204460D461CF0B5F8002840F09D80F0
:1003200000220023204629461CF0A2F828B13022E2
:10033000002332707370BDE8F88F204629461CF008
:100340009FFF1CF0DDF87BA3D3E9002381462946FB
:1003500020461CF097F8002800F08680B9F1000FC5
:10036000C0F2BE804A4600206F491CF079F902466F
:100370000B46204629461BF03DFF04460D4666A16C
:10038000D1E9000101274FF0000822462B461BF05F
:1003900007FE0022654B1BF051FC1CF09DF9002F5D
:1003A000CC464FF0FF3AC1464FF0000840F385803D
:1003B000DFF888E15E4C0122AEF1700945F6F325C5
:1003C0004FF02E0BA94208BFA0424FF0300309D3D3
:1003D000001B61EB0501A94208BFA04203F1010324
:1003E000F6D2DBB2337050EA010306F1010409D101
:1003F000BA4210DACE4502F101020CD026467EE860
:100400000245DFE7BA4204BF86F801B0B41CCE450E
:1004100002F10102F2D1B8F1000F0DD022463021D5
:1004200002F8011BC2F1010353442344002BF7DC03
:100430002AEAEA7301331C44BCF1010F4CD0652356
:10044000BCF1000F2370C5BF2B236370611CA11C7E
:100450006046BDE8F84F0FF00FBD05F100431D46A3
:100460002D23337001365BE72DA3D3E9002320460B
:1004700029461CF025F800287FF470AFB9F10E0F63
:1004800009F101073DDDA9F10E0842460020264989
:100490001CF0E6F802460B46204629461BF0AAFE51
:1004A0000022224B1BF0CAFB1CF016F9002FA9F109
:1004B0000F0A4FF0010C3FF77BAF334630222E245A
:1004C00003F8022B74707FEA090618D01E4403F863
:1004D000012BB342FBD16BE700232370BDE8F88FFB
:1004E000C9F10002002010491CF0BAF802460B4680
:1004F000204629461BF054FD04460D463FE71E46A4
:1005000056E7C9F10E0200200749C8461CF0A8F8BA
:100510004FF0010939E700BF0000901EC4BCD6426D
:1005200050EFE2D6E41A4B44000024400000E03FC4
:1005300000407A108DEDB5A0F7C6B03EF8FB02087A
:1005400070B54FF0FF3005F0C9FF04466FF07F40F3
:1005500005F0C4FF064620461BF0ACFC00220C4B05
:100560001BF01EFD044630460D461BF0A3FC06A3FF
:10057000D3E900231BF03EFE02460B4620462946E7
:100580001BF05CFB70BD00BF0000E0DFFFFF6F43AE
:100590000000F03D0000000008B510F051FFDFED55
:1005A0000C7A07EE100A67EE277A17EE900A1BF016
:1005B000A3FC05A3D3E900231BF01CFE1BF0A0FF46
:1005C00008BD00BFAFF30080EA2E4454FB21194060
:1005D0000000B4430000000008B510F045FFDFED57
:1005E0000C7A07EE100A67EE277A17EE900A1BF0D6
:1005F00083FC05A3D3E900231BF0FCFD1BF080FF67
:1006000008BD00BFAFF30080EA2E4454FB2119401F
:100610000000B443000000004F4A21F00043934221
:100620002DE970430D4604464FDC4C4A93420E467A
:100630000FDC45A3D3E900231BF000FB0022484B4D
:100640001BF03EFF002856D02B4620461946BDE839
:100650007083444A934242DCB3F1804F4BDD1CF07F
:1006600019FA2246804689462B46204629461BF029
:1006700097FC00223A4B1BF0E1FA1DF029FA0246E2
:100680000B46404649461BF0D9FA02460B4600206D
:1006900033491BF0AFFD424604460D464B464046EB
:1006A00049461BF0CBFA0B460246294620461BF072
:1006B000C5FA01F0FDFE04460B46002E0BDC03F1EB
:1006C000004320461946BDE870830B4602461BF0E6
:1006D000B5FA04460B4620461946BDE870831CF067
:1006E000D9F901F0E5FE1AA3D3E900231BF0A6FA1D
:1006F00004460B46E1E722462B46204629461BF0DE
:100700004FFC80468946204629461CF0C3F900224A
:100710000446134B0D46404649461BF08FFA1DF028
:10072000D7F900220E4B1BF089FA02460B464046D1
:1007300049461BF05FFD22462B461BF07FFA00F076
:10074000D3FA04460B46B8E79C7500883CE4377E34
:10075000EF39FAFE422EE63FFFFFEF7FFFFF2F3E0D
:100760000000F03F0000B0412DE9F84FC24B21F0EE
:1007700000469E420D468A46044610DDBF4B9E420F
:1007800000F3B58000F0B080BD4BBE49BE4CBAF15D
:10079000000FD8BF0B4620461946BDE8F88FBB4B6B
:1007A0009E4200F3C180A3F1DE739E4240F3AB8012
:1007B0004FF0FF3B22462B46204629461BF0F0FB1C
:1007C00002460B46804689461BF0EAFB92A3D3E91A
:1007D000002306460F461BF0E3FB91A3D3E9002359
:1007E0001BF02CFA32463B461BF0DAFB8EA3D3E912
:1007F00000231BF023FA32463B461BF0D1FB8CA3AF
:10080000D3E900231BF01AFA32463B461BF0C8FB23
:1008100089A3D3E900231BF011FA32463B461BF0B3
:10082000BFFB87A3D3E900231BF008FA42464B46DF
:100830001BF0B6FB84A3D3E90023804689463046EB
:1008400039461BF0ADFB82A3D3E900231BF0F4F97A
:1008500032463B461BF0A4FB7FA3D3E900231BF0E9
:10086000EBF932463B461BF09BFB7DA3D3E900230B
:100870001BF0E2F932463B461BF092FB7AA3D3E928
:1008800000231BF0D9F932463B461BF089FBBBF134
:10089000FF3F02460B466ED0404649461BF0CEF95C
:1008A00022462B461BF07CFB794E7A4B4FEACB0B52
:1008B0005E449B44DBE900231BF0BEF922462B4635
:1008C0001BF0BAF90B460246D6E900011BF0B4F959
:1008D000BAF1000F04460B46BFF65DAF01F10043CD
:1008E00020461946BDE8F88F00283FF44DAF224658
:1008F0002B46204629461BF0A1F904460B4620460C
:100900001946BDE8F88F5AA3D3E900231BF096F9E6
:100910000022614B1BF0D4FD00283FF449AF2B4669
:1009200020461946BDE8F88F1CF0B4F85B4B9E4298
:1009300004460D4630DCA3F550239E4255DC0246AA
:100940000B461BF07BF90022534B1BF075F900227C
:1009500006460F464FF08043204629461BF06EF9AD
:1009600002460B46304639461BF044FC4FF0000B64
:1009700004460D461EE7404649461BF05FF92246F5
:100980002B461BF00DFB0B460246294620461BF06A
:1009900053F904460B46FEE6414B9E421ADC002208
:1009A000404B1BF049F9002206460F463D4B2046BE
:1009B00029461BF0F5FA0022374B1BF03FF902469F
:1009C0000B46304639461BF015FC4FF0020B04462F
:1009D0000D46EFE602460B46002033491BF00AFCA9
:1009E0004FF0030B04460D46E4E600222A4B1BF0B1
:1009F00023F9002206460F46274B204629461BF0C6
:100A00001DF902460B46304639461BF0F3FB4FF00A
:100A1000010B04460D46CDE611DA22E33AAD903FD4
:100A2000EB0D76244B7BA93F513DD0A0660DB13F25
:100A30006E204CC5CD45B73FFF8300922449C23F8D
:100A40000D5555555555D53F2F6C6A2C44B4A2BF52
:100A50009AFDDE522DDEAD3F6D9A74AFF2B0B33F1A
:100A6000711623FEC671BC3FC4EB98999999C93F92
:100A70009C7500883CE4377EFFFF0F440000F07F48
:100A8000FB21F93FFB21F9BF182D4454FFFFDB3F49
:100A900008FC020828FC02080000F03FFFFFF23FBC
:100AA000FF7F03400000F83F0000F0BF000000009F
:100AB0002DE9F047C1F30A59A9F2FF36132E0B4670
:100AC0000D46044607468846824622DC002E4FDB50
:100AD0003D4A42FA06F901EA090202431ED038A350
:100AE000D3E900231BF0AAF8002200231BF0E8FC46
:100AF00050B1002D04DD4FF4801343FA06F6B044E4
:100B000028EA09054FF0000A544629462046BDE868
:100B1000F087332E06DDB6F5806F3DD019462046AE
:100B2000BDE8F087A9F213494FF0FF3222FA09F924
:100B300010EA090FF2D022A3D3E900231BF07EF8BC
:100B4000002200231BF0BCFC0028DDD0002D09DDB5
:100B5000142E2FD00123C6F1340603FA06F63719F6
:100B600028BF9844454627EA090A54462946CDE756
:100B700013A3D3E900231BF061F8002200231BF02C
:100B80009FFC0028C0D0002D0FDB55EA040709D0D8
:100B90004FF0000A0D4DB7E702460B461BF04EF82A
:100BA0000446BCE7BA463D46AEE74FF0000A4FF0B8
:100BB0000045A9E705F10108D4E700BFAFF30080C5
:100BC0009C7500883CE4377EFFFF0F000000F03F7B
:100BD000C1F30A522DE9F843A2F2FF36132E0B4659
:100BE0000D460446884607461DDC002E40DB3C4A85
:100BF00042FA06F901EA09020243864618D036A3F2
:100C0000D3E900231BF01AF8002200231BF058FC44
:100C100020B1002D42DB28EA090500273C46294681
:100C20002046BDE8F883332E06DDB6F5806F2FD061
:100C300019462046BDE8F883A2F213424FF0FF396F
:100C400029FA02F910EA090FF2D023A3D3E900230D
:100C50001AF0F4FF002200231BF032FC0028DDD044
:100C6000002D21DB454627EA09073C462946D7E700
:100C700019A3D3E900231AF0E1FF002200231BF09F
:100C80001FFC0028CAD0002D19DB00273D46C5E710
:100C900002460B461AF0D2FF0446CAE74FF480130F
:100CA00043FA06F6B044B6E7142E10D00123C6F17D
:100CB000340603FA06F6371928BF9844D2E725F020
:100CC0000042084B224318BF1D460027A6E705F146
:100CD0000108C7E7AFF300809C7500883CE4377ECD
:100CE000FFFF0F000000F0BF2DE9F04FD64B9942F7
:100CF00089B00E460F46824613DCD44B21F00044E7
:100D00009C4218DD0022D24B1BF0B2FB002879D0A8
:100D1000002200230020CF491BF06CFA09B0BDE887
:100D2000F08FCD4B99422FDD524633461AF086FFA5
:100D300009B0BDE8F08FC94B9C4270DDC84B1F4421
:100D40009F427ED8504631460022C64B1AF076FFAD
:100D50004FEA215BABF2FF3BBBF1000F04460D46AF
:100D60000F4640F3E081524633461AF065FF0246D3
:100D70000B460020BB491AF05FFF22462B461BF0B2
:100D800039FACDE900010BE0B74B9F42DADD0022D2
:100D90000023CDE900234FEA275B5446ABF2FF3B2B
:100DA000B24BC7F313079F4247F07F5500F3E7802C
:100DB00045F44015204629460022AA4B1AF03CFF74
:100DC000002204460D46AA4B1BF0EAF822462B46A9
:100DD0001BF0E6F8A246CDE902012E468046894680
:100DE000002F3AD100220023204629461BF040FB69
:100DF000002800F0CE80BBF1000F40F0768100208B
:100E0000014695E752463346504631461AF014FFE4
:100E100002460B461BF0EEF909B0BDE8F08F002248
:100E2000944B1AF00BFF002200231BF049FB002813
:100E300000F0CC80904B9C4200F3C8805046314675
:100E400076E700228A4B1BF0ABF8524633461BF084
:100E5000A7F84FF0000B8046894600224FF08043F0
:100E6000504631461AF0EAFE02460B4650463146DD
:100E70001BF0C0F902460B46CDE902231BF090F8A7
:100E80005DA3D3E9002304460D461BF089F85CA35B
:100E9000D3E900231AF0D2FE22462B461BF080F83D
:100EA00059A3D3E900231AF0C9FE22462B461BF0B2
:100EB00077F857A3D3E900231AF0C0FE22462B4649
:100EC0001BF06EF854A3D3E900231AF0B7FE2246B4
:100ED0002B461BF065F852A3D3E900231AF0AEFEAF
:100EE00022462B461BF05CF84FA3D3E900231AF0EF
:100EF000A5FE22462B461BF053F804460D46BBF1D7
:100F0000000F00F0BB8058461AF0E4FF48A3D3E975
:100F10000023CDE904011BF043F84246CDE9060168
:100F20004B46204629461AF089FEDDE902231BF0D4
:100F300037F841A3D3E9002304460D46DDE9040157
:100F40001BF02EF8DDE900231AF078FE02460B466E
:100F5000204629461AF072FE02460B464046494694
:100F60001AF06AFE524633461AF066FE02460B46F7
:100F7000DDE906011AF060FE09B0BDE8F08F45F426
:100F80000015C7F5801720462946BF100BF1010B4D
:100F900012E72BA3D3E90023204629461BF000F8D3
:100FA00002460B4600202F491AF046FEDDE90223D7
:100FB0001AF0F6FF06460F46BBF1000F6DD1024650
:100FC0000B46204629461AF037FEB1E65246334614
:100FD000504631461AF0E4FF0022254B1AF0E0FF9C
:100FE00002460B46504631461AF026FE09B0BDE8CF
:100FF000F08F00BFAFF3008044523EDF12F1C23FDA
:101000009FC678D0099AC33FDE03CB966446C73F9C
:10101000AF788E1DC571CC3F599322942449D23F9D
:1010200004FA97999999D93F935555555555E53FE8
:101030000000E0FE422EE63F763C7935EF39EA3D8E
:10104000555555555555E53F7982DA3FFFFFEF3F3E
:101050000000F0BF000050C3FFFFEF7FFFFF1F3E07
:101060003C412D400000F03FFFFF3F439DA00600A4
:101070000000E03F00005043FFFF8F3C42464B46DC
:101080001AF0DCFDDDE902231AF08AFF02460B4666
:10109000404649461AF0D0FDA2E758461AF01AFF1A
:1010A00027A3D3E9002382468B461AF079FF26A3B3
:1010B000D3E9002380468946504659461AF070FF0E
:1010C000DDE900231AF0BAFD02460B4630463946E8
:1010D0001AF0B2FD22462B461AF0AEFD02460B4630
:1010E000404649461AF0A8FD22E658461AF0F2FE9C
:1010F00015A3D3E9002306460F461AF051FFDDE998
:1011000000231AF09BFD0EA3D3E9002304460D46ED
:10111000304639461AF044FF02460B46204629461F
:101120001AF08CFD04E60022094B1AF085FD0246F8
:101130000B46504631461AF07FFD1EE6AFF30080A5
:101140000000E0FE422EE63F763C7935EF39EA3D7D
:101150000000F03F0000000008B51CF015F804A3E3
:10116000D3E900231BF046F808BD00BFAFF30080B1
:10117000EF39FAFE422EE63F2DE9F043DFF8B48066
:101180008BB004460D4600F06BFF98F90030013338
:1011900006460F462BD022462B46204629461BF0FA
:1011A00099F9814618BB204629461BF073FC1CA305
:1011B000D3E900231BF084F9C8B11B4A98F9003029
:1011C000CDF820900321CDE90445CDE902458DE815
:1011D00006008BB9154B4FF06042CDE906236846F7
:1011E0001DF0BAFB70B1089B9BB9DDE9066730467C
:1011F00039460BB0BDE8F0830D490020022BCDE944
:101200000601ECD11DF0F8FC22230360089B002BA3
:10121000EBD01DF0F1FC089B0360E6E7AFF3008024
:101220007DF8B98FCE338640F4160308FFFFEF47F1
:101230000000F07F9A0300202DE9F043DFF8E480FE
:101240008BB004460D4600F0BBFF98F90030013327
:1012500006460F4633D0204629461DF077FB70B373
:1012600029A3D3E90023204629461BF029F981460A
:1012700050BB27A3D3E90023204629461BF002F9DF
:10128000E8B198F90030244ACDF8209004260020D7
:101290000021022BCDE90445CDE9024500960192DB
:1012A000CDE9060129D068461DF056FB28B3089BFE
:1012B0001BB11DF0A1FC089B0360DDE90667304609
:1012C00039460BB0BDE8F083134A98F9003001921B
:1012D00003210022CDE90445CDE9024500910892A1
:1012E0002BB90E4B4FF06042CDE90623DBE70C49EA
:1012F0000020022BCDE90601D5D11DF07DFC222373
:101300000360D4E7AFF30080EF39FAFE422E864047
:1013100051302DD5104987C0FC160308FFFFEF4759
:101320000000F07F9A0300202DE9F84FC44E21F011
:101330000043B3420C4605460DDD03F1404303F57F
:101340008013034340F0B980002940F3408100201E
:101350000021BDE8F88FBB4EB34240F3A6800029C0
:10136000C0F2788102460B460020B7491AF064FCAF
:101370000022B64B1AF014FE04460D461CF0A8FBE2
:1013800095A3D3E9002389468046294620461AF0D2
:1013900007FE93A3D3E900231AF050FC22462B4604
:1013A0001AF0FEFD90A3D3E900231AF045FC224673
:1013B0002B461AF0F5FD8EA3D3E900231AF03EFC6C
:1013C00022462B461AF0ECFD8BA3D3E900231AF03A
:1013D00033FC22462B461AF0E3FD89A3D3E9002310
:1013E0001AF02CFC22462B461AF0DAFD86A3D3E92C
:1013F000002382468B46204629461AF0D1FD84A35D
:10140000D3E900231AF018FC22462B461AF0C8FD37
:1014100081A3D3E900231AF011FC22462B461AF0CF
:10142000BFFD7FA3D3E900231AF006FC22462B461A
:101430001AF0B6FD0022844B1AF000FC02460B465F
:10144000504659461AF0D6FE42464B461AF0A8FDC1
:10145000002682468B4632464B46304649461AF0B5
:101460009FFD02460B46204629461AF0E5FB324610
:1014700004460D464B46404649461AF0DFFB0246FD
:101480000B46204629461AF0B5FE02460B4650464A
:1014900059461AF0D3FB32464B461AF0CFFB0246B0
:1014A0000B461AF0CBFBBDE8F88F694A93420EDC7D
:1014B0005DA1D1E90001BDE8F88F02460B461AF0A4
:1014C000BBFB02460B461AF095FEBDE8F88F0246BC
:1014D0000B461AF065FD40A3D3E9002306460F46EC
:1014E0001AF05EFD3EA3D3E900231AF0A7FB3246B3
:1014F0003B461AF055FD3CA3D3E900231AF09CFBB0
:1015000032463B461AF04CFD39A3D3E900231AF0CA
:1015100095FB32463B461AF043FD37A3D3E900233F
:101520001AF08AFB32463B461AF03AFD34A3D3E95F
:1015300000231AF083FB32463B461AF031FD32A3FA
:10154000D3E9002380468946304639461AF028FD03
:101550002FA3D3E900231AF06FFB32463B461AF063
:101560001FFD2DA3D3E900231AF068FB32463B464A
:101570001AF016FD2AA3D3E900231AF05DFB3246C8
:101580003B461AF00DFD00222F4B1AF057FB024686
:101590000B46404649461AF02DFE2A4623461AF0CD
:1015A000FFFC02460B4622A1D1E900011AF044FBE0
:1015B00002460B46284621461AF03EFB02460B46E1
:1015C00019A1D1E900011AF037FBBDE8F88F1AA183
:1015D000D1E90001BDE8F88F09F7FD0DE13D023FBB
:1015E00088B20175E0EF493F3B8F68B52882A43F80
:1015F0005544880E55C1C93F7D6FEB0312D6D43FC9
:10160000555555555555C53F82922EB1C5B8B33F76
:1016100059018D1B6C06E63FC88A599CE52A00409B
:101620004B2D8A1C273A0340182D4454FB21F93FC7
:10163000075C143326A6913C182D4454FB21094025
:10164000FFFFEF3FFFFFDF3F0000F03F0000E03F04
:101650000000603C00225C4B1AF0F0FA00225B4B69
:101660001AF09EFC40A3D3E9002304460D461AF06D
:1016700097FC3FA3D3E900231AF0E0FA22462B4659
:101680001AF08EFC3CA3D3E900231AF0D5FA2246C7
:101690002B461AF085FC3AA3D3E900231AF0CEFAC0
:1016A00022462B461AF07CFC37A3D3E900231AF01C
:1016B000C3FA22462B461AF073FC35A3D3E9002364
:1016C0001AF0BCFA22462B461AF06AFC804689467C
:1016D000204629461CF0FCF92FA3D3E90023064637
:1016E0000F46204629461AF05BFC2DA3D3E90023C0
:1016F0001AF0A2FA22462B461AF052FC2AA3D3E98A
:1017000000231AF09BFA22462B461AF049FC28A324
:10171000D3E900231AF090FA22462B461AF040FC37
:101720000022294B1AF08AFA02460B4640464946E7
:101730001AF060FD32463B461AF032FC1EA3D3E994
:1017400000231AF079FA32463B461AF077FA02463D
:101750000B461AF073FA02460B4619A1D1E90001B3
:101760001AF06AFABDE8F88F09F7FD0DE13D023F76
:1017700088B20175E0EF493F3B8F68B52882A43FEE
:101780005544880E55C1C93F7D6FEB0312D6D43F37
:10179000555555555555C53F82922EB1C5B8B33FE5
:1017A00059018D1B6C06E63FC88A599CE52A00400A
:1017B0004B2D8A1C273A0340075C143326A6913C24
:1017C000182D4454FB2109400000F03F0000E03F89
:1017D000434A91422DE9F8430C46054639DD414A1A
:1017E000914209DD02F17952914240DD02460B46F9
:1017F0001AF024FABDE8F88301F1404202F58012A4
:10180000024330D0B1F1804F3ADC0022364B1AF05F
:1018100013FA02460B4604460D461AF00FFA22460A
:1018200006460F462B46204629461AF0B9FB0246CB
:101830000B46304639461AF001FA1CF049F90B46BE
:101840000246294620461AF0F9F9BDE8F843FFF7A9
:101850004BBA02460B461AF0EFF902460B461AF055
:10186000C9FCBDE8F88300200021BDE8F88300F042
:101870001FFE19A3D3E900231AF0E0F9BDE8F883AD
:1018800002460B461AF08CFB0022174B1AF0D4F9D3
:101890001CF01EF92A4680468946234628462146E2
:1018A0001AF0CCF9424606460F464B4628462146DA
:1018B0001AF0C4F902460B4600200B491AF09AFCB4
:1018C0000B460246394630461AF0B6F9BDE8F843F1
:1018D00000F0EEBDAFF30080EF39FAFE422EE63F96
:1018E000FFFFEF3FFFFFAF410000F03F00000000AF
:1018F0002DE9F047C44B21F00048984584B00D46CF
:10190000044616DD08F1404808F58018034658EAF9
:10191000030326D002460B461AF08EF90B46024608
:101920001AF068FC04460B462046194604B0BDE890
:10193000F087B64B98458A462EDCB8F1795F80F285
:101940006D8195A3D3E900231AF078F90022B04BFA
:101950001AF0B6FD00B32B462046194604B0BDE888
:10196000F0878FA3D3E900231AF01AFB8EA3D3E9E3
:10197000002306460F46204629461AF011FB024670
:101980000B46304639461AF059F904460B462046B4
:10199000194604B0BDE8F087204629461BF07AF8C6
:1019A00002460B4600209A491AF046F90022994B4C
:1019B0001AF0F6FA7EA3D3E9002304460D461AF086
:1019C000EFFA7DA3D3E900231AF038F922462B461B
:1019D0001AF0E6FA7AA3D3E900231AF02DF9224689
:1019E0002B461AF0DDFA78A3D3E900231AF026F982
:1019F00022462B461AF0D4FA75A3D3E900231AF035
:101A00001BF922462B461AF0CBFA73A3D3E9002325
:101A10001AF014F922462B461AF0C2FA70A3D3E941
:101A20000023CDE90001204629461AF0B9FA6EA339
:101A3000D3E900231AF000F922462B461AF0B0FA37
:101A40006BA3D3E900231AF0F9F822462B461AF0CB
:101A5000A7FA69A3D3E900231AF0EEF822462B4631
:101A60001AF09EFA6A4B00221AF0E8F8CDE902015A
:101A7000204629461CF02CF8674B984506460F4631
:101A800067DCDDE90223DDE900011AF0B3FB324631
:101A9000CDE900013B46304639461AF0CFF8024600
:101AA0000B46DDE900011AF07BFA4FF00008CDE9A2
:101AB000000142463B46404639461AF071FA02465A
:101AC0000B46204629461AF0B7F8424604460D4612
:101AD0003B46304639461AF0B1F802460B462046DE
:101AE00029461AF087FB02460B461AF0A7F8024671
:101AF0000B462DA1D1E900011AF09EF802460B46D3
:101B0000DDE900011AF098F8424604460D463B46CE
:101B1000404639461AF092F802460B4638A1D1E900
:101B200000011AF089F802460B46204629461AF0B1
:101B300083F80B46024632A1D1E900011AF07CF885
:101B400004460B46BAF1000F3FF7EEAE03F1004337
:101B5000EAE6DDE90223DDE900011AF04BFB32463B
:101B60003B461AF01DFA32463B461AF067F8024629
:101B70000B461AF063F80CA3D3E900231AF05CF8C3
:101B80000B46024606A1D1E900011AF055F80446B9
:101B90000B46D7E7AFF300809C7500883CE4377EA6
:101BA000182D4454FB21F93F075C143326A6913CC1
:101BB00009F7FD0DE13D023F88B20175E0EF493FB5
:101BC0003B8F68B52882A43F5544880E55C1C93F54
:101BD0007D6FEB0312D6D43F555555555555C53F2E
:101BE00082922EB1C5B8B33F59018D1B6C06E63FFA
:101BF000C88A599CE52A00404B2D8A1C273A03408D
:101C0000182D4454FB21E93FFFFFEF3FFFFFDF3F6B
:101C10000000F03F0000E03F3233EF3F02460B464A
:101C20001AF0BEF938A3D3E9002306460F461AF08E
:101C3000B7F937A3D3E900231AF000F832463B4640
:101C40001AF0AEF934A3D3E9002319F0F5FF3246B8
:101C50003B461AF0A5F932A3D3E9002319F0EEFFB1
:101C600032463B461AF09CF92FA3D3E9002319F022
:101C7000E3FF32463B461AF093F92DA3D3E9002344
:101C800019F0DCFF32463B461AF08AF92AA3D3E961
:101C9000002380468946304639461AF081F928A348
:101CA000D3E9002319F0C8FF32463B461AF078F911
:101CB00025A3D3E9002319F0C1FF32463B461AF0B1
:101CC0006FF923A3D3E9002319F0B6FF32463B4650
:101CD0001AF066F90022204B19F0B0FF02460B46BD
:101CE000404649461AF086FA22462B461AF058F921
:101CF00022462B4619F0A2FF04460B462046194601
:101D000004B0BDE8F08700BF09F7FD0DE13D023FDB
:101D100088B20175E0EF493F3B8F68B52882A43F48
:101D20005544880E55C1C93F7D6FEB0312D6D43F91
:101D3000555555555555C53F82922EB1C5B8B33F3F
:101D400059018D1B6C06E63FC88A599CE52A004064
:101D50004B2D8A1C273A03400000F03F0000000092
:101D60002DE9F84F5442144323F00049704E49EADC
:101D7000D474B44286460F4640D84442044321F00E
:101D8000004B4BEAD474B4428A4637D803F140443E
:101D900004F5801414434AD09C1704F0020444EA6A
:101DA000D17450EA0B0131D052EA090137D0B14564
:101DB00052D0B34533D0ABEB09094FEA2959B9F1F9
:101DC0003C0F3BDC002B66DB704639461AF012FAFA
:101DD0001AF060FEFEF7C8FC012C58D0022C48D047
:101DE000002C5ED040A3D3E9002319F025FF40A3C7
:101DF000D3E9002319F020FFBDE8F88F10461946FB
:101E000072463B4619F01AFFBDE8F88F022C19D034
:101E1000032C10D138A1D1E90001BDE8F88FBAF147
:101E2000000F14DB36A1D1E90001BDE8F88FBDE851
:101E3000F84FFEF799BC3946BDE8F88F30A1D1E9DB
:101E40000001C9E72AA1D1E90001BDE8F88F2EA160
:101E5000D1E90001BDE8F88FCB4524D0022CF1D0A8
:101E6000032CD7D0012C4FF0000027D00021BDE873
:101E7000F88F1DA3D3E9002319F0DEFE02460B46BE
:101E80001BA1D1E9000119F0D7FEBDE8F88F01F1DF
:101E90000041BDE8F88F19F13C0F95DA00200021D0
:101EA0009AE7BDE8F88F022C16D0032C0FD0012C36
:101EB00008D017A1D1E90001BDE8F88F4FF000412B
:101EC000BDE8F88F14A1D1E90001BDE8F88F14A195
:101ED000D1E90001BDE8F88F13A1D1E90001BDE807
:101EE000F88F00BFAFF30080075C143326A6A13C37
:101EF000182D4454FB210940182D4454FB2109C0DE
:101F0000182D4454FB21F93F182D4454FB21F9BFEF
:101F1000182D4454FB21E93F182D4454FB21E9BFFF
:101F2000D221337F7CD902C0D221337F7CD90240B9
:101F30000000F07F0000000043422DE9F04703431A
:101F400021F00048424A48EAD373934206460F46BE
:101F500016D890454BD03F4B98458A461EDC3AA395
:101F6000D3E90023044619F069FE002200231AF089
:101F7000A7FA002845D03B4620461946BDE8F08721
:101F800002460B4619F058FE0B4602461AF032F98B
:101F900004460B4620461946BDE8F0872E4B98456F
:101FA000044645462FDD02464346414619F046FEAB
:101FB000224606460F4643460020254919F03CFEBE
:101FC00002460B46304639461AF014F9FEF78CFEED
:101FD000224B002219F0E4FFBAF1000F04460B4631
:101FE000D8DA01F1004320461946BDE8F087002207
:101FF00000231AF0FFF804460B4620461946BDE8B8
:10200000F0873446454622462B462046294619F09D
:1020100015FE22462B4606460F4619F0C1FF224602
:10202000804689462B460020094919F005FE0246E4
:102030000B46404649461AF0DDF832463B4619F059
:10204000FDFDC3E7AFF300809C7500883CE4377E5C
:102050000000F03FFFFF2F3EFFFFDF3F0000E03FAB
:102060004F4A2DE9F84321F0004494420B460546BF
:102070001BDC4C4A944222DD4B4A944263DD4B4ABE
:1020800094427BDD4A4A944246DD0132944240D07C
:1020900041A3D3E900231046194619F081FF0646F3
:1020A0000F4630463946BDE8F88302460B4619F024
:1020B00077FF06460F4630463946BDE8F8831AF0EA
:1020C000E9FC02F0A9FC00223A4B8046894619F04F
:1020D000B5FDB4F1725F06460F46ECDB42464B4657
:1020E0004046494619F05CFF32463B4604460D46E1
:1020F0003046394619F0A2FD02460B4620462946D5
:102100001AF078F800222B4B19F098FD06460F467E
:10211000D1E7294A9042BBD8284619461AF0BAFCA2
:102120000022264B19F03CFF00F04AF8002204463A
:102130000D46224B19F034FF22462B4619F030FF92
:1021400006460F46B7E71AF0A5FC00F039F8002262
:102150001A4B06460F4619F023FF32463B4604460B
:102160000D46002015491AF045F802460B46204658
:10217000294619F063FD06460F469CE71AF08AFCD3
:1021800000F01EF800220D4B19F00AFF06460F461C
:1021900091E700BFAFF300809C7500883CE4377E78
:1021A000FFFFEF7F422ED63FFFFF3540412E864096
:1021B000CD3386400000F03F7DF8B98F0000E03F4E
:1021C0002DE9F04FB04F21F00042BA4283B00C46E7
:1021D0004FEAD17605460DD9AC4FBA4225D9C1F3A5
:1021E0001303034340F0EF800EB10020014603B01B
:1021F000BDE8F08FA64B9A4200F2CC80A54B9A42E4
:1022000000F2DE808AA3D3E9002319F017FD002233
:10221000A14B1AF055F9002800F005812846214607
:1022200000229D4B19F00AFDE1E783A3D3E90023C7
:102230001AF046F9002840F0CB802846214680A3BA
:10224000D3E900231AF01EF90028CED1934B28467B
:1022500003EBC60621467CA3D3E9002319F0A0FEB8
:10226000D6E9002319F0EAFC1AF04AF9804619F081
:1022700031FE77A3D3E9002306460F4619F090FEFE
:1022800002460B462846214619F0D6FC72A3D3E934
:102290000023CDE900013046394619F081FE82461F
:1022A0008B4652465B46DDE9000119F0C5FC054648
:1022B0000C462A4623462846214619F071FE68A39B
:1022C000D3E9002306460F4619F06AFE66A3D3E958
:1022D000002319F0B1FC32463B4619F061FE64A3BD
:1022E000D3E9002319F0AAFC32463B4619F058FE08
:1022F00061A3D3E9002319F09FFC32463B4619F055
:102300004FFE5FA3D3E9002319F098FC32463B4609
:1023100019F046FE02460B462846214619F08CFC71
:1023200006460F462846214632463B46B8F1000F86
:1023300056D019F035FE324604460D463B46002085
:102340004FF0804119F078FC02460B4620462946A2
:1023500019F050FF02460B465046594619F06CFCE6
:10236000DDE9002319F068FC0B4602464A490020CB
:1023700019F062FC6FF47F7398454FDA08F57A78AC
:1023800001EB085100224FF0B87319F009FE03B0B9
:10239000BDE8F08F424B9A423FF658AF414BF400F4
:1023A0002344D3E9002319F047FC3F4BC6F1010851
:1023B0002344CDE90001D3E900ABA8EB060870E7A0
:1023C0004FF0000875E702460B4619F037FC0EE7A0
:1023D00017A3D3E900231046194619F0E1FD06E7DB
:1023E00019F0DEFD0022804689464FF080433046DA
:1023F000394619F021FC02460B464046494619F081
:10240000F9FE2A46234619F017FC02460B46002027
:10241000214919F011FC03B0BDE8F08F01EB085120
:1024200003B0BDE8F08F804643E700BFAFF3008004
:102430009C7500883CE4377EEF39FAFE422E8640D8
:1024400051302DD5104987C0FE822B654715F73FC7
:102450000000E0FE422EE63F763C7935EF39EA3D5A
:10246000D0A4BE726937663EF16BD2C541BDBB3E9A
:102470002CDE25AF6A56113F93BDBE166CC1663F78
:102480003E5555555555C53F412E8640FFFFEF7FC0
:10249000422ED63FFFFF2F3E0000F03F48FC0208CF
:1024A000B1A2F03F58FC020868FC020800000000DE
:1024B0002DE9F04FB1F5801F85B006460F460B465B
:1024C0005ADA024621F00044224300F0F880002945
:1024D000C0F27A810022D64B19F062FDD54A0B4634
:1024E000934206460F466FF0350C4ADCC3F31305E2
:1024F00005F5152E0EF6647E0EF4801E8EF07F52CA
:1025000082F440121C1542EA0507A4F2FF34644429
:102510000022C94B3046394604EB1E5419F08CFB9F
:10252000AB1CC3F31303022B82468B464FF0000211
:1025300030DC002319F09CFF002800F0C980002C3B
:1025400000F04B81204619F0C5FCA5A3D3E9002378
:1025500006460F4619F024FDA3A3D3E90023044641
:102560000D463046394619F01BFD02460B46204603
:10257000294619F063FB0AE0AE4A93424FF0000C83
:10258000B4DD32463B463046394619F057FB05B0BC
:10259000BDE8F08F4FF0804319F050FB02460B4628
:1025A0005046594619F026FE064620460F4619F0B9
:1025B00091FC3246CDE900013B4630463946CDE933
:1025C000026719F0EDFC02460B468046894619F079
:1025D000E7FC87A3D3E9002306460F4619F0E0FC89
:1025E00085A3D3E9002319F029FB32463B4619F0B5
:1025F000D7FC83A3D3E9002319F020FB32463B46E6
:1026000019F0CEFC80A3D3E9002319F017FB424652
:102610004B4619F0C5FC7EA3D3E9002380468946CA
:102620003046394619F0BCFC7BA3D3E9002319F0EE
:1026300005FB32463B4619F0B3FC79A3D3E90023EE
:1026400019F0FCFA32463B4619F0AAFC0B4602464A
:102650004946404619F0F2FAA5F5C223C5F5D7253B
:10266000A3F27A4351351D43002D8046894656DD3D
:102670000022724B5046594619F092FC52465B4676
:1026800019F08EFC06460F46002C68D132463B46B8
:102690004046494619F0D2FADDE9022319F080FCE0
:1026A00002460B463046394619F0C6FA02460B463A
:1026B0005046594619F0C0FA05B0BDE8F08F002227
:1026C000002300205E4919F095FD05B0BDE8F08FAC
:1026D00055A3D3E900235046594619F061FC024640
:1026E0000B460020554919F0A7FA524606460F46F8
:1026F0005B465046594619F053FC02460B4630469D
:10270000394619F04DFC06460F46002C40F09A80E1
:1027100002460B465046594619F08EFA37E7002C10
:1027200000F0A4802EA3D3E90023DDE9000119F015
:1027300037FC42464B4604460D465046594619F072
:102740007BFADDE9022319F02BFC27A3D3E9002350
:1027500006460F46DDE9000119F022FC21E020A326
:10276000D3E90023DDE9000119F01AFC32463B46AB
:1027700004460D464046494619F060FADDE9022359
:1027800019F00EFC18A3D3E9002380468946DDE941
:10279000000119F005FC02460B464046494619F077
:1027A0004DFA02460B463046394619F045FA524674
:1027B0005B4619F041FA02460B462046294619F0BD
:1027C0003BFA05B0BDE8F08F02460B4619F034FA2B
:1027D0000022002319F00EFDD9E600200021D6E6E4
:1027E0000000E0FE422EE63F763C7935EF39EA3DC7
:1027F00044523EDF12F1C23FDE03CB966446C73F30
:10280000599322942449D23F935555555555E53F48
:102810009FC678D0099AC33FAF788E1DC571CC3F53
:1028200004FA97999999D93F555555555555D53F1E
:1028300000005043FFFFEF7F0000F03F0000E03F4B
:10284000000050C3204619F045FB0FA3D3E9002335
:102850008046894619F0A4FB0DA3D3E90023044662
:102860000D464046494619F09BFB9AE702460B4647
:102870005046594619F0E0F9DDE9022319F090FBC2
:1028800014E700BFAFF300800000E0FE422EE63FF9
:10289000763C7935EF39EA3DB1F5801F2DE9F843F3
:1028A00004460D460B461ADA024621F00046324332
:1028B00059D000295FDB00223B4B19F071FB3B4AEA
:1028C0000B4693420D4604466FF035010CDD22465F
:1028D0002B462046294619F0B1F9BDE8F883334A62
:1028E00093424FF00001F2DC1815A0F2FF300844CB
:1028F0004FEAD0794844C3F3130819F0EBFAC9F54D
:102900007F73033348EA035506460F46204629469F
:10291000FFF7CEFD1EA3D3E900238046894630464B
:10292000394619F03DFB1CA3D3E9002304460D46AC
:102930004046494619F034FB02460B4620462946DC
:1029400019F07CF916A3D3E9002304460D4630465E
:10295000394619F025FB02460B462046294619F058
:102960006DF9BDE8F883002200230020104919F01A
:1029700041FCBDE8F88302460B4619F05DF90022E0
:10298000002319F037FCBDE8F88300BFAFF30080E7
:10299000362BF111F3FE593D0EE526157BCBDB3FBF
:1029A00000609F501344D33F00005043FFFFEF7F70
:1029B000000050C3000000002DE9F04F23F0004755
:1029C00057EA020493B037D0674C21F00046A64284
:1029D00083460D4629DC9A46964625D0A74224DC3C
:1029E000614CA74279D0002D89468046CDE900236D
:1029F00077DB0024BEF1000F2CD15B4B9F4200F02F
:102A00008B805A4B9F4261D0BAF1804F00F0BA835D
:102A1000574B9A451ED1002D1CDB4046494613B04A
:102A2000BDE8F04F1BF054B858B106F1404606F52A
:102A3000801656EA0B0306D14C49002013B0BDE8BE
:102A4000F08FB742CCDD4B4813B0BDE8F04F1BF020
:102A500085BF0024404649461AF01CF8BBF1000F20
:102A600019D126B1414B25F040429A4213D1BAF117
:102A7000000FC0F2BC83002DE0DA06F1404606F5F7
:102A8000801656EA040300F08F84012CD6D101F1A0
:102A900000431946D2E7ED0F013D54EA05034ED03D
:102AA000354B9F426EDD03F104739F4240F3E88390
:102AB000324B9E424EDDBAF1000F4EDD28A3D3E922
:102AC00000231046194619F06BFAB7E7BAF1000F68
:102AD000C0F23C8440464946B0E7BEF1000F82D0C8
:102AE000A3E7274B9F4228DCA3F154739F4280DD6C
:102AF0003B15A3F2FF33142B40F33E84C3F13403A0
:102B00002EFA03F202FA03F39E457FF472AF02F04D
:102B10000102C2F102046DE706F1404303F58013A0
:102B200053EA0B0388D0154B9E4240F33283BAF12F
:102B3000000F12DBDDE9000180E702245AE742467C
:102B40004B464046494619F077F802460B4619F0C5
:102B500051FB73E7BAF1000FB0DB002000216DE7F5
:102B60009C7500883CE4377E0000F07F0000F03F59
:102B70000000E03FE40403080000E041FFFFEF3FF6
:102B8000FFFF3F43B6F5801F4FF0000205DAD44B3C
:102B900019F006FA6FF034020E463315D14FC6F322
:102BA0001306A3F2FF33134446F07F5ABE421A467F
:102BB0000D934AF4401A40F32183CB4B9E4240F3DD
:102BC000FD83134601330D93C84B0022CDE9062344
:102BD00000270026CDE90867CDE90E67AAF5801A1F
:102BE0000027024653465146CDE90A23DDE9062374
:102BF00019F022F8DDE9062380468946DDE90A015D
:102C000019F01CF802460B460020B84919F0F2FAF8
:102C10000A460146CDE9101213464946024640468F
:102C200019F0BEF94FEA6A0343F000538C4683461D
:102C300003F50023CDE904BCDA468B46D9190023FD
:102C4000CDE902AB0293DDE902AB002006460F4658
:102C500002460B465046594619F0A2F902460B4669
:102C60004046494618F0E8FFDDE9062380468946DC
:102C70003046394618F0E0FF02460B46DDE90A010E
:102C800018F0DAFF52465B4619F08AF902460B4605
:102C90004046494618F0D0FFDDE9102319F080F9CD
:102CA000DDE90467CDE9060132463B463046394648
:102CB00019F076F978A3D3E9002306460F4619F0F8
:102CC0006FF977A3D3E9002318F0B8FF32463B46EB
:102CD00019F066F974A3D3E9002318F0AFFF324668
:102CE0003B4619F05DF972A3D3E9002318F0A6FF63
:102CF00032463B4619F054F96FA3D3E9002318F08C
:102D00009DFF32463B4619F04BF96DA3D3E90023F2
:102D100018F094FF3246804689463B463046394695
:102D200019F03EF902460B464046494619F038F97B
:102D3000524606460F465B46DDE9040118F07EFF69
:102D4000DDE9062319F02CF932463B4618F076FFF0
:102D50005246804689465B465046594619F020F94E
:102D60000022634BCDE90A0118F068FF42464B464A
:102D700018F064FF02980F46064632463B4650461E
:102D8000594619F00DF9002282468B46584B3046C1
:102D9000394618F051FFDDE90A2318F04DFF0246CD
:102DA0000B464046494618F047FFDDE9042319F079
:102DB000F7F83246804689463B46DDE9060119F0C0
:102DC000EFF802460B464046494618F037FF80466A
:102DD000894602460B4650465946CDE904AB18F0E9
:102DE0002DFFDDE902AB38A3D3E9002350460F469F
:102DF00019F0D6F8DDE90423CDE902013946504641
:102E000018F01AFF02460B464046494618F014FFD8
:102E10002FA3D3E9002319F0C3F82FA3D3E900238C
:102E2000804689465046394619F0BAF802460B46A4
:102E30004046494618F002FFDDE90E2318F0FEFE79
:102E400080460D98894619F045F8424606460F46D9
:102E50004B46DDE9020118F0F1FEDDE9082318F028
:102E6000EDFE32463B4618F0E9FE32463B46504600
:102E70008B4618F0E1FEDDE9082318F0DDFEDDE900
:102E8000022318F0D9FE02460B464046494618F088
:102E9000D3FE80462EE000BFEF4E454A287ECA3F53
:102EA00065DBC9934A86CD3F01411DA96074D13FBE
:102EB0004D268F515555D53FFFAB6FDBB66DDB3FD0
:102EC000033333333333E33F000000E009C7EE3F01
:102ED000FD033ADC09C7EE3FF5015B14E02F3EBE6F
:102EE000000040438E98030079B60B000000F03FCD
:102EF000000008408946013C54EA0503DDE9000171
:102F000014BFD94CD94C0023CDE9043403460C46F8
:102F1000CDE9023400230293DDE9024522462B4627
:102F200018F08AFE52465B4619F03AF8DDE90023B4
:102F300006460F464046494619F032F802460B460F
:102F40003046394618F07AFE2246804689462B469E
:102F500050465946CDE9008919F022F80B46024641
:102F600006460F464046494618F068FEC04B994257
:102F700004460D468A4640F3168101F13F4303F5AE
:102F8000E003034340F0EA81A3A3D3E90023DDE992
:102F9000000118F053FE3246804689463B462046E3
:102FA000294618F049FE02460B464046494619F0AC
:102FB00087FA002840F0D281A8464FEA28534FF400
:102FC0008012A3F2FE3342FA03F35344C3F30A52CE
:102FD000A84DA2F2FF321541C3F3130423EA050101
:102FE0000020C2F1140B44F48014BAF1000F024621
:102FF0000B4644FA0BFB30463946B8BFCBF1000B09
:1030000018F01AFE02460B4606460F46DDE900019F
:1030100018F014FE4FEA0B5A0D46002480A3D3E9A2
:1030200000232046294618F0BBFF324680468946D9
:103030003B462046294618F0FFFD02460B46DDE9D7
:10304000000118F0F9FD78A3D3E9002318F0A8FFD8
:1030500077A3D3E9002306460F462046294618F0F9
:103060009FFF02460B463046394618F0E7FD0646FC
:103070000F4602460B464046494618F0DFFD4246E1
:103080004B4604460D4618F0D7FD02460B46304627
:10309000394618F0D1FD2246804689462B46204607
:1030A000294618F07DFF64A3D3E9002306460F46A6
:1030B00018F076FF62A3D3E9002318F0BDFD324675
:1030C0003B4618F06DFF60A3D3E9002318F0B6FD6E
:1030D00032463B4618F064FF5DA3D3E9002318F0A5
:1030E000ABFD32463B4618F05BFF5BA3D3E9002300
:1030F00018F0A4FD32463B4618F052FF02460B463C
:103100002046294618F098FD06460F4602460B4613
:103110002046294618F044FF0022CDE900014FF077
:1031200080433046394618F087FD02460B46DDE9FC
:10313000000119F05FF8424606460F464B4620460E
:10314000294618F02DFF42464B4618F077FD0246FF
:103150000B463046394618F06FFD22462B4618F0D4
:103160006BFD02460B4600203F4918F065FD8A447E
:10317000BAF5801FC0F233815146DDE9042318F00F
:103180000FFF5BE4424640464B46494618F008FFB5
:1031900054E4BAF1000FBFF6E0ACDDE900341846A4
:1031A00004F100414AE4344B21F00048984540F3D3
:1031B000F280324B0B4403430CD132463B4618F0AD
:1031C0003BFD02460B46DDE9000119F065F90028D8
:1031D0003FF4F3AEDDE9040121A3D3E9002318F0A5
:1031E000DFFE1FA3D3E9002318F0DAFE26E402462F
:1031F0000B4600201C4918F0FDFF3CE40022002390
:10320000CDE90823CDE90E23174B00220027CDE995
:103210000623E6E4AFF30080FE822B654715973C5A
:1032200000000000432EE63FEF39FAFE422EE63F53
:10323000396CA80C615C20BED0A4BE726937663EB2
:10324000F16BD2C541BDBB3E2CDE25AF6A56113FA6
:1032500093BDBE166CC1663F3E5555555555C53F8D
:1032600059F3F8C21F6EA5010000F03F0000F0BF47
:10327000FFFF8F40FFFF0F00FFCB904000346F3FF8
:103280006B4B9E427FF766AC6A4B9E423FF713AC96
:103290000022684B18F0D0FC57A3D3E90023064660
:1032A0000F4618F07DFE56A3D3E9002380468946D9
:1032B0003046394618F074FE002282468B465E4B3B
:1032C0003046394618F06CFE02460B464EA1D1E955
:1032D000000118F0B1FC32463B4618F061FE024690
:1032E0000B460020554918F0A7FC3246CDE90201F3
:1032F0003B463046394618F053FE02460B46DDE9A0
:10330000020118F04DFE42A3D3E9002318F048FE55
:1033100002460B465046594618F08EFC02460B46B4
:1033200006460F464046494618F088FC42464B4642
:10333000002082468B4618F07FFC02460B46304642
:10334000394618F079FC80468946D4E542464B461A
:103350000020384918F04EFFFFF770BBDDE904018B
:103360002DA3D3E9002318F01BFE2BA3D3E90023E0
:1033700018F016FEFFF762BBBEF1000F7FF469ABD9
:10338000C3F1140347FA03F202FA03F39F422AD06F
:103390007446FFF736BB294B98453FF70EAEDDE983
:1033A00002239246934638E602460B4618F044FC48
:1033B00002460B4618F01EFFFFF740BB18A3D3E9E7
:1033C0000023CDE9082318A3D3E90023CDE90E2378
:1033D0001B4B00224FF48027CDE9062301E45A4617
:1033E00001F05AFDC9E602F00102C2F10204FFF742
:1033F00008BB00BFAFF30080000000604715F73F37
:1034000044DF5DF80BAE543E555555555555D53FE7
:10341000FE822B654715F73F9C7500883CE4377E9C
:103420000000004003B8E23F06D0CF43EBFD4C3E26
:10343000FEFFEF3F0000F03F0000D03F0000E03F04
:103440000000F83F000000002DE9F04F9A4E21F0F7
:103450000047B74291B040F38E809246974A974218
:103460000C4626DC00298AA3D3E9002340F3B4816B
:1034700018F0E2FB924B9F4204460D4600F090800C
:1034800085A3D3E9002318F0D7FB02460B46CAE90F
:1034900000232046294618F0CFFB7FA3D3E9002361
:1034A00018F0CAFB0125CAE90201284611B0BDE89F
:1034B000F08F844A974240F39080834A974265DCBC
:1034C0003D15A5F21645A7EB055319461F460646BE
:1034D00019F016F818F0FEFC8046894602460B46A5
:1034E00030463946CDE90A8918F0A6FB0022774B11
:1034F00018F056FD8946804619F002F818F0EAFCEB
:1035000002460B4606460F4640464946CDE90C6743
:1035100018F092FB00226D4B18F042FD00220023B0
:10352000CDE90E0118F0A4FF002800F073810023FC
:1035300030463946002218F09BFF002814BF0123B3
:103540000223634A019202212A4600910AA85146A9
:1035500000F086FB002C054614DADAF80420DAF8CD
:103560000C3002F1004203F100434542CAF8042046
:10357000CAF80C3006E0C2E9000100250024C2E9C7
:1035800002450025284611B0BDE8F08F02460B46E3
:1035900018F052FB0025CAE90201CAE90001F1E76F
:1035A0003FA3D3E9002318F047FB3FA3D3E900234F
:1035B0000D46044618F040FB02460B46CAE90023BC
:1035C0002946204618F038FB37A3D3E9002318F02A
:1035D00033FB0125CAE90201D4E719F05BFA34A3F1
:1035E000D3E900238046894618F0DAFC0022394BE3
:1035F00018F024FB18F084FF054618F06BFC24A398
:10360000D3E90023CDE9040118F0CAFC02460B46B9
:103610004046494618F010FB1FA3D3E9002380461B
:103620008946DDE9040118F0BBFC1F2DCDE902013C
:1036300054DC294B6A1E53F822309F424ED002467A
:103640000B464046494618F0F7FA02460B46CAE9CF
:10365000002383460E465A4633464046494618F0F4
:10366000EBFADDE9022318F0E7FA002C02460B46DC
:10367000CAE9022386DA5B4606F1004601F1004101
:103680008AE84800CAF80C10CAF808006D4279E7C9
:1036900000004054FB21F93F3163621A61B4D03D10
:1036A0000000601A61B4D03D7370032E8A19A33BE9
:1036B00083C8C96D305FE43FFB21E93F7BD90240FD
:1036C000FB21F93FFB213941FFFFEF7F00007041F3
:1036D000B01703080000E03F30170308DDE90223BC
:1036E0004046494618F0A8FA3A15C1F30A53D31ACE
:1036F000102B83460E460992CAE90001ABDD58A3A0
:10370000D3E90023DDE9040118F04AFC06460F4620
:1037100002460B464046494618F08EFACDE90601AE
:1037200002460B464046494618F086FA32463B466A
:1037300018F082FA4CA3D3E9002306460F46DDE9D0
:10374000040118F02DFC32463B4618F075FADDE90D
:103750000689CDE9020102460B464046494618F06B
:103760006BFA0B46C1F30A570E460999CF1B024666
:10377000312F8346CAE900236CDD3DA3D3E9002342
:10378000DDE9040118F00CFC06460F4602460B4624
:1037900040464946CDE9068918F04EFA02460B46E6
:1037A00080468946DDE9060118F046FA32463B4676
:1037B00018F042FA30A3D3E9002306460F46DDE9AC
:1037C000040118F0EDFB32463B4618F035FA02468C
:1037D0000B46CDE9022334E718F030FA2A4B9F421A
:1037E00004460D4618D026A3D3E9002318F026FA84
:1037F00002460B46CAE900232946204618F01CFA67
:103800001FA3D3E9002318F019FA4FF0FF35CAE9D6
:103810000201B7E6032394E611A3D3E9002318F0CD
:103820000DFA11A3D3E900230D46044618F006FA59
:1038300002460B46CAE900232946204618F0FCF947
:1038400009A3D3E9002318F0F9F94FF0FF35CAE9CD
:10385000020197E6DDE90689FDE600BFAFF30080CF
:103860000000601A61B4D03D7370032E8A19A33B27
:103870000000002E8A19A33BC14920259A837B3979
:103880003163621A61B4D03DFB21F93F00000000B2
:10389000574A2DE9F84F21F0004890450E4607465B
:1038A0002BDC544B0029B4BF534D544D98454FF079
:1038B000000410DC524B98456EDC4BA3D3E9002387
:1038C00018F0BCF900224F4B18F0FAFDD8B1384679
:1038D0003146BDE8F88F4C4B984579DD4B4B984508
:1038E00043DD013398453DD0384631463EA3D3E908
:1038F000002318F055FBBDE8F88F02460B4618F080
:103900009DF9BDE8F88F3846314619F0C3F801F04B
:1039100083F806460F4632463B463046394618F095
:103920008DF9324682468B463B463046394618F082
:1039300037FB002280468946324B3046394618F024
:103940007DF902460B464046494618F053FC0246B4
:103950000B465046594618F06FF922462B4618F090
:103960001FFBCEE72A4B9842BED83846314619F0A5
:1039700091F80022214B18F013FBFEF721FC0646BC
:103980000F4602460B462046294618F009FB3246F0
:103990003B4618F005FBB4E719F07CF801F03CF861
:1039A0001C4B984506460F46B5DD0022154B18F016
:1039B00045F902460B463046394618F01BFC3246A4
:1039C0003B4618F03BF922462B4618F0E9FA98E7F7
:1039D00019F060F8FEF7F4FB02460B462046294634
:1039E00018F0DEFA8DE700BF3374AC3C1F7BAC7F70
:1039F000FFFFEF7FFFFF35400000E0BF0000E03F2A
:103A0000FFFF2F3E0000F03F412E8640CD33864021
:103A10007DF8B98FFFFFEF3F2DE9F04F21F0004611
:103A2000B6F1795F85B00C4692469B4605466BDA47
:103A300018F066FD002800F0E8802A462346284654
:103A4000214618F0ADFA74A3D3E9002380468946D5
:103A500018F0A6FA72A3D3E9002318F0EFF8424653
:103A60004B4618F09DFA70A3D3E9002318F0E4F850
:103A700042464B4618F094FA6DA3D3E9002318F0A0
:103A8000DDF842464B4618F08BFA6BA3D3E90023CE
:103A900018F0D2F842464B4618F082FA68A3D3E9F0
:103AA000002318F0CBF842464B4618F079FACDE9DE
:103AB00000010022644B4046494618F071FADDE9E6
:103AC000002306460F464046494618F069FA52461A
:103AD000804689465B462846214618F061FA024630
:103AE0000B464046494618F0A7F802460B463046BA
:103AF000394618F0A1F802460B460020534918F049
:103B00009BF805B0BDE8F08F02460B4618F048FA66
:103B100041A3D3E900238046894618F041FA40A327
:103B2000D3E9002318F08AF842464B4618F038FAD9
:103B30003DA3D3E9002318F07FF842464B4618F026
:103B40002FFA3BA3D3E9002318F078F842464B46FE
:103B500018F026FA38A3D3E9002318F06DF842468E
:103B60004B4618F01DFA36A3D3E9002318F066F887
:103B70004B46424618F014FA354B9E42CDE90001FF
:103B800097DD344B9E424FF0000238DCA6F500135F
:103B900000202E4916461F4618F04EF8CDE90201C6
:103BA0000022294B4046494618F0FAF932463B4676
:103BB00018F042F8DDE9002306460F464046494624
:103BC00018F0EEF95246804689465B462846214663
:103BD00018F0E6F902460B464046494618F02CF824
:103BE00002460B463046394618F026F802460B4688
:103BF000DDE9020118F020F805B0BDE8F08F164BA2
:103C0000164FCDE902230026CAE71049002005B06F
:103C1000BDE8F08FAFF30080D43888BEE9FAA8BDC4
:103C2000C4B1B4BD9EEE213EAD529C804F7E923E0B
:103C30009015CB19A001FA3E7751C1166CC1563FC1
:103C40004C5555555555A53F0000E03F0000F03F4D
:103C50003233D33F0000E93F0000E73F0000D23F8E
:103C60002DE9F04FADF5197D9C4CA29E9C4D54F86A
:103C7000264005942646D41E85FB0475E417C4EB44
:103C8000A50424EAE4741D460893631CA3EB830394
:103C9000013D02EBC30304932B4609940295651B77
:103CA000F418039006911AD42C4401340DF17808CD
:103CB00000260027DDF88C9208E059F8250018F05E
:103CC00009F90135A542E8E9020108D0002DF4DA2E
:103CD000013530463946A542E8E90201F6D1059B97
:103CE000002B2EDB089B4FEAC309039BA9F10808B0
:103CF000984420AB9944059B70AA02EBC30B0DF5C9
:103D0000DC7A029B002BC0F20F83039B4D46A3F18C
:103D100008040026002775E90223F4E9020118F0DF
:103D20003FF902460B463046394617F087FF4445B7
:103D300006460F46EFD1EAE90267DA4509F10809BC
:103D4000DFD10598089A009000F18043013B9B0069
:103D50000CAC191F234402F100520B93039B013A50
:103D600021440A9103EBC20B009A98A901EBC2030C
:103D7000002A53E9284513462BDD01EBC308A8F1BF
:103D8000A8080DF12C090DF5DC7A0022554B2046D0
:103D9000294618F005F918F0B3FB18F09BF800223B
:103DA000514B06460F4618F0FBF802460B462046DC
:103DB000294617F041FF18F0A3FB78E8022349F8E1
:103DC000040F3946304617F039FFD04504460D46FA
:103DD000DBD1DDF81090204629464A4601F05CF818
:103DE00000224FF07F5304460D4618F0D9F8FCF737
:103DF000EFFE00223D4B18F0D3F802460B4620465A
:103E0000294617F019FF0D46044618F079FB804645
:103E100018F060F80B4602462946204617F00CFFC2
:103E20004B46002B06460F4640F3F780009A0CA93C
:103E3000013AC9F1180351F8225045FA03F101FA89
:103E400003F30CA8EB1A40F82230C9F11705884497
:103E500043FA05F5002D63DD009B002B08F10108F6
:103E600040F381820C9C002C00F018830120002379
:103E70000CAAC4F1807442F82340009A824219DDF2
:103E80000CAA0CAC52F820106FF07F42511A44F883
:103E900020100099023399420CDD1046009A0CA9BB
:103EA00001EB830301EB82011A68821A43F8042BA9
:103EB0008B42F9D1049B002B1ADD049B012B4FF0A0
:103EC000010440F05882009B5A1E0CAB0CA953F819
:103ED0002230C3F3160341F8223058E2501C030885
:103EE000ABAAAA2A0000703E0000704100002040EA
:103EF000022D15D132463B460020974917F09CFE13
:103F000006460F46049A9449002000F0C5FF024679
:103F10000B463046394617F08FFE022506460F46FF
:103F2000002200233046394618F0A2FA002800F09B
:103F30005282009A059B501E83420FDC02F180439F
:103F4000013B0CAA0B9C02EB8303002253F80419DB
:103F5000A34242EA0102F9D1002A6FD1059B0CAAC3
:103F6000013B52F82330002B40F033820A9A0123A0
:103F700052F8041901330029FAD0009AD31802F13B
:103F8000010A9A4507933DDC009B0899099A0B4466
:103F900007990AEB0208994620AB08F1804803EB29
:103FA000C9098B18A39A08F1FF3802EB880870AA98
:103FB00002EBCA0AA39A02EB8303009358F8040F9A
:103FC00017F088FF029B002BE9E802011DDB039B31
:103FD0004D46A3F108040026002775E90223F4E901
:103FE000020117F0DDFF02460B463046394617F056
:103FF00025FE5C4506460F46EFD1009B9845EAE852
:104000000267DBD1079B0093AEE6009B00260027EA
:104010009845EAE80267D1D1F4E706D1009B0CAAE3
:10402000013B52F82350ED1514E700224B4B18F0DA
:104030003DFA002840F08281054671E70CA90295FF
:1040400051F820300499CDF81C80183902460090B0
:1040500004916BB900F18043013B0CA800EB830392
:1040600053F80409013A18390028F9D00092049154
:10407000049A3949002000F00FFF009B002B0446F2
:104080000D46C0F20382DA0070A901EB020B049224
:104090000CAA02EB8306DFF8C8900BF10807043680
:1040A0004FF0000856F8040D17F014FF22462B4677
:1040B00017F076FF4B4667E9020142462046294643
:1040C00017F06EFF0CAB9E4204460D46EAD10DF58B
:1040D000907ACDF80CA0DDF814A04FF00009BAF1E9
:1040E000000FC0F23D81DFF87C805D4618A1D1E968
:1040F000000100260027002403E04C4510DCF8E80E
:104100000201F5E8022317F04BFF02460B4630464A
:10411000394617F093FD0134A24506460F46ECDA06
:10412000039B03EBC903ABF1080BC3E900676EAB5C
:104130005B4509F10109D2D1A29BDDF80CA0032B4C
:1041400000F28B80DFE813F0D100900090001000A7
:1041500000000040FB21F93F0000F03F0000E03F7D
:104160000000703E90FC0208009B002B40F3A481ED
:10417000049B0AEB0308D8E90067D34658E9029A82
:1041800032463B464846514617F058FD04460D4618
:1041900002460B464846514617F04EFD32463B4616
:1041A00017F04CFDC8E9000168E90245C345264601
:1041B0002F46E3D1009B012BDA4640F37D81049B1F
:1041C0005B44D3E90067984699460DF5947B59E91D
:1041D00002343246184621463B46CDE9000117F02D
:1041E0002DFD04460D4602460B46DDE9000117F0A1
:1041F00023FD32463B4617F021FDC9E9000169E97C
:104200000245CB4526462F46E1D1002308F1080898
:104210001D464CAC1846294678E9022317F00EFDDE
:10422000444503460D46F5D1029A002A00F020814C
:10423000DAF80440DAF80C20069FDAF80010DAF811
:1042400008003B6105F1004504F1004402F1004221
:104250007D617C60FA603960B860079B03F00700FD
:104260000DF5197DBDE8F08F049C002608345444F8
:1042700033463046194674E9022317F0DFFC5445F3
:1042800006460B46F5D1029A30461946002A00F040
:10429000DA80069803F10044324644600660DAE9A9
:1042A000000117F0C9FC0B460099002902460EDDFB
:1042B000012410461946FAE9022317F0BFFC0B4609
:1042C00000990134A1420246F3DA029909B103F1DF
:1042D00000431946069B1046C3E90201079B03F001
:1042E00007000DF5197DBDE8F08F049C002208340D
:1042F000544413461046194674E9022317F09EFCF5
:10430000A24502460B46F5D1029909B103F10043DB
:104310001946069B1046C3E90001079B03F00700FE
:104320000DF5197DBDE8F08F00260027EAE9026748
:10433000DA4509F108097FF4E4AC02E5009B002BA3
:1043400008F10108C8BF02253FF78CAD32463B4655
:104350000020634917F070FC022506460F46DFE592
:1043600000260027DCE6049B002B26DD0024049BAE
:10437000012B3FF4A8AD022B09D1009B5A1E0CABB8
:104380000CA953F82230C3F3150341F82230022D53
:104390007FF4C6AD32463B460020514917F04CFC35
:1043A00006460F46002C3FF4BBADABE50099013348
:1043B000994278D1049B002BD9DC022D7FF4B0AD5B
:1043C00032463B460020464917F036FC06460F466B
:1043D000A6E50123D1E53946049F02957A4230468D
:1043E000CDF81C8000F058FD00223E4B04460D46DF
:1043F00018F05CF8002862D000223B4B204629468A
:1044000017F0CEFD18F07CF8064617F063FD002289
:10441000344B17F0C5FD02460B462046294617F0DF
:104420000BFC18F06DF800990B4601331A46009307
:104430003B46183304930B460CA941F8230013465E
:1044400041F8236014E6069B3246C3E900010B469F
:10445000DAE9000117F0F0FB0B460099002902464B
:104460003FF726AF1946069B1046C3E9020135E720
:1044700018462946DAE90023DAE90245069FC7E92A
:104480000401C7E90023C7E90245E6E6A29B032B26
:104490003FF6E3AEDFE803F0211C1C0E009B012B6E
:1044A00088DD0CAA012352F8044F002C3FF47EAFA4
:1044B000581CDDE40DF5907A00231D46B4E629462C
:1044C000204618F01DF8009A0CA941F82200CFE50B
:1044D000002633460DF5907AD5E60022134613E701
:1044E0000000F03F000070410000703E000000003E
:1044F0002DE9F04F21F00046B6F1795F85B00C460A
:1045000090469946054604DA17F0FAFF002800F0B5
:1045100085802A4623462846214617F041FD064657
:104520000F4602460B462846214617F039FD3EA3AA
:10453000D3E9002382468B463046394617F030FDDA
:104540003BA3D3E9002317F077FB32463B4617F035
:1045500027FD39A3D3E9002317F070FB32463B4611
:1045600017F01EFD36A3D3E9002317F065FB324692
:104570003B4617F015FD34A3D3E9002317F05EFB8B
:104580000E9BCDE900019BB30022334B40464946C8
:1045900017F006FDDDE90023CDE90201504659463A
:1045A00017F0FEFC02460B46DDE9020117F044FB62
:1045B00032463B4617F0F4FC42464B4617F03CFBB4
:1045C00023A3D3E9002306460F465046594617F069
:1045D000E7FC02460B463046394617F02FFB0246F1
:1045E0000B462846214617F027FB05B0BDE8F08FA3
:1045F00002460B463046394617F0D2FC14A3D3E9E5
:10460000002317F019FB52465B4617F0C9FC2A46F7
:10461000234617F013FB05B0BDE8F08F284621466E
:1046200005B0BDE8F08F00BF7CD5CF5A3AD9E53D43
:10463000EB9C2B8AE6E55A3E7DFEB157E31DC73E53
:10464000D561C119A0012A3FA6F810111111813FAF
:10465000495555555555C53F0000E03F0000000045
:104660002DE9F04FDA4C21F00046A64287B08A4689
:1046700089461746984683461ADC17F041FFA8BBC7
:104680005B461E43109B0133334300F0A981109B0E
:10469000012B00F0B9815A4653460020CD4917F04E
:1046A000A9FD04460D462046294607B0BDE8F08F17
:1046B000C94B9E421ADD0029C0F29F815A465346DB
:1046C000A5A1D1E9000117F0B7FA3A4643460446DE
:1046D0000D46A3A1D1E9000117F0AEFA22462B4600
:1046E00017F0ACFA002783468A46B8465A46534626
:1046F0005846514617F054FC03460C46CDE90034A9
:1047000002460B4617F04CFCDDE9002304460D463B
:104710005846514617F044FC93A3D3E90023CDE952
:1047200002012046294617F03BFC91A3D3E9002360
:1047300017F084FA22462B4617F032FC8EA3D3E9F9
:10474000002317F07BFA22462B4617F029FC8CA396
:10475000D3E9002317F072FA22462B4617F020FC0B
:1047600089A3D3E9002317F069FA22462B4617F0F4
:1047700017FC87A3D3E9002317F060FADDE90023D3
:1047800017F00EFC84A3D3E90023CDE904012046F1
:10479000294617F005FC82A3D3E9002317F04EFA4F
:1047A00022462B4617F0FCFB7FA3D3E9002317F02A
:1047B00045FA22462B4617F0F3FB7DA3D3E90023ED
:1047C00017F03CFA22462B4617F0EAFB7AA3D3E90E
:1047D000002317F033FA22462B4617F0E1FB78A3AB
:1047E000D3E9002317F02AFA02460B46DDE904015B
:1047F00017F024FADDE9022317F0D2FB3A464346CC
:1048000017F01CFADDE9002317F0CAFB02460B463D
:104810003846414617F012FA6BA3D3E90023044649
:104820000D46DDE9020117F0BBFB22462B4617F0CF
:1048300005FA0B46024651465846CDE9002317F0CB
:10484000FDF9654B9E4204460D463EDC109B012B54
:1048500036D002460B4600205E4917F0CBFC002400
:104860000F4606465A4653462046294617F0E4F9B5
:10487000A04602460B46DDE9000117F0DDF942468D
:104880003B4617F08DFBA94604460D4642463B4683
:104890004046494617F084FB0022504B17F0CEF9F2
:1048A00002460B462046294617F0C8F932463B46D9
:1048B00017F076FB42463B4617F0C0F904460D461A
:1048C0002046294607B0BDE8F08F109817F002FB8C
:1048D000224606460F462B462046294617F060FB27
:1048E0003246CDE902013B462046294617F0A6F99B
:1048F00002460B46DDE9020117F07CFCDDE90023EE
:1049000017F09AF902460B465846514617F094F9AB
:1049100002460B4617F092F902460B4630463946DE
:1049200017F08AF904464FEAA97000F00200C0F1BE
:1049300001000D4617F0CEFA02460B4620462946E6
:1049400017F02EFB04460D462046294607B0BDE869
:10495000F08F00BFAFF30080182D4454FB21E93FD6
:10496000075C143326A6813CD47ABF74702AFB3EC0
:10497000E9A7F0320FB8123F68108D1AF726303FC2
:104980001583E0FEC8DB573F93846EE9E326823F40
:10499000FE41B31BBAA1AB3F735360DBCB75F3BED3
:1049A000A69237A0887E143F0165F2F2D844433FB7
:1049B000280356C9226D6D3F37D60684F464963FAE
:1049C0007AFE10111111C13F635555555555D53F0C
:1049D000FFFF2F3E0000F0BF2794E53F0000F03FAF
:1049E0005846514618F056F802460B460020084932
:1049F00017F000FC04460D4662E701F1004308F1A0
:104A0000004883469A4659E65C46554658E700BF3B
:104A10000000F03F000000002DE9F04FD24A21F0E5
:104A20000043934285B00C460E4605462DD9CF4A29
:104A300093421AD8002E80F21681B5A3D3E9002341
:104A40002846214617F0FAF80022002317F01AFD35
:104A5000C0B9B1A3D3E900232846214617F0A0FA34
:104A600002460B460020C24908E1C24A934240F286
:104A7000D0800346C1F31302134340F0F6810029AE
:104A800080F2C4800020BC49C0E0BC4A934200F2DE
:104A90002981BB4A934240F2DE8000230193002229
:104AA000B84B2846214617F07BFA06460F460246C9
:104AB0000B462846214617F073FA99A3D3E9002341
:104AC00082468B4617F06CFA97A3D3E9002317F0C0
:104AD000B5F852465B4617F063FA95A3D3E9002375
:104AE00017F0AAF852465B4617F05AFA92A3D3E998
:104AF000002317F0A3F852465B4617F051FA90A333
:104B0000D3E9002317F098F852465B4617F048FAAD
:104B100000229D4B17F092F88046894602460B46CC
:104B20003046394617F03CFA02460B4600209749BA
:104B300017F082F8064602460B460F4640464946A5
:104B400017F07AF83246804689463B462846214689
:104B500017F026FA02460B4600208D4917F06CF834
:104B600002460B464046494617F044FB52465B4618
:104B700017F016FA019E02460B46002E38D0DDE9EA
:104B8000026732463B4617F057F82A46234617F08D
:104B900007FA32463B4617F04FF85B46524617F08D
:104BA0004BF8019B013306460F4600F00F81019B35
:104BB000012B00F0F180019B0133392B39D8019B87
:104BC000132B40F31281019FC7F57F760336002235
:104BD000330517F033F802460B462846214617F0F6
:104BE0002BF80022684B17F029F801EB07510DE074
:104BF0002846214617F0D4F952465B4617F01CF8B8
:104C000002460B462846214617F016F805B0BDE8C7
:104C1000F08F4DA3D3E9002317F052FC00283FF496
:104C200009AF4BA3D3E900231046194617F0B8F992
:104C3000ECE72A46234616F0FFFF02460B4600200B
:104C4000514916F0F9FF019A4F4B01EB0251002236
:104C500016F0F2FFDAE73EA3D3E9002316F0EEFFE9
:104C600002460B46CAE72CA3D3E900232846214677
:104C700017F096F90B4643490246002016F0DEFF76
:104C800017F03EFC019017F025F933A3D3E9002378
:104C900006460F4617F084F902460B462846214681
:104CA00016F0CAFF2EA3D3E900238046894630467A
:104CB000394617F075F906460F4632463B464046E0
:104CC000494616F0B9FF02460B4605460C464046DB
:104CD000494616F0B1FF32463B4616F0ADFFCDE92E
:104CE0000201DCE62B4A934200F2978000291AA3C6
:104CF000D3E90023C0F2AE8016F09EFF0123804668
:104D00008946019316A7D7E90067D6E7AFF300807D
:104D100059F3F8C21F6EA501FE822B654715F73FB8
:104D20002DC3096EB7FD8ABE3952E686CACFD03E82
:104D3000B7DBAA9E19CE143F8555FE19A0015A3F34
:104D4000F41011111111A13FEF39FAFE422E8640E5
:104D50009C7500883CE4377E0000E0FE422EE63F72
:104D6000763C7935EF39EA3D79684340412E8640FB
:104D70000000E0BFFFFFEF7F0000F0BF422ED63FF4
:104D8000FFFF8F3C0000E03F0000F03F00000840C4
:104D900000001840B1A2F03F2846214600223A4BBD
:104DA00017F070FB002846D0284621460022374BDA
:104DB00016F044FF02460B463046394616F03CFFDB
:104DC00000224FF0404317F0EBF81FE732463B4616
:104DD0002846214616F030FF00222C4B17F0E0F851
:104DE00000222A4B16F028FF10E7019E4FF4001E08
:104DF0004EFA06FE2A462346CEF17F5716F01CFFD8
:104E0000002607F5401702460B463046394616F095
:104E100013FF019E01EB0651F8E617A3D3E9002327
:104E200017F0BEF8002C02460B464FF00000FFF6CC
:104E30001AAE164922E732463B462846214616F06E
:104E4000FBFE02460B4616F0F9FE0022104B16F050
:104E5000F5FEDBE616F0F2FE4FF0FF3380468946A2
:104E6000019307A7D7E9006727E702460B4616F02C
:104E7000E5FECBE6AFF30080FE822B654715F73FDA
:104E8000763C7935EF39EABD0000D0BF0000E03F45
:104E90000000F03F00000000F8B5C1F30A560446D8
:104EA0000D460B4617460EBB21F0004303438646D2
:104EB00025D00022344B17F073F8344A9742044649
:104EC0000D460B462ADBC1F30A56363E3E4440F2FD
:104ED000FE72964228DC002E12DD23F0FF4323F4FD
:104EE000E00343EA065520462946F8BD40F2FF722A
:104EF0009642EBD102460B4616F0A0FEF8BDF8BD77
:104F000016F1350F1DDA4CF250339F4222462B46E4
:104F100025DC19A1D1E9000119F052FE16A3D3E94D
:104F2000002317F03DF8F8BD22462B4614A1D1E925
:104F3000000119F045FE12A3D3E9002317F030F861
:104F4000F8BD23F0FF4323F4E003363643EA065569
:104F50002046294600220E4B17F022F8F8BD08A182
:104F6000D1E9000119F02CFE05A3D3E9002317F0C5
:104F700017F8F8BDAFF3008059F3F8C21F6EA50112
:104F80009C7500883CE4377E00005043B03CFFFF36
:104F90000000903C10B5054C237833B9044B13B195
:104FA0000448AFF300800123237010BDC803002024
:104FB00000000000D02103080C4B43B10C480D4900
:104FC00010B5AFF300800C48036823B910BD0A4840
:104FD000036833B97047094B002BF7D0BDE8104088
:104FE0001847064B002BF5D0184700BF0000000003
:104FF000D0210308CC030020B003002000000000F3
:1050000070B504460E4600F0D1F888B10368DB6A3B
:1050100005469847082C0CD0A4F10903012B14D99C
:105020003246214610230D20BDE8704004F05EB8E2
:1050300070BD2B6828465B6A98470228F0DC2B6815
:1050400028461B6A04219847EAE72B6828465B6AD2
:1050500098470528E4DC2B6828461B6A08219847F6
:10506000DEE700BF30B52DED028B83B0054600F0C2
:105070009DF8044640B10368DB6A9847032D50D879
:10508000DFE805F0373F47080190019803B0BDEC19
:10509000028B30BD20460CF04BF907EE900A2046FB
:1050A000F8EEE78A0CF054F907EE900A2046B8EEC5
:1050B000E78A0CF05DF968EE087A07EE100AE8EE70
:1050C000A87AB8EEC77AE7EE077AF5EE407AF1EE05
:1050D00010FAB1EEE78A03D517EE900A18F090FBAC
:1050E000FDEEC87ACDED017A019803B0BDEC028BDC
:1050F00030BD204603B0BDEC028BBDE830400CF063
:1051000017B9204603B0BDEC028BBDE830400CF06F
:105110001FB9204603B0BDEC028BBDE830400CF057
:1051200027B900230193B0E738B5054600F03EF8F3
:1051300058B10368DB6A0446984745B1012D04D194
:105140002046BDE83840FBF747BA002038BD20466E
:10515000BDE83840FBF720BA10B5044600F026F849
:1051600028B1036821461B6ABDE81040184710BDEE
:105170000048704716FCFFFF704700BF10B5034B97
:10518000036004460BF0B4FE204610BDFC0B030880
:1051900010B5054B036004460BF0AAFE20461AF03A
:1051A00040F9204610BD00BFFC0B03082DE9F04379
:1051B000BD4C236885B01BB1986805B0BDE8F0838D
:1051C0004FF0FF31012001F0CBFC04F083FF0028F9
:1051D00000F0EC800C201AF026F94FF0FF31064663
:1051E000462001F0BDFC68280CBF3321032151206B
:1051F00001F0B6FCDFF8E0E2AC4B054605F00F0726
:10520000C5F3031815F4807508BF7346A8483946DE
:1052100042460BF063F82A1C18BF01223946434668
:1052200030460EF005FE0023A248B3600BF056F89E
:105230004FF0FF31032001F093FC04F04BFF4FF0DF
:10524000FF310546022001F08BFC04F043FF002DE6
:1052500000F09580002800F092800146284604F076
:1052600055FB0746002800F09D803821462001F0BC
:1052700077FC322880462AD027DD382866D0682877
:105280003DD14FF0FF31012001F06AFC04F022FF14
:1052900081464C201AF0C7F80523054601934A467B
:1052A000CDF80080394633460DF092FD2846B060B7
:1052B00003689B6A9847B0680368DB6A98477E4832
:1052C0000BF00CF82660B06877E7302817D14FF064
:1052D000FF31012001F044FC04F0FCFE81464C202B
:1052E0001AF0A1F81FFA88F1054605234A460091F5
:1052F0000193394633460DF04DFB2846D7E73A680F
:105300000125002301950095D2F82080B3600F227B
:105310000DF10F0332213846C047002851D14FF01C
:105320003208414665480AF0D9FF4FF0FF310120AD
:1053300001F016FC04F0CEFE81464C201AF073F802
:10534000052305464A46CDF80080D1E74FF0FF31EE
:10535000012001F005FC04F0BDFE814644201AF056
:1053600062F8052305464A46CDF800803946019388
:1053700033460DF085FC524B2B60284697E7514889
:105380000AF0ACFF4FF0FF31192001F0E9FB04F007
:10539000A1FE4FF0FF310546182001F0E1FB04F0BB
:1053A00099FE5AE748480AF099FF8BE74FF0FF3122
:1053B000032001F0D5FB04F08DFE00287FF40AAF36
:1053C000FBE63B6801950095D3F820800F220DF194
:1053D0000F0330213846C04718B94FF03008414616
:1053E000A0E73B6801950095D3F820800D220DF1D0
:1053F0000F0338213846C047B8B938212F480AF082
:105400006DFF4FF0FF31284601F0AAFB04F062FE69
:10541000804644201AF007F84FF0050E3823054661
:10542000424639468DE80840A2E73A680195009562
:10543000D2F820800DF10F03752268213846C0474D
:10544000D8B968211D480AF049FF4FF0FF312846BE
:1054500001F086FB04F03EFE80464C2019F0E3FF8D
:105460004FF0050E682305468DE808404246394650
:1054700033460DF0ADFC284619E714480AF02EFF1C
:10548000B06800287FF414AF4FF0FF31032001F023
:1054900067FB04F01FFE18B10D480AF01FFF11E76B
:1054A0000C480AF01BFF0DE7E403002014FD02087E
:1054B00024FD020844FD0208DCFD020800FE02088B
:1054C000E0FC020854FD020868FD0208ECFD020839
:1054D00080FD0208BCFD02081CFD020808B501F0B1
:1054E00067FCFBF739FEBDE8084001F0CFB900BF0B
:1054F00008B501F05DFCFBF79FFEBDE8084001F038
:10550000C5B900BF08B501F053FC17F039FBBDE881
:10551000084001F0BBB900BF08B501F049FC18F024
:10552000ABF8BDE8084001F0B1B900BF08B501F023
:105530003FFCFBF721FEBDE8084001F0A7B900BF22
:1055400008B501F035FC17F04DFDBDE8084001F04D
:105550009DB900BF08B501F02BFCFBF75DF8BDE875
:10556000084001F093B900BF08B501F021FC17F025
:105570008DFCBDE8084001F089B900BF70B5049EFC
:1055800096420C4628DB15466BB1002A00EB02015F
:1055900007DD2046A21811F8013D00F8013B9042BA
:1055A000F9D1002070BD042A0FD0022A02D110F0D8
:1055B000010306D001462A46204607F0CDF9002017
:1055C00070BD02880A80184670BD10F00303F1D147
:1055D00002680A60184670BD0846002108F0A2FB68
:1055E0004FF0FF3070BD00BF0830704740B1002958
:1055F00005DB4368994202DA0844007A70470020CC
:10560000704700BF30B1002904DB43689942BCBF3A
:1056100040180272704700BF40B1002905DB4368A3
:10562000994202DA0844007A70470020704700BFB0
:10563000830705D120B1030F0CBF01200020704764
:105640000120704730B1002904DB43689942BCBF98
:1056500040180272704700BF002B23DB002921DBBA
:1056600070B54668B1421ADC5568761A1446EA1AD3
:10567000B242A8BF3246002A11DB84420D4607D051
:10568000083408300844E11807F066F9002070BDBE
:105690000834E118601919F000FF002070BD4FF0C8
:1056A000FF3070BD4FF0FF30704700BF406870475B
:1056B00010B4141E10DB426894420DDC33EA23035D
:1056C00028BF1346121B08309A422044A8BF1A462E
:1056D0005DF8044B08F026BB5DF8044B704700BF33
:1056E00043688B4210B400F108041846A8BF08466E
:1056F00032EA220128BF19461B1A99422044A8BF4A
:1057000019465DF8044B00F0B7BE00BF002BBCBFCC
:1057100043689B1A002A70B50E4620DB446899182E
:10572000A1421CDC8A421ADCCBB136F0004116D013
:1057300059428E4214DDB34212DD0830002E00EBD8
:10574000020515DB9C1B2246A919284619F0A5FE67
:10575000324628190021BDE8704008F0E3BA70BD58
:10576000002211464FF0FF33BDE87040FFF7A0BFA5
:1057700074429A192946281919F08FFE22462846A4
:105780000021BDE8704008F0CDBA00BF03460830E4
:10579000596800F0F1BD00BF70B504460020616893
:1057A000490000F065FD6668002E11DD094D04F129
:1057B000080100EB4606034611F8012B141102F014
:1057C0000F022C5DAA5C9C71DA7102339E42F3D108
:1057D00070BD00BF14FE0208002BBCBF43689B1ABB
:1057E000002A2FDB70B445689C18AC4229DCA24229
:1057F00027DC33B331F0004423D00029B8BF01EBDC
:10580000032191FBF3F603FB1616002E00F10800AE
:10581000B8BFF61802441644B242134411D03046C1
:1058200004E0B24208460ED090420AD001461478F5
:1058300011F8015B02F8015B8B420470F1D1304634
:10584000F2E770BC70470E46EEE700BF00B583B0CC
:105850004FF0FF3300930023FFF7FEFE03B05DF827
:1058600004FB00BF10B50C1E0EDD4168083002F0CD
:10587000C5F81F2C09DC0123A34020FA04F4013BE6
:10588000444004EA030010BD002010BD0146002082
:1058900000F0F2BD38B50021054600F09BFD014641
:1058A000002000F0E9FD044600F10801284600F060
:1058B00091FD204638BD00BF30B5013A83B00446A3
:1058C0000D460F2A16D8DFE802F01717838D9417BC
:1058D0002E08081F424D5C367462184601F0FCFA2F
:1058E000012DADF8000005DD9DF800209DF8013088
:1058F0002370627003B030BD184601F0EDFA002D40
:10590000F8DD207003B030BD184601F0E5FA032D34
:105910000090EFDD6A46231D12F8011B03F8011DFC
:105920009C42F9D1E6E7184601F0D6FA002DC0B244
:10593000E0DD2070E6E7184601F03AFA072DCDE9E0
:105940000001D7DD6B4603CB20606160D2E71846CB
:1059500001F056FA032DCDDDA3070CBF20602060B7
:1059600003B030BD184601F04BFA032D0090C1DDA5
:105970006A46231D12F8011B03F8011D9C42F9D150
:10598000B8E7184601F040FB032DE5DCB2E7184606
:1059900001F00EFA072DCDE90001ABDD0DF1FF326C
:1059A00004F1080312F8011F03F8011DA342F9D105
:1059B000A0E7184601F028FB032D00909ADD6A4607
:1059C000231D12F8011B03F8011DA342F9D191E731
:1059D000184601F081FA012D8CDDE20754BF2080CA
:1059E000208087E7184601F077FA012D82DD80B22A
:1059F000F3E7184601F070FA032DADDC7AE700BF3B
:105A000030B4141E07DB456808300A462044291BC1
:105A100030BCFFF751BF30BC704700BF00B5013A42
:105A200085B00F2A00F28880DFE802F01623303DAF
:105A30004A56595C5F626571748083080091012346
:105A400008220DEB0201FFF799FDDDE9020100F0EC
:105A50001DFF05B05DF804FB00910023012202A99F
:105A6000FFF78CFD9DF9080001F016F805B05DF810
:105A700004FB00910023012202A9FFF77FFD9DF89E
:105A8000080001F009F805B05DF804FB009100235F
:105A9000022202A9FFF772FDBDF9080000F0FCFF29
:105AA00005B05DF804FB00910023022202A9FFF774
:105AB00065FDBDF8080000F0EFFF05B05DF804FBE0
:105AC00000910023042202A9FFF758FD029800F07C
:105AD000E3FF05B05DF804FB01230091BEE701235D
