:10400000000003200D3C0100093C0100E5DA00003E
:10401000093C0100093C0100093C010000000000CE
:10402000000000000000000000000000093C01004A
:10403000093C010000000000093C0100093C0100AE
:10404000093C0100093C0100093C0100093C010058
:10405000093C0100093C0100093C0100093C010048
:10406000093C0100093C0100093C0100093C010038
:1040700001C3010009C3010011C3010019C30100FC
:1040800021C3010029C3010031C3010039C301006C
:1040900041C3010049C3010051C3010059C30100DC
:1040A00061C3010069C3010071C3010079C301004C
:1040B000093C0100093C0100093C0100ADBD0100C3
:1040C000B1BD0100B5BD0100B9BD0100BDBD01001C
:1040D000093C0100093C0100093C0100093C0100C8
:1040E000093C0100093C0100093C0100093C0100B8
:1040F00000000000093C0100F1B80100EDB801002A
:10410000E9B80100DDB8010009B9010005B90100F5
:1041100001B90100F5B8010021B901001DB9010084
:1041200019B901000DB9010039B9010035B9010013
:1041300031B9010025B9010051B901004DB90100A3
:1041400049B901003DB9010069B9010065B9010033
:1041500061B9010055B90100000000000000000035
:10416000000000000000000000000000000000004F
:10417000000000000000000000000000000000003F
:104180005D8F0100618F0100598F0100558F010083
:1041900000000000093C0100093C0100093C01004D
:1041A000093C0100093C0100093C0100093C0100F7
:1041B000093C0100093C0100093C0100093C0100E7
:1041C000093C0100093C0100093C0100093C0100D7
:1041D000093C0100093C0100093C0100093C0100C7
:1041E000093C0100093C0100093C0100B5AF010098
:1041F000BDAF0100C5AF0100CDAF0100D5AF0100DB
:10420000DDAF01000000000000000000093C0100DB
:10421000093C0100093C0100093C0100093C010086
:10422000093C0100093C0100093C0100093C010076
:10423000093C0100093C0100093C0100093C010066
:10424000093C0100093C0100093C0100093C010056
:10425000093C0100093C0100093C0100093C010046
:10426000000000007CB0EE877CB0EE87FF00FF000E
:10427000FF00FF00FF00FF00FF00FF00FF00FF0046
:10428000FF00FF00FF00FF00FF00FF00FF00FF0036
:10429000FF00FF00FF00FF00FF00FF000000000024
:1042A0002DE9F04F85B003910778A7F10903042B9E
:1042B000044607F07F0200F10100F5D9202AF3D06F
:1042C0002B2F04BF677804462D2F72D09FED427BC1
:1042D0008DED007B4FF000084FF000098FB34FF0D9
:1042E000000E4FF0000ADFF800B1754619E018F033
:1042F00009FB80468946304618F09EFA42464B46F6
:1043000018F04EF95246804689465B46DDE90001C9
:1043100035B318F021FCCDE90001AE4614F8017F59
:104320007FB1A7F13006092E52465B46404649460A
:10433000DDD9C5B92E2F16D114F8017F0125002F24
:10434000EFD142464B46DDE9000118F0DBFA80462A
:104350008946039B404649461C6005B0BDE8F08F86
:104360004FF0010EDAE7BEF1000F29D042464B466E
:10437000DDE9000118F0C6FA07F0DF07452F804697
:104380008946E6D10399601C0A221BF02BF91649D5
:104390000246002018F016FE02460B4640464946EB
:1043A00018F0B0FA804689464046494605B0BDE857
:1043B000F08F9FED0B7B67788DED007B013489E7F3
:1043C000DFF828904FF000084046494605B0BDE8A8
:1043D000F08F00BFAFF30080000000000000F03F4E
:1043E000000000000000F0BF000024400000F87F43
:1043F0002DE9F84F16460023002204460D4618F01A
:10440000F3FC002840F09D8000220023204629462E
:1044100018F0E0FC28B13022002332707370BDE840
:10442000F88F2046294619F0DDFB18F01BFD7BA311
:10443000D3E9002381462946204618F0D5FC002800
:1044400000F08680B9F1000FC0F2BE804A4600201D
:104450006F4918F0B7FD02460B462046294618F072
:104460007BFB04460D4666A1D1E9000101274FF010
:10447000000822462B4618F045FA0022654B18F03A
:104480008FF818F0DBFD002FCC464FF0FF3AC14605
:104490004FF0000840F38580DFF888E15E4C012290
:1044A000AEF1700945F6F3254FF02E0BA94208BF77
:1044B000A0424FF0300309D3001B61EB0501A94274
:1044C00008BFA04203F10103F6D2DBB2337050EA19
:1044D000010306F1010409D1BA4210DACE4502F116
:1044E00001020CD026467EE80245DFE7BA4204BF4F
:1044F00086F801B0B41CCE4502F10102F2D1B8F148
:10450000000F0DD02246302102F8011BC2F1010339
:1045100053442344002BF7DC2AEAEA7301331C449A
:10452000BCF1010F4CD06523BCF1000F2370C5BF57
:104530002B236370611CA11C6046BDE8F84F0FF08F
:10454000D3BB05F100431D462D23337001365BE7D5
:104550002DA3D3E900232046294618F063FC002848
:104560007FF470AFB9F10E0F09F101073DDDA9F13C
:104570000E0842460020264918F024FD02460B464C
:104580002046294618F0E8FA0022224B18F008F8D5
:1045900018F054FD002FA9F10F0A4FF0010C3FF75E
:1045A0007BAF334630222E2403F8022B74707FEA4F
:1045B000090618D01E4403F8012BB342FBD16BE768
:1045C00000232370BDE8F88FC9F1000200201049D4
:1045D00018F0F8FC02460B462046294618F092F9DE
:1045E00004460D463FE71E4656E7C9F10E0200207D
:1045F0000749C84618F0E6FC4FF0010939E700BF4B
:104600000000901EC4BCD64250EFE2D6E41A4B44E0
:10461000000024400000E03F00407A108DEDB5A07E
:10462000F7C6B03E1006020070B54FF0FF3006F03E
:104630008FF804466FF07F4006F08AF80646204661
:1046400018F0EAF800220C4B18F05CF904463046EA
:104650000D4618F0E1F806A3D3E9002318F07CFA20
:1046600002460B462046294617F09AFF70BD00BF50
:104670000000E0DFFFFF6F430000F03D000000009E
:1046800008B510F0E5FDDFED0C7A07EE100A67EED5
:10469000277A17EE900A18F0E1F805A3D3E9002372
:1046A00018F05AFA18F0DEFB08BD00BFAFF3008027
:1046B000EA2E4454FB2119400000B44300000000DE
:1046C00008B510F0D9FDDFED0C7A07EE100A67EEA1
:1046D000277A17EE900A18F0C1F805A3D3E9002352
:1046E00018F03AFA18F0BEFB08BD00BFAFF3008027
:1046F000EA2E4454FB2119400000B443000000009E
:104700002DE9F04F046985B0E3699B07FCD123686C
:10471000C3F3400BBBF1000F40F0AF80B0F80CA02A
:1047200015468046BAF1000F23D0BAF1010F62D0CE
:10473000BAF1020F40F0A4805500E1685448C5F575
:104740003B438033B3FBF5F31A0421F47F0102F4F9
:104750007F020A43E260E2685B00A0FB03135B0890
:1047600022F07F4242EA03635846E36005B0BDE8A9
:10477000F08FE2684BF6803B05EB850022F0FF03EB
:10478000ABEB4000019318F047F80646B8F80E006E
:104790000F4618F051F83CA3D3E9002318F0B2F803
:1047A00080460BFB05F0894618F036F802460B46AA
:1047B0004046494618F0A6F802460B4630463946B0
:1047C00017F0ECFE064668000F4618F025F8024682
:1047D0000B463046394618F0BFF918F06BFB019BC9
:1047E000C0B21843E060E368504623F47F43E360BF
:1047F00005B0BDE8F08FE2684BF6803A05EB850026
:1048000022F0FF03AAEB4000019318F005F8CDE970
:104810000201B8F80E0018F00FF81BA3D3E900232B
:1048200018F070F806460AFB05F00F4617F0F4FF83
:1048300002460B463046394618F064F802460B46ED
:10484000DDE9020117F0AAFE064668000F4617F0E0
:10485000E3FF02460B463046394618F07DF918F062
:1048600029FB019AC3B21343E360E368584623F47B
:104870007F43E36005B0BDE8F08F6FF0100075E78F
:104880006FF00C0072E700BF95D626E80B2E113EA4
:10489000ABAAAAAA000000004F4A21F000439342AD
:1048A0002DE970430D4604464FDC4C4A93420E46B8
:1048B0000FDC45A3D3E9002317F072FE0022484B1A
:1048C00018F0B0FA002856D02B4620461946BDE80D
:1048D0007083444A934242DCB3F1804F4BDD18F0C1
:1048E0008BFD2246804689462B462046294618F0F5
:1048F00009F800223A4B17F053FE19F09BFD0246CF
:104900000B464046494617F04BFE02460B46002038
:10491000334918F021F9424604460D464B464046BD
:10492000494617F03DFE0B4602462946204617F041
:1049300037FE01F0FDFE04460B46002E0BDC03F1B2
:10494000004320461946BDE870830B46024617F027
:1049500027FE04460B4620461946BDE8708318F032
:104960004BFD01F0E5FE1AA3D3E9002317F018FE72
:1049700004460B46E1E722462B462046294617F01F
:10498000C1FF804689462046294618F035FD0022A1
:104990000446134B0D464046494617F001FE19F0F8
:1049A00049FD00220E4B17F0FBFD02460B46404628
:1049B000494618F0D1F822462B4617F0F1FD00F0D9
:1049C000D3FA04460B46B8E79C7500883CE4377E72
:1049D000EF39FAFE422EE63FFFFFEF7FFFFF2F3E4B
:1049E0000000F03F0000B0412DE9F84FC24B21F02C
:1049F00000469E420D468A46044610DDBF4B9E424D
:104A000000F3B58000F0B080BD4BBE49BE4CBAF19A
:104A1000000FD8BF0B4620461946BDE8F88FBB4BA8
:104A20009E4200F3C180A3F1DE739E4240F3AB804F
:104A30004FF0FF3B22462B462046294617F062FFE7
:104A400002460B468046894617F05CFF92A3D3E9E5
:104A5000002306460F4617F055FF91A3D3E9002324
:104A600017F09EFD32463B4617F04CFF8EA3D3E96C
:104A7000002317F095FD32463B4617F043FF8CA309
:104A8000D3E9002317F08CFD32463B4617F03AFF7E
:104A900089A3D3E9002317F083FD32463B4617F084
:104AA00031FF87A3D3E9002317F07AFD42464B4636
:104AB00017F028FF84A3D3E90023804689463046B7
:104AC000394617F01FFF82A3D3E9002317F066FDD4
:104AD00032463B4617F016FF7FA3D3E9002317F0B9
:104AE0005DFD32463B4617F00DFF7DA3D3E9002361
:104AF00017F054FD32463B4617F004FF7AA3D3E982
:104B0000002317F04BFD32463B4617F0FBFEBBF18E
:104B1000FF3F02460B466ED04046494617F040FD27
:104B200022462B4617F0EEFE794E7A4B4FEACB0B1E
:104B30005E449B44DBE9002317F030FD22462B4600
:104B400017F02CFD0B460246D6E9000117F026FDB2
:104B5000BAF1000F04460B46BFF65DAF01F100430A
:104B600020461946BDE8F88F00283FF44DAF224695
:104B70002B462046294617F013FD04460B462046D7
:104B80001946BDE8F88F5AA3D3E9002317F008FDB2
:104B90000022614B18F046F900283FF449AF2B463C
:104BA00020461946BDE8F88F18F026FC5B4B9E4264
:104BB00004460D4630DCA3F550239E4255DC0246E8
:104BC0000B4617F0EDFC0022534B17F0E7FC0022D8
:104BD00006460F464FF080432046294617F0E0FC7A
:104BE00002460B463046394617F0B6FF4FF0000B31
:104BF00004460D461EE74046494617F0D1FC2246C2
:104C00002B4617F07FFE0B4602462946204617F03A
:104C1000C5FC04460B46FEE6414B9E421ADC0022D0
:104C2000404B17F0BBFC002206460F463D4B20468A
:104C3000294617F067FE0022374B17F0B1FC0246F9
:104C40000B463046394617F087FF4FF0020B0446FB
:104C50000D46EFE602460B460020334917F07CFF75
:104C60004FF0030B04460D46E4E600222A4B17F0F2
:104C700095FC002206460F46274B2046294617F092
:104C80008FFC02460B463046394617F065FF4FF061
:104C9000010B04460D46CDE611DA22E33AAD903F12
:104CA000EB0D76244B7BA93F513DD0A0660DB13F63
:104CB0006E204CC5CD45B73FFF8300922449C23FCB
:104CC0000D5555555555D53F2F6C6A2C44B4A2BF90
:104CD0009AFDDE522DDEAD3F6D9A74AFF2B0B33F58
:104CE000711623FEC671BC3FC4EB98999999C93FD0
:104CF0009C7500883CE4377EFFFF0F440000F07F86
:104D0000FB21F93FFB21F9BF182D4454FFFFDB3F86
:104D100020060200400602000000F03FFFFFF23FC5
:104D2000FF7F03400000F83F0000F0BF00000000DC
:104D30002DE9F047C1F30A59A9F2FF36132E0B46AD
:104D40000D46044607468846824622DC002E4FDB8D
:104D50003D4A42FA06F901EA090202431ED038A38D
:104D6000D3E9002317F01CFC0022002318F05AF8A6
:104D700050B1002D04DD4FF4801343FA06F6B04421
:104D800028EA09054FF0000A544629462046BDE8A6
:104D9000F087332E06DDB6F5806F3DD019462046EC
:104DA000BDE8F087A9F213494FF0FF3222FA09F962
:104DB00010EA090FF2D022A3D3E9002317F0F0FB89
:104DC0000022002318F02EF80028DDD0002D09DD88
:104DD000142E2FD00123C6F1340603FA06F6371934
:104DE00028BF9844454627EA090A54462946CDE794
:104DF00013A3D3E9002317F0D3FB0022002318F0FC
:104E000011F80028C0D0002D0FDB55EA040709D0A7
:104E10004FF0000A0D4DB7E702460B4617F0C0FBF6
:104E20000446BCE7BA463D46AEE74FF0000A4FF0F5
:104E30000045A9E705F10108D4E700BFAFF3008002
:104E40009C7500883CE4377EFFFF0F000000F03FB8
:104E5000C1F30A522DE9F843A2F2FF36132E0B4696
:104E60000D460446884607461DDC002E40DB3C4AC2
:104E700042FA06F901EA09020243864618D036A32F
:104E8000D3E9002317F08CFB0022002317F0CAFFA0
:104E900020B1002D42DB28EA090500273C462946BF
:104EA0002046BDE8F883332E06DDB6F5806F2FD09F
:104EB00019462046BDE8F883A2F213424FF0FF39AD
:104EC00029FA02F910EA090FF2D023A3D3E900234B
:104ED00017F066FB0022002317F0A4FF0028DDD0A6
:104EE000002D21DB454627EA09073C462946D7E73E
:104EF00019A3D3E9002317F053FB0022002317F076
:104F000091FF0028CAD0002D19DB00273D46C5E7D8
:104F100002460B4617F044FB0446CAE74FF48013E1
:104F200043FA06F6B044B6E7142E10D00123C6F1BA
:104F3000340603FA06F6371928BF9844D2E725F05D
:104F40000042084B224318BF1D460027A6E705F183
:104F50000108C7E7AFF300809C7500883CE4377E0A
:104F6000FFFF0F000000F0BF2DE9F04FD64B994234
:104F700089B00E460F46824613DCD44B21F0004424
:104F80009C4218DD0022D24B17F024FF002879D074
:104F9000002200230020CF4917F0DEFD09B0BDE854
:104FA000F08FCD4B99422FDD5246334617F0F8FA79
:104FB00009B0BDE8F08FC94B9C4270DDC84B1F445F
:104FC0009F427ED8504631460022C64B17F0E8FA81
:104FD0004FEA215BABF2FF3BBBF1000F04460D46ED
:104FE0000F4640F3E0815246334617F0D7FA0246A7
:104FF0000B460020BB4917F0D1FA22462B4617F08A
:10500000ABFDCDE900010BE0B74B9F42DADD00229A
:105010000023CDE900234FEA275B5446ABF2FF3B68
:10502000B24BC7F313079F4247F07F5500F3E78069
:1050300045F44015204629460022AA4B17F0AEFA47
:10504000002204460D46AA4B17F05CFC22462B4674
:1050500017F058FCA246CDE902012E46804689464B
:10506000002F3AD1002200232046294617F0B2FE35
:10507000002800F0CE80BBF1000F40F076810020C8
:10508000014695E7524633465046314617F086FAB8
:1050900002460B4617F060FD09B0BDE8F08F002214
:1050A000944B17F07DFA0022002317F0BBFE002876
:1050B00000F0CC80904B9C4200F3C88050463146B3
:1050C00076E700228A4B17F01DFC5246334617F054
:1050D00019FC4FF0000B8046894600224FF08043B8
:1050E0005046314617F05CFA02460B4650463146B0
:1050F00017F032FD02460B46CDE9022317F002FC01
:105100005DA3D3E9002304460D4617F0FBFB5CA327
:10511000D3E9002317F044FA22462B4617F0F2FB9E
:1051200059A3D3E9002317F03BFA22462B4617F088
:10513000E9FB57A3D3E9002317F032FA22462B46A6
:1051400017F0E0FB54A3D3E9002317F029FA224615
:105150002B4617F0D7FB52A3D3E9002317F020FA10
:1051600022462B4617F0CEFB4FA3D3E9002317F0BE
:1051700017FA22462B4617F0C5FB04460D46BBF135
:10518000000F00F0BB80584617F056FB48A3D3E948
:105190000023CDE9040117F0B5FB4246CDE9060135
:1051A0004B462046294617F0FBF9DDE9022317F0AC
:1051B000A9FB41A3D3E9002304460D46DDE9040120
:1051C00017F0A0FBDDE9002317F0EAF902460B46D1
:1051D0002046294617F0E4F902460B464046494668
:1051E00017F0DCF95246334617F0D8F902460B4661
:1051F000DDE9060117F0D2F909B0BDE8F08F45F4FA
:105200000015C7F5801720462946BF100BF1010B8A
:1052100012E72BA3D3E900232046294617F072FB9F
:1052200002460B4600202F4917F0B8F9DDE90223AA
:1052300017F068FB06460F46BBF1000F6DD1024622
:105240000B462046294617F0A9F9B1E652463346E7
:105250005046314617F056FB0022254B17F052FB03
:1052600002460B465046314617F098F909B0BDE8A2
:10527000F08F00BFAFF3008044523EDF12F1C23F17
:105280009FC678D0099AC33FDE03CB966446C73FDA
:10529000AF788E1DC571CC3F599322942449D23FDB
:1052A00004FA97999999D93F935555555555E53F26
:1052B0000000E0FE422EE63F763C7935EF39EA3DCC
:1052C000555555555555E53F7982DA3FFFFFEF3F7C
:1052D0000000F0BF000050C3FFFFEF7FFFFF1F3E45
:1052E0003C412D400000F03FFFFF3F439DA00600E2
:1052F0000000E03F00005043FFFF8F3C42464B461A
:1053000017F04EF9DDE9022317F0FCFA02460B46CE
:105310004046494617F042F9A2E7584617F08CFA82
:1053200027A3D3E9002382468B4617F0EBFA26A386
:10533000D3E90023804689465046594617F0E2FAE1
:10534000DDE9002317F02CF902460B4630463946BA
:1053500017F024F922462B4617F020F902460B4697
:105360004046494617F01AF922E6584617F064FA03
:1053700015A3D3E9002306460F4617F0C3FADDE96B
:10538000002317F00DF90EA3D3E9002304460D46C0
:105390003046394617F0B6FA02460B4620462946F3
:1053A00017F0FEF804E60022094B17F0F7F8024662
:1053B0000B465046314617F0F1F81EE6AFF3008079
:1053C0000000E0FE422EE63F763C7935EF39EA3DBB
:1053D0000000F03F0000000008B518F087FB04A3B0
:1053E000D3E9002317F0B8FB08BD00BFAFF300807E
:1053F000EF39FAFE422EE63F2DE9F043DFF8B480A4
:105400008BB004460D4600F06BFF98F90030013375
:1054100006460F462BD022462B462046294617F03B
:105420000BFD814618BB2046294617F0E5FF1CA35B
:10543000D3E9002317F0F6FCC8B11B4A98F90030F5
:10544000CDF820900321CDE90445CDE902458DE852
:1054500006008BB9154B4FF06042CDE90623684634
:1054600019F02CFF70B1089B9BB9DDE90667304647
:1054700039460BB0BDE8F0830D490020022BCDE981
:105480000601ECD11AF06AF822230360089B002B76
:10549000EBD01AF063F8089B0360E6E7AFF30080F7
:1054A0007DF8B98FCE3386409C1C0200FFFFEF478A
:1054B0000000F07F1E0200202DE9F043DFF8E480B9
:1054C0008BB004460D4600F0BBFF98F90030013365
:1054D00006460F4633D02046294619F0E9FE70B340
:1054E00029A3D3E900232046294617F09BFC8146D7
:1054F00050BB27A3D3E900232046294617F074FCAC
:10550000E8B198F90030244ACDF820900426002014
:105510000021022BCDE90445CDE902450096019218
:10552000CDE9060129D0684619F0C8FE28B3089BCA
:105530001BB11AF013F8089B0360DDE906673046DB
:1055400039460BB0BDE8F083134A98F90030019258
:1055500003210022CDE90445CDE9024500910892DE
:105560002BB90E4B4FF06042CDE90623DBE70C4927
:105570000020022BCDE90601D5D119F0EFFF22233F
:105580000360D4E7AFF30080EF39FAFE422E864085
:1055900051302DD5104987C0A41C0200FFFFEF47F2
:1055A0000000F07F1E0200202DE9F84FC44E21F0CC
:1055B0000043B3420C4605460DDD03F1404303F5BD
:1055C0008013034340F0B980002940F3408100205C
:1055D0000021BDE8F88FBB4EB34240F3A6800029FE
:1055E000C0F2788102460B460020B74916F0D6FF7C
:1055F0000022B64B17F086F904460D4618F01AFF44
:1056000095A3D3E90023894680462946204617F012
:1056100079F993A3D3E9002316F0C2FF22462B4663
:1056200017F070F990A3D3E9002316F0B7FF2246D4
:105630002B4617F067F98EA3D3E9002316F0B0FFCD
:1056400022462B4617F05EF98BA3D3E9002316F010
:10565000A5FF22462B4617F055F989A3D3E900236D
:1056600016F09EFF22462B4617F04CF986A3D3E98D
:10567000002382468B462046294617F043F984A32F
:10568000D3E9002316F08AFF22462B4617F03AF999
:1056900081A3D3E9002316F083FF22462B4617F09F
:1056A00031F97FA3D3E9002316F078FF22462B4679
:1056B00017F028F90022844B16F072FF02460B46C1
:1056C0005046594617F048FA42464B4617F01AF929
:1056D000002682468B4632464B463046494617F0F6
:1056E00011F902460B462046294616F057FF32466E
:1056F00004460D464B464046494616F051FF0246C9
:105700000B462046294617F027FA02460B4650461C
:10571000594616F045FF32464B4616F041FF024609
:105720000B4616F03DFFBDE8F88F694A93420EDC48
:105730005DA1D1E90001BDE8F88F02460B4616F0E5
:105740002DFF02460B4617F007FABDE8F88F024618
:105750000B4617F0D7F840A3D3E9002306460F46BF
:1057600017F0D0F83EA3D3E9002316F019FF324614
:105770003B4617F0C7F83CA3D3E9002316F00EFF11
:1057800032463B4617F0BEF839A3D3E9002316F0A2
:1057900007FF32463B4617F0B5F837A3D3E900239D
:1057A00016F0FCFE32463B4617F0ACF834A3D3E9C2
:1057B000002316F0F5FE32463B4617F0A3F832A35D
:1057C000D3E90023804689463046394617F09AF8D7
:1057D0002FA3D3E9002316F0E1FE32463B4617F033
:1057E00091F82DA3D3E9002316F0DAFE32463B46AA
:1057F00017F088F82AA3D3E9002316F0CFFE32462B
:105800003B4617F07FF800222F4B16F0C9FE0246E8
:105810000B464046494617F09FF92A46234617F0A3
:1058200071F802460B4622A1D1E9000116F0B6FE3E
:1058300002460B462846214616F0B0FE02460B46AD
:1058400019A1D1E9000116F0A9FEBDE8F88F1AA14F
:10585000D1E90001BDE8F88F09F7FD0DE13D023FF8
:1058600088B20175E0EF493F3B8F68B52882A43FBD
:105870005544880E55C1C93F7D6FEB0312D6D43F06
:10588000555555555555C53F82922EB1C5B8B33FB4
:1058900059018D1B6C06E63FC88A599CE52A0040D9
:1058A0004B2D8A1C273A0340182D4454FB21F93F05
:1058B000075C143326A6913C182D4454FB21094063
:1058C000FFFFEF3FFFFFDF3F0000F03F0000E03F42
:1058D0000000603C00225C4B16F062FE00225B4B35
:1058E00017F010F840A3D3E9002304460D4617F043
:1058F00009F83FA3D3E9002316F052FE22462B46B7
:1059000017F000F83CA3D3E9002316F047FE224627
:105910002B4616F0F7FF3AA3D3E9002316F040FE1A
:1059200022462B4616F0EEFF37A3D3E9002316F0EC
:1059300035FE22462B4616F0E5FF35A3D3E90023BA
:1059400016F02EFE22462B4616F0DCFF80468946D6
:105950002046294618F06EFD2FA3D3E90023064602
:105960000F462046294616F0CDFF2DA3D3E900238C
:1059700016F014FE22462B4616F0C4FF2AA3D3E9E4
:10598000002316F00DFE22462B4616F0BBFF28A37F
:10599000D3E9002316F002FE22462B4616F0B2FF92
:1059A0000022294B16F0FCFD02460B4640464946B4
:1059B00017F0D2F832463B4616F0A4FF1EA3D3E9F7
:1059C000002316F0EBFD32463B4616F0E9FD024699
:1059D0000B4616F0E5FD02460B4619A1D1E9000180
:1059E00016F0DCFDBDE8F88F09F7FD0DE13D023F43
:1059F00088B20175E0EF493F3B8F68B52882A43F2C
:105A00005544880E55C1C93F7D6FEB0312D6D43F74
:105A1000555555555555C53F82922EB1C5B8B33F22
:105A200059018D1B6C06E63FC88A599CE52A004047
:105A30004B2D8A1C273A0340075C143326A6913C61
:105A4000182D4454FB2109400000F03F0000E03FC6
:105A5000434A91422DE9F8430C46054639DD414A57
:105A6000914209DD02F17952914240DD02460B4636
:105A700016F096FDBDE8F88301F1404202F5801270
:105A8000024330D0B1F1804F3ADC0022364B16F0A1
:105A900085FD02460B4604460D4616F081FD224662
:105AA00006460F462B462046294616F02BFF024697
:105AB0000B463046394616F073FD18F0BBFC0B461A
:105AC00002462946204616F06BFDBDE8F843FFF775
:105AD0004BBA02460B4616F061FD02460B4617F024
:105AE0003BF8BDE8F88300200021BDE8F88300F012
:105AF0001FFE19A3D3E9002316F052FDBDE8F88379
:105B000002460B4616F0FEFE0022174B16F046FD2D
:105B100018F090FC2A4680468946234628462146AE
:105B200016F03EFD424606460F464B4628462146A5
:105B300016F036FD02460B4600200B4917F00CF814
:105B40000B4602463946304616F028FDBDE8F843BC
:105B500000F0EEBDAFF30080EF39FAFE422EE63FD3
:105B6000FFFFEF3FFFFFAF410000F03F00000000EC
:105B70002DE9F047C44B21F00048984584B00D460C
:105B8000044616DD08F1404808F58018034658EA37
:105B9000030326D002460B4616F000FD0B460246D4
:105BA00016F0DAFF04460B462046194604B0BDE85D
:105BB000F087B64B98458A462EDCB8F1795F80F2C3
:105BC0006D8195A3D3E9002316F0EAFC0022B04BC7
:105BD00017F028F900B32B462046194604B0BDE85B
:105BE000F0878FA3D3E9002316F08CFE8EA3D3E9B0
:105BF000002306460F462046294616F083FE02463D
:105C00000B463046394616F0CBFC04460B46204680
:105C1000194604B0BDE8F0872046294617F0ECFB92
:105C200002460B4600209A4916F0B8FC0022994B18
:105C300016F068FE7EA3D3E9002304460D4616F055
:105C400061FE7DA3D3E9002316F0AAFC22462B4671
:105C500016F058FE7AA3D3E9002316F09FFC2246E3
:105C60002B4616F04FFE78A3D3E9002316F098FCDC
:105C700022462B4616F046FE75A3D3E9002316F004
:105C80008DFC22462B4616F03DFE73A3D3E900237C
:105C900016F086FC22462B4616F034FE70A3D3E99C
:105CA0000023CDE900012046294616F02BFE6EA305
:105CB000D3E9002316F072FC22462B4616F022FE92
:105CC0006BA3D3E9002316F06BFC22462B4616F09B
:105CD00019FE69A3D3E9002316F060FC22462B4687
:105CE00016F010FE6A4B002216F05AFCCDE90201B4
:105CF0002046294618F09EFB674B984506460F46FE
:105D000067DCDDE90223DDE9000116F025FF3246FC
:105D1000CDE900013B463046394616F041FC0246CB
:105D20000B46DDE9000116F0EDFD4FF00008CDE96E
:105D3000000142463B464046394616F0E3FD024626
:105D40000B462046294616F029FC424604460D46DD
:105D50003B463046394616F023FC02460B462046A9
:105D6000294616F0F9FE02460B4616F019FC0246CB
:105D70000B462DA1D1E9000116F010FC02460B469E
:105D8000DDE9000116F00AFC424604460D463B469A
:105D90004046394616F004FC02460B4638A1D1E9CC
:105DA000000116F0FBFB02460B462046294616F082
:105DB000F5FB0B46024632A1D1E9000116F0EEFBDD
:105DC00004460B46BAF1000F3FF7EEAE03F1004375
:105DD000EAE6DDE90223DDE9000116F0BDFE324608
:105DE0003B4616F08FFD32463B4616F0D9FB024685
:105DF0000B4616F0D5FB0CA3D3E9002316F0CEFB1F
:105E00000B46024606A1D1E9000116F0C7FB044685
:105E10000B46D7E7AFF300809C7500883CE4377EE3
:105E2000182D4454FB21F93F075C143326A6913CFE
:105E300009F7FD0DE13D023F88B20175E0EF493FF2
:105E40003B8F68B52882A43F5544880E55C1C93F91
:105E50007D6FEB0312D6D43F555555555555C53F6B
:105E600082922EB1C5B8B33F59018D1B6C06E63F37
:105E7000C88A599CE52A00404B2D8A1C273A0340CA
:105E8000182D4454FB21E93FFFFFEF3FFFFFDF3FA9
:105E90000000F03F0000E03F3233EF3F02460B4688
:105EA00016F030FD38A3D3E9002306460F4616F05E
:105EB00029FD37A3D3E9002316F072FB32463B4697
:105EC00016F020FD34A3D3E9002316F067FB324619
:105ED0003B4616F017FD32A3D3E9002316F060FB12
:105EE00032463B4616F00EFD2FA3D3E9002316F0F1
:105EF00055FB32463B4616F005FD2DA3D3E90023A2
:105F000016F04EFB32463B4616F0FCFC2AA3D3E9C2
:105F10000023804689463046394616F0F3FC28A314
:105F2000D3E9002316F03AFB32463B4616F0EAFC72
:105F300025A3D3E9002316F033FB32463B4616F087
:105F4000E1FC23A3D3E9002316F028FB32463B46AD
:105F500016F0D8FC0022204B16F022FB02460B461E
:105F60004046494616F0F8FD22462B4616F0CAFC7C
:105F700022462B4616F014FB04460B4620461946D3
:105F800004B0BDE8F08700BF09F7FD0DE13D023F19
:105F900088B20175E0EF493F3B8F68B52882A43F86
:105FA0005544880E55C1C93F7D6FEB0312D6D43FCF
:105FB000555555555555C53F82922EB1C5B8B33F7D
:105FC00059018D1B6C06E63FC88A599CE52A0040A2
:105FD0004B2D8A1C273A03400000F03F00000000D0
:105FE0002DE9F84F5442144323F00049704E49EA1A
:105FF000D474B44286460F4640D84442044321F04C
:10600000004B4BEAD474B4428A4637D803F140447B
:1060100004F5801414434AD09C1704F0020444EAA7
:10602000D17450EA0B0131D052EA090137D0B145A1
:1060300052D0B34533D0ABEB09094FEA2959B9F136
:106040003C0F3BDC002B66DB7046394616F084FDC6
:1060500017F0D2F9FEF7C8FC012C58D0022C48D01A
:10606000002C5ED040A3D3E9002316F097FA40A39A
:10607000D3E9002316F092FABDE8F88F10461946CE
:1060800072463B4616F08CFABDE8F88F022C19D008
:10609000032C10D138A1D1E90001BDE8F88FBAF185
:1060A000000F14DB36A1D1E90001BDE8F88FBDE88F
:1060B000F84FFEF799BC3946BDE8F88F30A1D1E919
:1060C0000001C9E72AA1D1E90001BDE8F88F2EA19E
:1060D000D1E90001BDE8F88FCB4524D0022CF1D0E6
:1060E000032CD7D0012C4FF0000027D00021BDE8B1
:1060F000F88F1DA3D3E9002316F050FA02460B4691
:106100001BA1D1E9000116F049FABDE8F88F01F1B1
:106110000041BDE8F88F19F13C0F95DA002000210D
:106120009AE7BDE8F88F022C16D0032C0FD0012C73
:1061300008D017A1D1E90001BDE8F88F4FF0004168
:10614000BDE8F88F14A1D1E90001BDE8F88F14A1D2
:10615000D1E90001BDE8F88F13A1D1E90001BDE844
:10616000F88F00BFAFF30080075C143326A6A13C74
:10617000182D4454FB210940182D4454FB2109C01B
:10618000182D4454FB21F93F182D4454FB21F9BF2D
:10619000182D4454FB21E93F182D4454FB21E9BF3D
:1061A000D221337F7CD902C0D221337F7CD90240F7
:1061B0000000F07F0000000043422DE9F047034358
:1061C00021F00048424A48EAD373934206460F46FC
:1061D00016D890454BD03F4B98458A461EDC3AA3D3
:1061E000D3E90023044616F0DBF90022002316F061
:1061F00019FE002845D03B4620461946BDE8F087E9
:1062000002460B4616F0CAF90B46024616F0A4FCED
:1062100004460B4620461946BDE8F0872E4B9845AC
:10622000044645462FDD02464346414616F0B8F97E
:10623000224606460F4643460020254916F0AEF991
:1062400002460B463046394616F086FCFEF78CFEB9
:10625000224B002216F056FBBAF1000F04460B4603
:10626000D8DA01F1004320461946BDE8F087002244
:10627000002316F071FC04460B4620461946BDE883
:10628000F0873446454622462B462046294616F0DE
:1062900087F922462B4606460F4616F033FB224668
:1062A000804689462B460020094916F077F90246B8
:1062B0000B464046494616F04FFC32463B4616F028
:1062C0006FF9C3E7AFF300809C7500883CE4377E2C
:1062D0000000F03FFFFF2F3EFFFFDF3F0000E03FE9
:1062E0004F4A2DE9F84321F0004494420B460546FD
:1062F0001BDC4C4A944222DD4B4A944263DD4B4AFC
:1063000094427BDD4A4A944246DD0132944240D0B9
:1063100041A3D3E900231046194616F0F3FA0646C6
:106320000F4630463946BDE8F88302460B4616F064
:10633000E9FA06460F4630463946BDE8F88317F0BD
:106340005BF802F0A9FC00223A4B8046894616F021
:1063500027F9B4F1725F06460F46ECDB42464B4626
:106360004046494616F0CEFA32463B4604460D46B4
:106370003046394616F014F902460B4620462946A7
:1063800016F0EAFB00222B4B16F00AF906460F46E0
:10639000D1E7294A9042BBD82846194617F02CF875
:1063A0000022264B16F0AEFA00F04AF8002204460E
:1063B0000D46224B16F0A6FA22462B4616F0A2FAFC
:1063C00006460F46B7E717F017F800F039F8002235
:1063D0001A4B06460F4616F095FA32463B460446DF
:1063E0000D460020154916F0B7FB02460B46204625
:1063F000294616F0D5F806460F469CE716F0FCFF36
:1064000000F01EF800220D4B16F07CFA06460F46EF
:1064100091E700BFAFF300809C7500883CE4377EB5
:10642000FFFFEF7F422ED63FFFFF3540412E8640D3
:10643000CD3386400000F03F7DF8B98F0000E03F8B
:106440002DE9F04FB04F21F00042BA4283B00C4624
:106450004FEAD17605460DD9AC4FBA4225D9C1F3E2
:106460001303034340F0EF800EB10020014603B058
:10647000BDE8F08FA64B9A4200F2CC80A54B9A4221
:1064800000F2DE808AA3D3E9002316F089F8002207
:10649000A14B16F0C7FC002800F0058128462146D4
:1064A00000229D4B16F07CF8E1E783A3D3E900239B
:1064B00016F0B8FC002840F0CB802846214680A387
:1064C000D3E9002316F090FC0028CED1934B284648
:1064D00003EBC60621467CA3D3E9002316F012FA8B
:1064E000D6E9002316F05CF816F0BCFC804616F0E6
:1064F000A3F977A3D3E9002306460F4616F002FA64
:1065000002460B462846214616F048F872A3D3E906
:106510000023CDE900013046394616F0F3F98246F2
:106520008B4652465B46DDE9000116F037F805461A
:106530000C462A4623462846214616F0E3F968A36E
:10654000D3E9002306460F4616F0DCF966A3D3E92B
:10655000002316F023F832463B4616F0D3F964A325
:10656000D3E9002316F01CF832463B4616F0CAF970
:1065700061A3D3E9002316F011F832463B4616F02A
:10658000C1F95FA3D3E9002316F00AF832463B466F
:1065900016F0B8F902460B462846214615F0FEFFD4
:1065A00006460F462846214632463B46B8F1000FC4
:1065B00056D016F0A7F9324604460D463B46002059
:1065C0004FF0804115F0EAFF02460B46204629466F
:1065D00016F0C2FA02460B465046594615F0DEFF49
:1065E000DDE9002315F0DAFF0B4602464A49002098
:1065F00015F0D4FF6FF47F7398454FDA08F57A7879
:1066000001EB085100224FF0B87316F07BF903B08C
:10661000BDE8F08F424B9A423FF658AF414BF40031
:106620002344D3E9002315F0B9FF3F4BC6F101081D
:106630002344CDE90001D3E900ABA8EB060870E7DD
:106640004FF0000875E702460B4615F0A9FF0EE76C
:1066500017A3D3E900231046194616F053F906E7AD
:1066600016F050F90022804689464FF080433046AC
:10667000394615F093FF02460B464046494616F050
:106680006BFA2A46234615F089FF02460B46002086
:10669000214915F083FF03B0BDE8F08F01EB0851ED
:1066A00003B0BDE8F08F804643E700BFAFF3008042
:1066B0009C7500883CE4377EEF39FAFE422E864016
:1066C00051302DD5104987C0FE822B654715F73F05
:1066D0000000E0FE422EE63F763C7935EF39EA3D98
:1066E000D0A4BE726937663EF16BD2C541BDBB3ED8
:1066F0002CDE25AF6A56113F93BDBE166CC1663FB6
:106700003E5555555555C53F412E8640FFFFEF7FFD
:10671000422ED63FFFFF2F3E0000F03F60060200F2
:10672000B1A2F03F700602008006020000000000E7
:106730002DE9F04FB1F5801F85B006460F460B4698
:106740005ADA024621F00044224300F0F880002982
:10675000C0F27A810022D64B16F0D4F8D54A0B4607
:10676000934206460F466FF0350C4ADCC3F313051F
:1067700005F5152E0EF6647E0EF4801E8EF07F5207
:1067800082F440121C1542EA0507A4F2FF34644467
:106790000022C94B3046394604EB1E5415F0FEFE6C
:1067A000AB1CC3F31303022B82468B464FF000024F
:1067B00030DC002316F00EFB002800F0C980002C0E
:1067C00000F04B81204616F037F8A5A3D3E900234B
:1067D00006460F4616F096F8A3A3D3E90023044615
:1067E0000D463046394616F08DF802460B462046D7
:1067F000294615F0D5FE0AE0AE4A93424FF0000C50
:10680000B4DD32463B463046394615F0C9FE05B088
:10681000BDE8F08F4FF0804315F0C2FE02460B46F4
:106820005046594616F098F9064620460F4616F08F
:1068300003F83246CDE900013B4630463946CDE902
:10684000026716F05FF802460B468046894616F04E
:1068500059F887A3D3E9002306460F4616F052F8ED
:1068600085A3D3E9002315F09BFE32463B4616F084
:1068700049F883A3D3E9002315F092FE32463B4644
:1068800016F040F880A3D3E9002315F089FE4246B4
:106890004B4616F037F87EA3D3E90023804689469D
:1068A0003046394616F02EF87BA3D3E9002315F0C5
:1068B00077FE32463B4616F025F879A3D3E900234C
:1068C00015F06EFE32463B4616F01CF80B460246AB
:1068D0004946404615F064FEA5F5C223C5F5D72507
:1068E000A3F27A4351351D43002D8046894656DD7B
:1068F0000022724B5046594616F004F852465B4649
:1069000016F000F806460F46002C68D132463B468A
:106910004046494615F044FEDDE9022315F0F2FF3A
:1069200002460B463046394615F038FE02460B4605
:106930005046594615F032FE05B0BDE8F08F0022F2
:10694000002300205E4916F007F905B0BDE8F08F7E
:1069500055A3D3E900235046594615F0D3FF02460C
:106960000B460020554915F019FE524606460F46C3
:106970005B465046594615F0C5FF02460B46304669
:10698000394615F0BFFF06460F46002C40F09A80AE
:1069900002460B465046594615F000FE37E7002CDC
:1069A00000F0A4802EA3D3E90023DDE9000115F057
:1069B000A9FF42464B4604460D465046594615F03F
:1069C000EDFDDDE9022315F09DFF27A3D3E90023A8
:1069D00006460F46DDE9000115F094FF21E020A3F3
:1069E000D3E90023DDE9000115F08CFF32463B4678
:1069F00004460D464046494615F0D2FDDDE9022326
:106A000015F080FF18A3D3E9002380468946DDE90D
:106A1000000115F077FF02460B464046494615F047
:106A2000BFFD02460B463046394615F0B7FD5246CB
:106A30005B4615F0B3FD02460B462046294615F08D
:106A4000ADFD05B0BDE8F08F02460B4615F0A6FD82
:106A50000022002316F080F8D9E600200021D6E6B7
:106A60000000E0FE422EE63F763C7935EF39EA3D04
:106A700044523EDF12F1C23FDE03CB966446C73F6D
:106A8000599322942449D23F935555555555E53F86
:106A90009FC678D0099AC33FAF788E1DC571CC3F91
:106AA00004FA97999999D93F555555555555D53F5C
:106AB00000005043FFFFEF7F0000F03F0000E03F89
:106AC000000050C3204615F0B7FE0FA3D3E9002302
:106AD0008046894615F016FF0DA3D3E9002304462E
:106AE0000D464046494615F00DFF9AE702460B4613
:106AF0005046594615F052FDDDE9022315F002FF1C
:106B000014E700BFAFF300800000E0FE422EE63F36
:106B1000763C7935EF39EA3DB1F5801F2DE9F84330
:106B200004460D460B461ADA024621F0004632436F
:106B300059D000295FDB00223B4B15F0E3FE3B4AB6
:106B40000B4693420D4604466FF035010CDD22469C
:106B50002B462046294615F023FDBDE8F883334A2D
:106B600093424FF00001F2DC1815A0F2FF30084408
:106B70004FEAD0794844C3F3130815F05DFEC9F518
:106B80007F73033348EA035506460F4620462946DD
:106B9000FFF7CEFD1EA3D3E9002380468946304689
:106BA000394615F0AFFE1CA3D3E9002304460D4679
:106BB0004046494615F0A6FE02460B4620462946A9
:106BC00015F0EEFC16A3D3E9002304460D4630462B
:106BD000394615F097FE02460B462046294615F029
:106BE000DFFCBDE8F883002200230020104915F0E7
:106BF000B3FFBDE8F88302460B4615F0CFFC002238
:106C0000002315F0A9FFBDE8F88300BFAFF30080B3
:106C1000362BF111F3FE593D0EE526157BCBDB3FFC
:106C200000609F501344D33F00005043FFFFEF7FAD
:106C3000000050C3000000002DE9F04F23F0004792
:106C400057EA020493B037D0674C21F00046A642C1
:106C500083460D4629DC9A46964625D0A74224DC79
:106C6000614CA74279D0002D89468046CDE90023AA
:106C700077DB0024BEF1000F2CD15B4B9F4200F06C
:106C80008B805A4B9F4261D0BAF1804F00F0BA839B
:106C9000574B9A451ED1002D1CDB4046494613B088
:106CA000BDE8F04F17F0C6BB58B106F1404606F5F7
:106CB000801656EA0B0306D14C49002013B0BDE8FC
:106CC000F08FB742CCDD4B4813B0BDE8F04F18F061
:106CD000F7BA00244046494616F08EFBBBF1000F80
:106CE00019D126B1414B25F040429A4213D1BAF155
:106CF000000FC0F2BC83002DE0DA06F1404606F535
:106D0000801656EA040300F08F84012CD6D101F1DD
:106D100000431946D2E7ED0F013D54EA05034ED07A
:106D2000354B9F426EDD03F104739F4240F3E883CD
:106D3000324B9E424EDDBAF1000F4EDD28A3D3E95F
:106D400000231046194615F0DDFDB7E7BAF1000F34
:106D5000C0F23C8440464946B0E7BEF1000F82D005
:106D6000A3E7274B9F4228DCA3F154739F4280DDA9
:106D70003B15A3F2FF33142B40F33E84C3F13403DD
:106D80002EFA03F202FA03F39E457FF472AF02F08B
:106D90000102C2F102046DE706F1404303F58013DE
:106DA00053EA0B0388D0154B9E4240F33283BAF16D
:106DB000000F12DBDDE9000180E702245AE74246BA
:106DC0004B464046494615F0E9FB02460B4615F096
:106DD000C3FE73E7BAF1000FB0DB002000216DE7BE
:106DE0009C7500883CE4377E0000F07F0000F03F97
:106DF0000000E03FE80E02000000E041FFFFEF3F2F
:106E0000FFFF3F43B6F5801F4FF0000205DAD44B79
:106E100015F078FD6FF034020E463315D14FC6F3EE
:106E20001306A3F2FF33134446F07F5ABE421A46BC
:106E30000D934AF4401A40F32183CB4B9E4240F31A
:106E4000FD83134601330D93C84B0022CDE9062381
:106E500000270026CDE90867CDE90E67AAF5801A5C
:106E60000027024653465146CDE90A23DDE90623B1
:106E700015F094FBDDE9062380468946DDE90A0129
:106E800015F08EFB02460B460020B84915F064FE53
:106E90000A460146CDE910121346494602464046CD
:106EA00015F030FD4FEA6A0343F000538C468346E9
:106EB00003F50023CDE904BCDA468B46D91900233B
:106EC000CDE902AB0293DDE902AB002006460F4696
:106ED00002460B465046594615F014FD02460B4635
:106EE0004046494615F05AFBDDE9062380468946AF
:106EF0003046394615F052FB02460B46DDE90A01E1
:106F000015F04CFB52465B4615F0FCFC02460B4666
:106F10004046494615F042FBDDE9102315F0F2FC2E
:106F2000DDE90467CDE9060132463B463046394685
:106F300015F0E8FC78A3D3E9002306460F4615F0C8
:106F4000E1FC77A3D3E9002315F02AFB32463B4648
:106F500015F0D8FC74A3D3E9002315F021FB3246C9
:106F60003B4615F0CFFC72A3D3E9002315F018FBC4
:106F700032463B4615F0C6FC6FA3D3E9002315F05B
:106F80000FFB32463B4615F0BDFC6DA3D3E9002351
:106F900015F006FB3246804689463B463046394668
:106FA00015F0B0FC02460B464046494615F0AAFCD7
:106FB000524606460F465B46DDE9040115F0F0FA3D
:106FC000DDE9062315F09EFC32463B4615F0E8FA53
:106FD0005246804689465B465046594615F092FC1B
:106FE0000022634BCDE90A0115F0DAFA42464B461E
:106FF00015F0D6FA02980F46064632463B465046F2
:10700000594615F07FFC002282468B46584B30468D
:10701000394615F0C3FADDE90A2315F0BFFA024636
:107020000B464046494615F0B9FADDE9042315F050
:1070300069FC3246804689463B46DDE9060115F08B
:1070400061FC02460B464046494615F0A9FA8046C7
:10705000894602460B4650465946CDE904AB15F029
:107060009FFADDE902AB38A3D3E9002350460F466F
:1070700015F048FCDDE90423CDE90201394650460C
:1070800015F08CFA02460B464046494615F086FA42
:107090002FA3D3E9002315F035FC2FA3D3E9002358
:1070A000804689465046394615F02CFC02460B4670
:1070B0004046494615F074FADDE90E2315F070FAE2
:1070C00080460D98894615F0B7FB424606460F46A6
:1070D0004B46DDE9020115F063FADDE9082315F0FE
:1070E0005FFA32463B4615F05BFA32463B46504665
:1070F0008B4615F053FADDE9082315F04FFADDE968
:10710000022315F04BFA02460B464046494615F05D
:1071100045FA80462EE000BFEF4E454A287ECA3F22
:1071200065DBC9934A86CD3F01411DA96074D13FFB
:107130004D268F515555D53FFFAB6FDBB66DDB3F0D
:10714000033333333333E33F000000E009C7EE3F3E
:10715000FD033ADC09C7EE3FF5015B14E02F3EBEAC
:10716000000040438E98030079B60B000000F03F0A
:10717000000008408946013C54EA0503DDE90001AE
:1071800014BFD94CD94C0023CDE9043403460C4636
:10719000CDE9023400230293DDE9024522462B4665
:1071A00015F0FCF952465B4615F0ACFBDDE9002317
:1071B00006460F464046494615F0A4FB02460B46DC
:1071C0003046394615F0ECF92246804689462B4672
:1071D00050465946CDE9008915F094FB0B4602460E
:1071E00006460F464046494615F0DAF9C04B99422B
:1071F00004460D468A4640F3168101F13F4303F5EC
:10720000E003034340F0EA81A3A3D3E90023DDE9CF
:10721000000115F0C5F93246804689463B462046B6
:10722000294615F0BBF902460B464046494615F083
:10723000F9FD002840F0D281A8464FEA28534FF4C8
:107240008012A3F2FE3342FA03F35344C3F30A520B
:10725000A84DA2F2FF321541C3F3130423EA05013E
:107260000020C2F1140B44F48014BAF1000F02465E
:107270000B4644FA0BFB30463946B8BFCBF1000B46
:1072800015F08CF902460B4606460F46DDE9000173
:1072900015F086F94FEA0B5A0D46002480A3D3E976
:1072A00000232046294615F02DFB324680468946AC
:1072B0003B462046294615F071F902460B46DDE9AA
:1072C000000115F06BF978A3D3E9002315F01AFB40
:1072D00077A3D3E9002306460F462046294615F03A
:1072E00011FB02460B463046394615F059F9064661
:1072F0000F4602460B464046494615F051F94246B4
:107300004B4604460D4615F049F902460B463046F9
:10731000394615F043F92246804689462B462046D9
:10732000294615F0EFFA64A3D3E9002306460F4679
:1073300015F0E8FA62A3D3E9002315F02FF93246DD
:107340003B4615F0DFFA60A3D3E9002315F028F9D6
:1073500032463B4615F0D6FA5DA3D3E9002315F07B
:107360001DF932463B4615F0CDFA5BA3D3E9002365
:1073700015F016F932463B4615F0C4FA02460B46A4
:107380002046294615F00AF906460F4602460B46E6
:107390002046294615F0B6FA0022CDE900014FF04B
:1073A00080433046394615F0F9F802460B46DDE9D0
:1073B000000115F0D1FB424606460F464B462046DB
:1073C000294615F09FFA42464B4615F0E9F8024669
:1073D0000B463046394615F0E1F822462B4615F0AB
:1073E000DDF802460B4600203F4915F0D7F88A44E5
:1073F000BAF5801FC0F233815146DDE9042315F050
:1074000081FA5BE4424640464B46494615F07AFA1B
:1074100054E4BAF1000FBFF6E0ACDDE900341846E1
:1074200004F100414AE4344B21F00048984540F310
:10743000F280324B0B4403430CD132463B4615F0ED
:10744000ADF802460B46DDE9000115F0D7FC002837
:107450003FF4F3AEDDE9040121A3D3E9002315F0E5
:1074600051FA1FA3D3E9002315F04CFA26E4024693
:107470000B4600201C4915F06FFB3CE40022002362
:10748000CDE90823CDE90E23174B00220027CDE9D3
:107490000623E6E4AFF30080FE822B654715973C98
:1074A00000000000432EE63FEF39FAFE422EE63F91
:1074B000396CA80C615C20BED0A4BE726937663EF0
:1074C000F16BD2C541BDBB3E2CDE25AF6A56113FE4
:1074D00093BDBE166CC1663F3E5555555555C53FCB
:1074E00059F3F8C21F6EA5010000F03F0000F0BF85
:1074F000FFFF8F40FFFF0F00FFCB904000346F3F36
:107500006B4B9E427FF766AC6A4B9E423FF713ACD3
:107510000022684B15F042F857A3D3E90023064632
:107520000F4615F0EFF956A3D3E9002380468946AC
:107530003046394615F0E6F9002282468B465E4B0E
:107540003046394615F0DEF902460B464EA1D1E928
:10755000000115F023F832463B4615F0D3F90246F8
:107560000B460020554915F019F83246CDE90201C5
:107570003B463046394615F0C5F902460B46DDE973
:10758000020115F0BFF942A3D3E9002315F0BAF9BF
:1075900002460B465046594615F000F802460B4687
:1075A00006460F464046494614F0FAFF42464B460F
:1075B000002082468B4614F0F1FF02460B4630460F
:1075C000394614F0EBFF80468946D4E542464B46E7
:1075D0000020384915F0C0FAFFF770BBDDE904015F
:1075E0002DA3D3E9002315F08DF92BA3D3E90023B4
:1075F00015F088F9FFF762BBBEF1000F7FF469ABAD
:10760000C3F1140347FA03F202FA03F39F422AD0AC
:107610007446FFF736BB294B98453FF70EAEDDE9C0
:1076200002239246934638E602460B4614F0B6FF14
:1076300002460B4615F090FAFFF740BB18A3D3E9BA
:107640000023CDE9082318A3D3E90023CDE90E23B5
:107650001B4B00224FF48027CDE9062301E45A4654
:1076600001F05AFDC9E602F00102C2F10204FFF77F
:1076700008BB00BFAFF30080000000604715F73F74
:1076800044DF5DF80BAE543E555555555555D53F25
:10769000FE822B654715F73F9C7500883CE4377EDA
:1076A0000000004003B8E23F06D0CF43EBFD4C3E64
:1076B000FEFFEF3F0000F03F0000D03F0000E03F42
:1076C0000000F83F000000002DE9F04F9A4E21F035
:1076D0000047B74291B040F38E809246974A974256
:1076E0000C4626DC00298AA3D3E9002340F3B481A9
:1076F00014F054FF924B9F4204460D4600F09080D8
:1077000085A3D3E9002314F049FF02460B46CAE9DA
:1077100000232046294614F041FF7FA3D3E900232C
:1077200014F03CFF0125CAE90201284611B0BDE86A
:10773000F08F844A974240F39080834A974265DCF9
:107740003D15A5F21645A7EB055319461F460646FB
:1077500015F088FB15F070F88046894602460B4606
:1077600030463946CDE90A8914F018FF0022774BDC
:1077700015F0C8F88946804615F074FB15F05CF8E2
:1077800002460B4606460F4640464946CDE90C6781
:1077900014F004FF00226D4B15F0B4F80022002312
:1077A000CDE90E0115F016FB002800F073810023CF
:1077B00030463946002215F00DFB002814BF012386
:1077C0000223634A019202212A4600910AA85146E7
:1077D00000F086FB002C054614DADAF80420DAF80B
:1077E0000C3002F1004203F100434542CAF8042084
:1077F000CAF80C3006E0C2E9000100250024C2E905
:1078000002450025284611B0BDE8F08F02460B4620
:1078100014F0C4FE0025CAE90201CAE90001F1E73B
:107820003FA3D3E9002314F0B9FE3FA3D3E900231B
:107830000D46044614F0B2FE02460B46CAE9002388
:107840002946204614F0AAFE37A3D3E9002314F0FA
:10785000A5FE0125CAE90201D4E715F0CDFD34A348
:10786000D3E900238046894615F04CF80022394BB5
:1078700014F096FE15F0F6FA054614F0DDFF24A389
:10788000D3E90023CDE9040115F03CF802460B468C
:107890004046494614F082FE1FA3D3E900238046E8
:1078A0008946DDE9040115F02DF81F2DCDE902010F
:1078B00054DC294B6A1E53F822309F424ED00246B8
:1078C0000B464046494614F069FE02460B46CAE99B
:1078D000002383460E465A4633464046494614F036
:1078E0005DFEDDE9022314F059FE002C02460B4632
:1078F000CAE9022386DA5B4606F1004601F100413F
:107900008AE84800CAF80C10CAF808006D4279E706
:1079100000004054FB21F93F3163621A61B4D03D4D
:107920000000601A61B4D03D7370032E8A19A33B26
:1079300083C8C96D305FE43FFB21E93F7BD902403A
:10794000FB21F93FFB213941FFFFEF7F0000704130
:10795000581D02000000E03FD81C0200DDE90223B0
:107960004046494614F01AFE3A15C1F30A53D31A99
:10797000102B83460E460992CAE90001ABDD58A3DD
:10798000D3E90023DDE9040114F0BCFF06460F46ED
:1079900002460B464046494614F000FECDE906017A
:1079A00002460B464046494614F0F8FD32463B4637
:1079B00014F0F4FD4CA3D3E9002306460F46DDE99D
:1079C000040114F09FFF32463B4614F0E7FDDDE969
:1079D0000689CDE9020102460B464046494614F0AD
:1079E000DDFD0B46C1F30A570E460999CF1B02462F
:1079F000312F8346CAE900236CDD3DA3D3E9002380
:107A0000DDE9040114F07EFF06460F4602460B46F0
:107A100040464946CDE9068914F0C0FD02460B46B2
:107A200080468946DDE9060114F0B8FD32463B4642
:107A300014F0B4FD30A3D3E9002306460F46DDE978
:107A4000040114F05FFF32463B4614F0A7FD0246E6
:107A50000B46CDE9022334E714F0A2FD2A4B9F42E6
:107A600004460D4618D026A3D3E9002314F098FD50
:107A700002460B46CAE900232946204614F08EFD33
:107A80001FA3D3E9002314F08BFD4FF0FF35CAE9A3
:107A90000201B7E6032394E611A3D3E9002314F00F
:107AA0007FFD11A3D3E900230D46044614F078FDB1
:107AB00002460B46CAE900232946204614F06EFD13
:107AC00009A3D3E9002314F06BFD4FF0FF35CAE999
:107AD000020197E6DDE90689FDE600BFAFF300800D
:107AE0000000601A61B4D03D7370032E8A19A33B65
:107AF0000000002E8A19A33BC14920259A837B39B7
:107B00003163621A61B4D03DFB21F93F00000000EF
:107B1000574A2DE9F84F21F0004890450E46074698
:107B20002BDC544B0029B4BF534D544D98454FF0B6
:107B3000000410DC524B98456EDC4BA3D3E90023C4
:107B400014F02EFD00224F4B15F06CF9D8B13846D9
:107B50003146BDE8F88F4C4B984579DD4B4B984545
:107B600043DD013398453DD0384631463EA3D3E945
:107B7000002314F0C7FEBDE8F88F02460B4614F050
:107B80000FFDBDE8F88F3846314615F035FC01F0A1
:107B900083F806460F4632463B463046394614F0D7
:107BA000FFFC324682468B463B463046394614F04F
:107BB000A9FE002280468946324B3046394614F0F1
:107BC000EFFC02460B464046494614F0C5FF02460C
:107BD0000B465046594614F0E1FC22462B4614F061
:107BE00091FECEE72A4B9842BED83846314615F072
:107BF00003FC0022214B14F085FEFEF721FC064613
:107C00000F4602460B462046294614F07BFE3246BC
:107C10003B4614F077FEB4E715F0EEFB01F03CF8BC
:107C20001C4B984506460F46B5DD0022154B14F057
:107C3000B7FC02460B463046394614F08DFF3246FB
:107C40003B4614F0ADFC22462B4614F05BFE98E751
:107C500015F0D2FBFEF7F4FB02460B462046294600
:107C600014F050FE8DE700BF3374AC3C1F7BAC7F3B
:107C7000FFFFEF7FFFFF35400000E0BF0000E03F67
:107C8000FFFF2F3E0000F03F412E8640CD3386405F
:107C90007DF8B98FFFFFEF3F2DE9F04F21F000464F
:107CA000B6F1795F85B00C4692469B4605466BDA85
:107CB00015F0D8F8002800F0E8802A462346284628
:107CC000214614F01FFE74A3D3E9002380468946A1
:107CD00014F018FE72A3D3E9002314F061FC4246AD
:107CE0004B4614F00FFE70A3D3E9002314F056FCAA
:107CF00042464B4614F006FE6DA3D3E9002314F070
:107D00004FFC42464B4614F0FDFD6BA3D3E9002324
:107D100014F044FC42464B4614F0F4FD68A3D3E94A
:107D2000002314F03DFC42464B4614F0EBFDCDE938
:107D300000010022644B4046494614F0E3FDDDE9B2
:107D4000002306460F464046494614F0DBFD5246E6
:107D5000804689465B462846214614F0D3FD0246FC
:107D60000B464046494614F019FC02460B46304685
:107D7000394614F013FC02460B460020534914F018
:107D80000DFC05B0BDE8F08F02460B4614F0BAFDBD
:107D900041A3D3E900238046894614F0B3FD40A3F4
:107DA000D3E9002314F0FCFB42464B4614F0AAFD35
:107DB0003DA3D3E9002314F0F1FB42464B4614F0F7
:107DC000A1FD3BA3D3E9002314F0EAFB42464B4656
:107DD00014F098FD38A3D3E9002314F0DFFB4246EA
:107DE0004B4614F08FFD36A3D3E9002314F0D8FBE3
:107DF0004B46424614F086FD354B9E42CDE90001CC
:107E000097DD344B9E424FF0000238DCA6F500139C
:107E100000202E4916461F4614F0C0FBCDE9020192
:107E20000022294B4046494614F06CFD32463B4641
:107E300014F0B4FBDDE9002306460F4640464946F0
:107E400014F060FD5246804689465B46284621462E
:107E500014F058FD02460B464046494614F09EFB7E
:107E600002460B463046394614F098FB02460B4654
:107E7000DDE9020114F092FB05B0BDE8F08F164B6E
:107E8000164FCDE902230026CAE71049002005B0AD
:107E9000BDE8F08FAFF30080D43888BEE9FAA8BD02
:107EA000C4B1B4BD9EEE213EAD529C804F7E923E49
:107EB0009015CB19A001FA3E7751C1166CC1563FFF
:107EC0004C5555555555A53F0000E03F0000F03F8B
:107ED0003233D33F0000E93F0000E73F0000D23FCC
:107EE0002DE9F04FADF5197D9C4CA29E9C4D54F8A8
:107EF000264005942646D41E85FB0475E417C4EB82
:107F0000A50424EAE4741D460893631CA3EB8303D1
:107F1000013D02EBC30304932B4609940295651BB4
:107F2000F418039006911AD42C4401340DF178080A
:107F300000260027DDF88C9208E059F8250014F09F
:107F40007BFC0135A542E8E9020108D0002DF4DAF6
:107F5000013530463946A542E8E90201F6D1059BD4
:107F6000002B2EDB089B4FEAC309039BA9F10808ED
:107F7000984420AB9944059B70AA02EBC30B0DF506
:107F8000DC7A029B002BC0F20F83039B4D46A3F1CA
:107F900008040026002775E90223F4E9020114F021
:107FA000B1FC02460B463046394614F0F9FA444516
:107FB00006460F46EFD1EAE90267DA4509F10809FA
:107FC000DFD10598089A009000F18043013B9B00A7
:107FD0000CAC191F234402F100520B93039B013A8E
:107FE00021440A9103EBC20B009A98A901EBC2034A
:107FF000002A53E9284513462BDD01EBC308A8F1FD
:10800000A8080DF12C090DF5DC7A0022554B20460D
:10801000294614F077FC14F025FF14F00DFC002223
:10802000514B06460F4614F06DFC02460B462046A7
:10803000294614F0B3FA14F015FF78E8022349F842
:10804000040F3946304614F0ABFAD04504460D46CD
:10805000DBD1DDF81090204629464A4601F05CF855
:1080600000224FF07F5304460D4614F04BFCFCF702
:10807000EFFE00223D4B14F045FC02460B46204625
:10808000294614F08BFA0D46044614F0EBFE8046A8
:1080900014F0D2FB0B4602462946204614F07EFA25
:1080A0004B46002B06460F4640F3F780009A0CA97A
:1080B000013AC9F1180351F8225045FA03F101FAC7
:1080C00003F30CA8EB1A40F82230C9F117058844D5
:1080D00043FA05F5002D63DD009B002B08F1010834
:1080E00040F381820C9C002C00F0188301200023B7
:1080F0000CAAC4F1807442F82340009A824219DD30
:108100000CAA0CAC52F820106FF07F42511A44F8C0
:1081100020100099023399420CDD1046009A0CA9F8
:1081200001EB830301EB82011A68821A43F8042BE6
:108130008B42F9D1049B002B1ADD049B012B4FF0DD
:10814000010440F05882009B5A1E0CAB0CA953F856
:108150002230C3F3160341F8223058E2F82102001E
:10816000ABAAAA2A0000703E000070410000204027
:10817000022D15D132463B460020974914F00EFAE5
:1081800006460F46049A9449002000F0C5FF0246B7
:108190000B463046394614F001FA022506460F46D2
:1081A000002200233046394614F014FE002800F067
:1081B0005282009A059B501E83420FDC02F18043DD
:1081C000013B0CAA0B9C02EB8303002253F8041919
:1081D000A34242EA0102F9D1002A6FD1059B0CAA01
:1081E000013B52F82330002B40F033820A9A0123DE
:1081F00052F8041901330029FAD0009AD31802F179
:10820000010A9A4507933DDC009B0899099A0B44A3
:1082100007990AEB0208994620AB08F1804803EB66
:10822000C9098B18A39A08F1FF3802EB880870AAD5
:1082300002EBCA0AA39A02EB8303009358F8040FD7
:1082400014F0FAFA029B002BE9E802011DDB039B04
:108250004D46A3F108040026002775E90223F4E93E
:10826000020114F04FFB02460B463046394614F02B
:1082700097F95C4506460F46EFD1009B9845EAE822
:108280000267DBD1079B0093AEE6009B0026002728
:108290009845EAE80267D1D1F4E706D1009B0CAA21
:1082A000013B52F82350ED1514E700224B4B14F01C
:1082B000AFFD002840F08281054671E70CA90295C8
:1082C00051F820300499CDF81C80183902460090EE
:1082D00004916BB900F18043013B0CA800EB8303D0
:1082E00053F80409013A18390028F9D00092049192
:1082F000049A3949002000F00FFF009B002B044630
:108300000D46C0F20382DA0070A901EB020B049261
:108310000CAA02EB8306DFF8C8900BF108070436BD
:108320004FF0000856F8040D14F086FA22462B464A
:1083300014F0E8FA4B4667E9020142462046294616
:1083400014F0E0FA0CAB9E4204460D46EAD10DF55E
:10835000907ACDF80CA0DDF814A04FF00009BAF126
:10836000000FC0F23D81DFF87C805D4618A1D1E9A5
:10837000000100260027002403E04C4510DCF8E84B
:108380000201F5E8022314F0BDFA02460B4630461E
:10839000394614F005F90134A24506460F46ECDAD9
:1083A000039B03EBC903ABF1080BC3E900676EAB9A
:1083B0005B4509F10109D2D1A29BDDF80CA0032B8A
:1083C00000F28B80DFE813F0D100900090001000E5
:1083D00000000040FB21F93F0000F03F0000E03FBB
:1083E0000000703EA8060200009B002B40F3A48111
:1083F000049B0AEB0308D8E90067D34658E9029AC0
:1084000032463B464846514614F0CAF804460D46EB
:1084100002460B464846514614F0C0F832463B46E9
:1084200014F0BEF8C8E9000168E90245C3452646D4
:108430002F46E3D1009B012BDA4640F37D81049B5C
:108440005B44D3E90067984699460DF5947B59E95A
:1084500002343246184621463B46CDE9000114F06D
:108460009FF804460D4602460B46DDE9000114F074
:1084700095F832463B4614F093F8C9E9000169E9E2
:108480000245CB4526462F46E1D1002308F10808D6
:108490001D464CAC1846294678E9022314F080F8B2
:1084A000444503460D46F5D1029A002A00F020818A
:1084B000DAF80440DAF80C20069FDAF80010DAF84F
:1084C00008003B6105F1004504F1004402F100425F
:1084D0007D617C60FA603960B860079B03F007003B
:1084E0000DF5197DBDE8F08F049C00260834544436
:1084F00033463046194674E9022314F051F85445C6
:1085000006460B46F5D1029A30461946002A00F07D
:10851000DA80069803F10044324644600660DAE9E6
:10852000000114F03BF80B460099002902460EDDCD
:10853000012410461946FAE9022314F031F80B46DB
:1085400000990134A1420246F3DA029909B103F11C
:1085500000431946069B1046C3E90201079B03F03E
:1085600007000DF5197DBDE8F08F049C002208344A
:10857000544413461046194674E9022314F010F8C7
:10858000A24502460B46F5D1029909B103F1004319
:108590001946069B1046C3E90001079B03F007003C
:1085A0000DF5197DBDE8F08F00260027EAE9026786
:1085B000DA4509F108097FF4E4AC02E5009B002BE1
:1085C00008F10108C8BF02253FF78CAD32463B4693
:1085D0000020634913F0E2FF022506460F46DFE55F
:1085E00000260027DCE6049B002B26DD0024049BEC
:1085F000012B3FF4A8AD022B09D1009B5A1E0CABF6
:108600000CA953F82230C3F3150341F82230022D90
:108610007FF4C6AD32463B460020514913F0BEFF01
:1086200006460F46002C3FF4BBADABE50099013385
:10863000994278D1049B002BD9DC022D7FF4B0AD98
:1086400032463B460020464913F0A8FF06460F4637
:10865000A6E50123D1E53946049F02957A423046CA
:10866000CDF81C8000F058FD00223E4B04460D461C
:1086700014F0CEFB002862D000223B4B2046294656
:1086800014F040F914F0EEFB064614F0D5F8002281
:10869000344B14F037F902460B462046294613F0B6
:1086A0007DFF14F0DFFB00990B4601331A4600935F
:1086B0003B46183304930B460CA941F8230013469C
:1086C00041F8236014E6069B3246C3E900010B46DD
:1086D000DAE9000113F062FF0B4600990029024617
:1086E0003FF726AF1946069B1046C3E9020135E75E
:1086F00018462946DAE90023DAE90245069FC7E968
:108700000401C7E90023C7E90245E6E6A29B032B63
:108710003FF6E3AEDFE803F0211C1C0E009B012BAB
:1087200088DD0CAA012352F8044F002C3FF47EAFE1
:10873000581CDDE40DF5907A00231D46B4E6294669
:10874000204614F08FFB009A0CA941F82200CFE5D7
:10875000002633460DF5907AD5E60022134613E73E
:108760000000F03F000070410000703E000000007B
:108770002DE9F04F21F00046B6F1795F85B00C4647
:1087800090469946054604DA14F06CFB002800F088
:1087900085802A4623462846214614F0B3F806462B
:1087A0000F4602460B462846214614F0ABF83EA37E
:1087B000D3E9002382468B463046394614F0A2F8AE
:1087C0003BA3D3E9002313F0E9FE32463B4614F005
:1087D00099F839A3D3E9002313F0E2FE32463B4671
:1087E00014F090F836A3D3E9002313F0D7FE3246F5
:1087F0003B4614F087F834A3D3E9002313F0D0FEEE
:108800000E9BCDE900019BB30022334B4046494605
:1088100014F078F8DDE90023CDE90201504659460D
:1088200014F070F802460B46DDE9020113F0B6FEC3
:1088300032463B4614F066F842464B4613F0AEFE15
:1088400023A3D3E9002306460F465046594614F0A9
:1088500059F802460B463046394613F0A1FE02464F
:108860000B462846214613F099FE05B0BDE8F08F6F
:1088700002460B463046394614F044F814A3D3E9B7
:10888000002313F08BFE52465B4614F03BF82A4659
:10889000234613F085FE05B0BDE8F08F284621463B
:1088A00005B0BDE8F08F00BF7CD5CF5A3AD9E53D81
:1088B000EB9C2B8AE6E55A3E7DFEB157E31DC73E91
:1088C000D561C119A0012A3FA6F810111111813FED
:1088D000495555555555C53F0000E03F0000000083
:1088E0002DE9F04FDA4C21F00046A64287B08A46C7
:1088F00089461746984683461ADC14F0B3FAA8BB9B
:108900005B461E43109B0133334300F0A981109B4B
:10891000012B00F0B9815A4653460020CD4914F08E
:108920001BF904460D462046294607B0BDE8F08FE6
:10893000C94B9E421ADD0029C0F29F815A46534618
:10894000A5A1D1E9000113F029FE3A4643460446A9
:108950000D46A3A1D1E9000113F020FE22462B46CB
:1089600013F01EFE002783468A46B8465A465346F1
:108970005846514613F0C6FF03460C46CDE9003475
:1089800002460B4613F0BEFFDDE9002304460D4608
:108990005846514613F0B6FF93A3D3E90023CDE91F
:1089A00002012046294613F0ADFF91A3D3E900232D
:1089B00013F0F6FD22462B4613F0A4FF8EA3D3E955
:1089C000002313F0EDFD22462B4613F09BFF8CA3F2
:1089D000D3E9002313F0E4FD22462B4613F092FF67
:1089E00089A3D3E9002313F0DBFD22462B4613F0C5
:1089F00089FF87A3D3E9002313F0D2FDDDE900232B
:108A000013F080FF84A3D3E90023CDE904012046BD
:108A1000294613F077FF82A3D3E9002313F0C0FDAA
:108A200022462B4613F06EFF7FA3D3E9002313F0F9
:108A3000B7FD22462B4613F065FF7DA3D3E9002343
:108A400013F0AEFD22462B4613F05CFF7AA3D3E968
:108A5000002313F0A5FD22462B4613F053FF78A305
:108A6000D3E9002313F09CFD02460B46DDE9040127
:108A700013F096FDDDE9022313F044FF3A46434626
:108A800013F08EFDDDE9002313F03CFF02460B4698
:108A90003846414613F084FD6BA3D3E90023044616
:108AA0000D46DDE9020113F02DFF22462B4613F09F
:108AB00077FD0B46024651465846CDE9002313F098
:108AC0006FFD654B9E4204460D463EDC109B012B1C
:108AD00036D002460B4600205E4914F03DF80024D3
:108AE0000F4606465A4653462046294613F056FD81
:108AF000A04602460B46DDE9000113F04FFD424659
:108B00003B4613F0FFFEA94604460D4642463B464F
:108B10004046494613F0F6FE0022504B13F040FD4C
:108B200002460B462046294613F03AFD32463B46A4
:108B300013F0E8FE42463B4613F032FD04460D4674
:108B40002046294607B0BDE8F08F109813F074FE58
:108B5000224606460F462B462046294613F0D2FEF3
:108B60003246CDE902013B462046294613F018FD66
:108B700002460B46DDE9020113F0EEFFDDE90023BA
:108B800013F00CFD02460B465846514613F006FD05
:108B900002460B4613F004FD02460B4630463946AA
:108BA00013F0FCFC04464FEAA97000F00200C0F18B
:108BB00001000D4613F040FE02460B4620462946B2
:108BC00013F0A0FE04460D462046294607B0BDE836
:108BD000F08F00BFAFF30080182D4454FB21E93F14
:108BE000075C143326A6813CD47ABF74702AFB3EFE
:108BF000E9A7F0320FB8123F68108D1AF726303F00
:108C00001583E0FEC8DB573F93846EE9E326823F7D
:108C1000FE41B31BBAA1AB3F735360DBCB75F3BE10
:108C2000A69237A0887E143F0165F2F2D844433FF4
:108C3000280356C9226D6D3F37D60684F464963FEB
:108C40007AFE10111111C13F635555555555D53F49
:108C5000FFFF2F3E0000F0BF2794E53F0000F03FEC
:108C60005846514614F0C8FB02460B4600200849FE
:108C700013F072FF04460D4662E701F1004308F16C
:108C8000004883469A4659E65C46554658E700BF79
:108C90000000F03F000000002DE9F04FD24A21F023
:108CA0000043934285B00C460E4605462DD9CF4A67
:108CB00093421AD8002E80F21681B5A3D3E900237F
:108CC0002846214613F06CFC0022002314F08CF897
:108CD000C0B9B1A3D3E900232846214613F012FE00
:108CE00002460B460020C24908E1C24A934240F2C4
:108CF000D0800346C1F31302134340F0F6810029EC
:108D000080F2C4800020BC49C0E0BC4A934200F21B
:108D10002981BB4A934240F2DE8000230193002266
:108D2000B84B2846214613F0EDFD06460F46024695
:108D30000B462846214613F0E5FD99A3D3E900230D
:108D400082468B4613F0DEFD97A3D3E9002313F090
:108D500027FC52465B4613F0D5FD95A3D3E90023CB
:108D600013F01CFC52465B4613F0CCFD92A3D3E9F2
:108D7000002313F015FC52465B4613F0C3FD90A38D
:108D8000D3E9002313F00AFC52465B4613F0BAFD08
:108D900000229D4B13F004FC8046894602460B4698
:108DA0003046394613F0AEFD02460B460020974987
:108DB00013F0F4FB064602460B460F464046494672
:108DC00013F0ECFB3246804689463B462846214656
:108DD00013F098FD02460B4600208D4913F0DEFB90
:108DE00002460B464046494613F0B6FE52465B46E5
:108DF00013F088FD019E02460B46002E38D0DDE9B7
:108E0000026732463B4613F0C9FB2A46234613F05D
:108E100079FD32463B4613F0C1FB5B46524613F0E8
:108E2000BDFB019B013306460F4600F00F81019BFD
:108E3000012B00F0F180019B0133392B39D8019BC4
:108E4000132B40F31281019FC7F57F760336002272
:108E5000330513F0A5FB02460B462846214613F0C6
:108E60009DFB0022684B13F09BFB01EB07510DE0CB
:108E70002846214613F046FD52465B4613F08EFB12
:108E800002460B462846214613F088FB05B0BDE894
:108E9000F08F4DA3D3E9002313F0C4FF00283FF463
:108EA00009AF4BA3D3E900231046194613F02AFD5E
:108EB000ECE72A46234613F071FB02460B460020DE
:108EC000514913F06BFB019A4F4B01EB0251002209
:108ED00013F064FBDAE73EA3D3E9002313F060FB51
:108EE00002460B46CAE72CA3D3E9002328462146B5
:108EF00013F008FD0B4643490246002013F050FBD7
:108F000013F0B0FF019013F097FC33A3D3E90023D3
:108F100006460F4613F0F6FC02460B46284621464D
:108F200013F03CFB2EA3D3E900238046894630464C
:108F3000394613F0E7FC06460F4632463B464046AC
:108F4000494613F02BFB02460B4605460C464046AD
:108F5000494613F023FB32463B4613F01FFBCDE995
:108F60000201DCE62B4A934200F2978000291AA303
:108F7000D3E90023C0F2AE8013F010FB012380463A
:108F80008946019316A7D7E90067D6E7AFF30080BB
:108F900059F3F8C21F6EA501FE822B654715F73FF6
:108FA0002DC3096EB7FD8ABE3952E686CACFD03EC0
:108FB000B7DBAA9E19CE143F8555FE19A0015A3F72
:108FC000F41011111111A13FEF39FAFE422E864023
:108FD0009C7500883CE4377E0000E0FE422EE63FB0
:108FE000763C7935EF39EA3D79684340412E864039
:108FF0000000E0BFFFFFEF7F0000F0BF422ED63F32
:10900000FFFF8F3C0000E03F0000F03F0000084001
:1090100000001840B1A2F03F2846214600223A4BFA
:1090200013F0E2FE002846D0284621460022374BA6
:1090300013F0B6FA02460B463046394613F0AEFA44
:1090400000224FF0404313F05DFC1FE732463B46E1
:109050002846214613F0A2FA00222C4B13F052FCB2
:1090600000222A4B13F09AFA10E7019E4FF4001EDB
:109070004EFA06FE2A462346CEF17F5713F08EFAAB
:10908000002607F5401702460B463046394613F0D6
:1090900085FA019E01EB0651F8E617A3D3E90023F8
:1090A00013F030FC002C02460B464FF00000FFF698
:1090B0001AAE164922E732463B462846214613F0AF
:1090C0006DFA02460B4613F06BFA0022104B13F0B8
:1090D00067FADBE613F064FA4FF0FF338046894607
:1090E000019307A7D7E9006727E702460B4613F06D
:1090F00057FACBE6AFF30080FE822B654715F73FAA
:10910000763C7935EF39EABD0000D0BF0000E03F82
:109110000000F03F00000000F8B5C1F30A56044615
:109120000D460B4617460EBB21F00043034386460F
:1091300025D00022344B13F0E5FB344A9742044615
:109140000D460B462ADBC1F30A56363E3E4440F23A
:10915000FE72964228DC002E12DD23F0FF4323F43A
:10916000E00343EA065520462946F8BD40F2FF7267
:109170009642EBD102460B4613F012FAF8BDF8BD49
:1091800016F1350F1DDA4CF250339F4222462B4622
:1091900025DC19A1D1E9000116F0C4F916A3D3E921
:1091A000002313F0AFFBF8BD22462B4614A1D1E9F2
:1091B000000116F0B7F912A3D3E9002313F0A2FBC4
:1091C000F8BD23F0FF4323F4E003363643EA0655A7
:1091D0002046294600220E4B13F094FBF8BD08A14F
:1091E000D1E9000116F09EF905A3D3E9002313F09D
:1091F00089FBF8BDAFF3008059F3F8C21F6EA501DB
:109200009C7500883CE4377E00005043B03CFFFF73
:109210000000903C10B5054C237833B9044B13B1D2
:109220000448AFF300800123237010BD30020020FA
:1092300000000000802302000C4B43B10C480D4994
:1092400010B5AFF300800C48036823B910BD0A487D
:10925000036833B97047094B002BF7D0BDE81040C5
:109260001847064B002BF5D0184700BF0000000040
:10927000802302003402002080230200000000004E
:1092800070B504460E4600F0D1F888B10368DB6A79
:1092900005469847082C0CD0A4F10903012B14D9DA
:1092A0003246214610230D20BDE8704004F05AB824
:1092B00070BD2B6828465B6A98470228F0DC2B6853
:1092C00028461B6A04219847EAE72B6828465B6A10
:1092D00098470528E4DC2B6828461B6A0821984734
:1092E000DEE700BF30B52DED028B83B0054600F000
:1092F0009DF8044640B10368DB6A9847032D50D8B7
:10930000DFE805F0373F47080190019803B0BDEC56
:10931000028B30BD20460BF013FF07EE900A20466B
:10932000F8EEE78A0BF01CFF07EE900A2046B8EE35
:10933000E78A0BF025FF68EE087A07EE100AE8EEE0
:10934000A87AB8EEC77AE7EE077AF5EE407AF1EE42
:1093500010FAB1EEE78A03D517EE900A14F002FF77
:10936000FDEEC87ACDED017A019803B0BDEC028B19
:1093700030BD204603B0BDEC028BBDE830400BF0A1
:10938000DFBE204603B0BDEC028BBDE830400BF0E1
:10939000E7BE204603B0BDEC028BBDE830400BF0C9
:1093A000EFBE00230193B0E738B5054600F03EF864
:1093B00058B10368DB6A0446984745B1012D04D1D2
:1093C0002046BDE83840FBF77BB9002038BD204679
:1093D000BDE83840FBF754B910B5044600F026F854
:1093E00028B1036821461B6ABDE81040184710BD2C
:1093F0000048704716FCFFFF704700BF10B5034BD5
:10940000036004460BF07CFC204610BD00160200F1
:1094100010B5054B036004460BF072FC204616F0B5
:109420001DFD204610BD00BF001602002DE9F043CF
:10943000BA4C236885B01BB1986805B0BDE8F083CD
:109440004FF0FF31012001F0C7FC04F085FD00283A
:1094500000F0E5800C2016F003FD032106465120A4
:1094600001F0BAFCDFF8E4E2AD4B054605F00F076A
:10947000C5F3031815F4807518BF7346A94839461B
:1094800042460AF033FE2A1C18BF012239464346E1
:1094900030460EF0B9FB0023A348B3600AF026FE65
:1094A0004FF0FF31032001F097FC04F055FD4FF021
:1094B000FF310546022001F08FFC04F04DFD002D28
:1094C00000F09680002800F093800146284604F0C2
:1094D00055FB0746002800F09E804FF0FF314620E4
:1094E00001F07AFC322880462AD027DD382866D061
:1094F00068283DD14FF0FF31012001F06DFC04F0F0
:109500002BFD81464C2016F0ABFC0523054601934C
:109510004A46CDF80080394633460DF045FB2846D3
:10952000B06003689B6A9847B0680368DB6A984735
:109530007E480AF0DBFD2660B0687EE7302817D150
:109540004FF0FF31012001F047FC04F005FD81469A
:109550004C2016F085FC1FFA88F1054605234A4683
:1095600000910193394633460DF000F92846D7E7BC
:109570003A680125002301950095D2F82080B36058
:109580000F220DF10F0332213846C047002851D178
:109590004FF03208414666480AF0A8FD4FF0FF310F
:1095A000012001F019FC04F0D7FC81464C2016F094
:1095B00057FC052305464A46CDF80080D1E74FF019
:1095C000FF31012001F008FC04F0C6FC8146442074
:1095D00016F046FC052305464A46CDF8008039467C
:1095E000019333460DF038FA524B2B60284697E72B
:1095F00051480AF07BFD4FF0FF31192001F0ECFBE0
:1096000004F0AAFC4FF0FF310546182001F0E4FBFE
:1096100004F0A2FC59E749480AF068FD8BE74FF0D7
:10962000FF31032001F0D8FB04F096FC00287FF402
:1096300011AF02E73B6801950095D3F820800F2217
:109640000DF10F0330213846C04718B94FF03008EC
:109650004146A0E73B6801950095D3F820800D2294
:109660000DF10F0338213846C047B8B938213048CA
:109670000AF03CFD4FF0FF31284601F0ADFB04F04D
:109680006BFC8046442016F0EBFB4FF0050E3823B0
:109690000546424639468DE80840A2E73A680195FA
:1096A0000095D2F820800DF10F037522682138460D
:1096B000C047D8B968211E480AF018FD4FF0FF31A5
:1096C000284601F089FB04F047FC80464C2016F048
:1096D000C7FB4FF0050E682305468DE8084042465B
:1096E000394633460DF060FA284619E714480AF067
:1096F000FDFCB06800287FF414AF4FF0FF31032069
:1097000001F06AFB04F028FC18B10E480AF0EEFCE8
:1097100011E70D480AF0EAFC0DE700BF4C020020FB
:10972000340702003C0702005C070200F407020055
:1097300018080200F80602006C0702008007020009
:109740000408020098070200D40702002C07020058
:1097500008B501F069FCFBF73FFEBDE8084001F0E9
:10976000CFB900BF08B501F05FFCFBF7A5FEBDE86F
:10977000084001F0C5B900BF08B501F055FC13F071
:10978000B1FEBDE8084001F0BBB900BF08B501F06B
:109790004BFC14F023FCBDE8084001F0B1B900BF58
:1097A00008B501F041FCFBF727FEBDE8084001F0D9
:1097B000A7B900BF08B501F037FC14F0C5F8BDE843
:1097C000084001F09DB900BF08B501F02DFCFBF782
:1097D00063F8BDE8084001F093B900BF08B501F097
:1097E00023FC14F005F8BDE8084001F089B900BF7A
:1097F00070B5049E96420C4628DB15466BB1002AD4
:1098000000EB020107DD2046A21811F8013D00F827
:10981000013B9042F9D1002070BD042A0FD0022AEA
:1098200002D110F0010306D001462A46204606F078
:10983000CBFE002070BD02880A80184670BD10F073
:109840000303F1D102680A60184670BD0846002182
:1098500008F0A0F84FF0FF3070BD00BF083070472F
:1098600040B1002905DB4368994202DA0844007AD6
:1098700070470020704700BF30B1002904DB436807
:109880009942BCBF40180272704700BF40B1002926
:1098900005DB4368994202DA0844007A70470020E9
:1098A000704700BF830705D120B1030F0CBF012013
:1098B000002070470120704730B1002904DB436865
:1098C0009942BCBF40180272704700BF002B23DBD7
:1098D000002921DB70B54668B1421ADC5568761A5A
:1098E0001446EA1AB242A8BF3246002A11DB84426B
:1098F0000D4607D0083408300844E11806F064FE2D
:10990000002070BD0834E118601916F0E3FA002059
:1099100070BD4FF0FF3070BD4FF0FF30704700BF9B
:109920004068704710B4141E10DB426894420DDC8E
:1099300033EA230328BF1346121B08309A422044FF
:10994000A8BF1A465DF8044B08F024B85DF8044B34
:10995000704700BF43688B4210B400F108041846FA
:10996000A8BF084632EA220128BF19461B1A9942AD
:109970002044A8BF19465DF8044B00F0B7BE00BFF5
:10998000002BBCBF43689B1A002A70B50E4622DB31
:1099900044689918A1421EDC8A421CDCDBB136F017
:1099A000004118D059428E4213DDB34211DD083018
:1099B000002E00EB020516DB9C1B2246A919284647
:1099C00016F088FA324628190021BDE8704007F0E9
:1099D000E1BF002C00DA70BD224608300021BDE84E
:1099E000704007F0D7BF74429A192946281916F01B
:1099F00071FA224628460021BDE8704007F0CABF30
:109A000003460830596800F0F1BD00BF70B5044648
:109A100000206168490000F065FD6668002E11DDD8
:109A2000094D04F1080100EB4606034611F8012B2D
:109A3000141102F00F022C5DAA5C9C71DA710233E2
:109A40009E42F3D170BD00BF2C080200002BBCBFAA
:109A500043689B1A002A2FDB70B445689C18AC42FF
:109A600029DCA24227DC33B331F0004423D00029A3
:109A7000B8BF01EB032191FBF3F603FB1616002E92
:109A800000F10800B8BFF61802441644B24213446D
:109A900011D0304604E0B24208460ED090420AD0BF
:109AA0000146147811F8015B02F8015B8B420470E7
:109AB000F1D13046F2E770BC70470E46EEE700BFCA
:109AC00000B583B04FF0FF3300930023FFF7FEFE95
:109AD00003B05DF804FB00BF10B50C1E0EDD41683D
