:1000000000000220B9440100E1440100E344010082
:10001000E5440100E7440100E9440100000000005C
:10002000000000000000000000000000EB440100A0
:10003000ED44010000000000EF440100F144010024
:10004000F3440100F3440100594301001D43010042
:1000500031430100F34401009D370100F3440100E6
:10006000FD3F0100054001000D400100F344010087
:10007000F3440100F3440100F3440100F3440100A0
:10008000F3440100F3440100F3440100F344010090
:10009000F3440100F3440100F3440100F344010080
:1000A000F3440100F3440100154001001D4001002C
:1000B000F3440100F34401000000000000000000D0
:1000C000F3440100F3440100F344010045430100FF
:1000D000F3440100F3440100F3440100F344010040
:1000E000814301000000000000000000000000004B
:1000F00000000000F3440100000000006D43010017
:1001000000000000000000000000000000000000EF
:1001100000000000000000000000000000000000DF
:1001200000000000000000000000000000000000CF
:1001300000000000000000000000000000000000BF
:1001400000000000000000000000000000000000AF
:10015000000000000000000000000000000000009F
:10016000000000000000000000000000000000008F
:10017000000000000000000000000000000000007F
:10018000000000000000000000000000000000006F
:10019000000000000000000000000000000000005F
:1001A000000000000000000000000000000000004F
:1001B000000000000000000000000000000000003F
:1001C000000000000000000000000000000000002F
:1001D000000000000000000000000000000000001F
:1001E000000000000000000000000000000000000F
:1001F00000000000000000000000000000000000FF
:100200007CB0EE877CB0EE87FF00FF00FF00FF00B0
:10021000FF00FF00FF00FF00FF00FF00FF00FF00E6
:10022000FF00FF00FF00FF00FF00FF00FF00FF00D6
:10023000FF00FF00FF00FF002DE9F04F85B00391A4
:100240000778A7F10903042B044607F07F0200F1A9
:100250000100F5D9202AF3D02B2F04BF677804467C
:100260002D2F72D09FED427B8DED007B4FF000086B
:100270004FF000098FB34FF0000E4FF0000ADFF887
:1002800000B1754619E016F005FE804689463046F5
:1002900016F09AFD42464B4616F04AFC52468046FE
:1002A00089465B46DDE9000135B316F01DFFCDE957
:1002B0000001AE4614F8017F7FB1A7F13006092E88
:1002C00052465B4640464946DDD9C5B92E2F16D168
:1002D00014F8017F0125002FEFD142464B46DDE99E
:1002E000000116F0D7FD80468946039B40464946EB
:1002F0001C6005B0BDE8F08F4FF0010EDAE7BEF1EB
:10030000000F29D042464B46DDE9000116F0C2FD40
:1003100007F0DF07452F80468946E6D10399601C28
:100320000A2216F0E9FB16490246002017F012F9DE
:1003300002460B464046494616F0ACFD80468946CB
:100340004046494605B0BDE8F08F9FED0B7B6778CE
:100350008DED007B013489E7DFF828904FF000082D
:100360004046494605B0BDE8F08F00BFAFF30080BE
:10037000000000000000F03F000000000000F0BF9F
:10038000000024400000F87F2DE9F84F16460023B6
:10039000002204460D4616F0EFFF002840F09D8035
:1003A000002200232046294616F0DCFF28B1302227
:1003B000002332707370BDE8F88F2046294615F08F
:1003C0006BF817F017F87BA3D3E900238146294681
:1003D000204616F0D1FF002800F08680B9F1000F0A
:1003E000C0F2BE804A4600206F4917F0B3F80246BB
:1003F0000B462046294616F077FE04460D4666A1B8
:10040000D1E9000101274FF0000822462B4616F0E3
:1004100041FD0022654B16F08BFB17F0D7F8002F3B
:10042000CC464FF0FF3AC1464FF0000840F38580BC
:10043000DFF888E15E4C0122AEF1700945F6F32544
:100440004FF02E0BA94208BFA0424FF0300309D352
:10045000001B61EB0501A94208BFA04203F10103A3
:10046000F6D2DBB2337050EA010306F1010409D180
:10047000BA4210DACE4502F101020CD026467EE8DF
:100480000245DFE7BA4204BF86F801B0B41CCE458E
:1004900002F10102F2D1B8F1000F0DD02246302155
:1004A00002F8011BC2F1010353442344002BF7DC83
:1004B0002AEAEA7301331C44BCF1010F4CD06523D6
:1004C000BCF1000F2370C5BF2B236370611CA11CFE
:1004D0006046BDE8F84F0EF06DBF05F100431D46C4
:1004E0002D23337001365BE72DA3D3E9002320468B
:1004F000294616F05FFF00287FF470AFB9F10E0FA8
:1005000009F101073DDDA9F10E0842460020264908
:1005100017F020F802460B462046294616F0E4FD67
:100520000022224B16F004FB17F050F8002FA9F11F
:100530000F0A4FF0010C3FF77BAF334630222E24D9
:1005400003F8022B74707FEA090618D01E4403F8E2
:10055000012BB342FBD16BE700232370BDE8F88F7A
:10056000C9F100020020104916F0F4FF02460B46C4
:100570002046294616F08EFC04460D463FE71E46EF
:1005800056E7C9F10E0200200749C84616F0E2FFFF
:100590004FF0010939E700BF0000901EC4BCD642ED
:1005A00050EFE2D6E41A4B44000024400000E03F44
:1005B00000407A108DEDB5A0F7C6B03E88800100EE
:1005C00070B54FF0FF3006F079F904466FF07F40C8
:1005D00006F074F90646204616F0E6FB00220C4BA6
:1005E00016F058FC044630460D4616F0DDFB06A317
:1005F000D3E9002316F078FD02460B462046294633
:1006000016F096FA70BD00BF0000E0DFFFFF6F43F9
:100610000000F03D0000000008B510F077F9DFEDB4
:100620000C7A07EE100A67EE277A17EE900A16F09A
:10063000DDFB05A3D3E9002316F056FD16F0DAFE24
:1006400008BD00BFAFF30080EA2E4454FB211940DF
:100650000000B4430000000008B510F06BF9DFEDB6
:100660000C7A07EE100A67EE277A17EE900A16F05A
:10067000BDFB05A3D3E9002316F036FD16F0BAFE44
:1006800008BD00BFAFF30080EA2E4454FB2119409F
:100690000000B44300000000494A21F000439342A7
:1006A0002DE9704304460D464BDC464A93420E4604
:1006B0000EDC3FA3D3E9002316F03AFA0022424BA6
:1006C00016F078FE00284CD020462946BDE87083FD
:1006D0003E4A93423BDCB3F1804F42DD14F0D6FA40
:1006E0002246804689462B462046294616F0D2FBF4
:1006F0000022354B16F01CFA15F08CF902460B4619
:100700004046494616F014FA02460B4600202E4990
:1007100016F0EAFC424604460D464B464046494622
:1007200016F006FA02460B462046294616F000FA55
:1007300002F06AF8002EC9DC01F100431946BDE859
:10074000708302460B4616F0F3F9BDE8708314F08F
:100750009DFA02F059F818A3D3E9002316F0E8F93E
:10076000E8E722462B462046294616F093FB8046B2
:1007700089462046294614F089FA002204460D468F
:10078000114B4046494616F0D3F915F043F90022C3
:100790000D4B16F0CDF902460B464046494616F081
:1007A000A3FC22462B4616F0C3F900F0C5FAC1E7B8
:1007B0009C7500883CE4377EEF39FAFE422EE63F16
:1007C000FFFFEF7FFFFF2F3E0000F03F0000B04132
:1007D0002DE9F84FC44B21F000469E4204460D46D9
:1007E0008A460EDDC14B9E4200F3AC8000F0A7802C
:1007F000BAF1000F40F3EA809FA1D1E90001BDE802
:10080000F88FBB4B9E4200F3B580A3F1DE739E428E
:1008100040F3A0804FF0FF3B22462B46204629465E
:1008200016F038FB02460B468046894616F032FB2E
:1008300093A3D3E9002306460F4616F02BFB92A3A1
:10084000D3E9002316F074F932463B4616F022FB3A
:100850008FA3D3E9002316F06BF932463B4616F01E
:1008600019FB8DA3D3E9002316F062F932463B460B
:1008700016F010FB8AA3D3E9002316F059F932468B
:100880003B4616F007FB88A3D3E9002316F050F986
:1008900042464B4616F0FEFA85A3D3E90023804674
:1008A00089463046394616F0F5FA83A3D3E900238A
:1008B00016F03CF932463B4616F0ECFA80A3D3E939
:1008C000002316F033F932463B4616F0E3FA7EA3D6
:1008D000D3E9002316F02AF932463B4616F0DAFA3D
:1008E0007BA3D3E9002316F021F932463B4616F0EC
:1008F000D1FABBF1FF3F02460B466CD04046494659
:1009000016F016F922462B4616F0C4FA794E7A4BA9
:100910004FEACB0B5E449B44DBE9002316F006F95B
:1009200022462B4616F002F902460B46D6E9000194
:1009300016F0FCF8BAF1000F43DBBDE8F88F002891
:100940003FF456AF22462B462046294616F0F0F8D3
:10095000BDE8F88F60A3D3E9002316F0E9F8002280
:10096000664B16F027FD00283FF454AF2046294679
:10097000BDE8F88F14F08AF9614B9E4204460D469B
:1009800039DCA3F550239E425EDC02460B4616F08E
:10099000CFF80022594B16F0C9F8002206460F4640
:1009A0004FF080432046294616F0C2F802460B4617
:1009B0003046394616F098FB4FF0000B04460D46C2
:1009C0002AE701F100431946BDE8F88F44A1D1E9B7
:1009D0000001BDE8F88F4046494616F0A9F82246C6
:1009E0002B4616F057FA02460B462046294616F0CB
:1009F0009DF8BDE8F88F434B9E421ADC0022424B23
:100A000016F094F8002206460F463F4B2046294632
:100A100016F040FA0022394B16F08AF802460B46CF
:100A20003046394616F060FB4FF0020B04460D4687
:100A3000F2E602460B460020344916F055FB4FF013
:100A4000030B04460D46E7E600222C4B16F06EF829
:100A5000002206460F46294B2046294616F068F824
:100A600002460B463046394616F03EFB4FF0010B6E
:100A700004460D46D0E600BF182D4454FB21F93F33
:100A800011DA22E33AAD903FEB0D76244B7BA93F80
:100A9000513DD0A0660DB13F6E204CC5CD45B73F4E
:100AA000FF8300922449C23F0D5555555555D53FFA
:100AB0002F6C6A2C44B4A2BF9AFDDE522DDEAD3FEE
:100AC0006D9A74AFF2B0B33F711623FEC671BC3F8E
:100AD000C4EB98999999C93F9C7500883CE4377E8E
:100AE000182D4454FB21F9BFFFFF0F440000F07F95
:100AF000FFFFDB3F98800100B88001000000F03F5D
:100B0000FFFFF23FFF7F03400000F83F0000F0BF0F
:100B10002DE9F843C1F30A59A9F2FF35132D024616
:100B20000B460C4606468846074622DC002D50DB65
:100B3000DFF8F09049FA05F901EA090E5EEA0606C7
:100B40001CD036A3D3E9002315F0F2FF00220023C6
:100B500016F030FC48B1002C04DD4FF4801343FA4A
:100B600005F5A84428EA0904002721463846BDE8CF
:100B7000F883332D06DDB5F5806F3DD0104619465C
:100B8000BDE8F883A9F213494FF0FF3E2EFA09F9A8
:100B900010EA090FF2D021A3D3E9002315F0C8FF12
:100BA0000022002316F006FC0028DED0002C09DD10
:100BB000142D2BD00127C5F1340507FA05F5AE1920
:100BC00028BFB844444626EA090721463846BDE80E
:100BD000F88312A3D3E9002315F0AAFF0022002313
:100BE00016F0E8FB0028C0D0002C0BDB54EA060707
:100BF00006D00027084CB8E715F09AFFBDE8F88347
:100C00003C46B2E700274FF00044AEE704F101088C
:100C1000D8E700BFAFF300800000F03F9C7500886C
:100C20003CE4377EFFFF0F002DE9F041C1F30A5786
:100C3000A7F2FF35132D02460B460C4688460646A2
:100C40001CDC002D3FDB3A4F2F41864601EA070CA2
:100C50005CEA0E0E17D034A3D3E9002315F068FF29
:100C60000022002316F0A6FB20B1002C3FDB28EA6F
:100C70000704002621463046BDE8F081332D06DD0D
:100C8000B5F5806F2FD010461946BDE8F081A7F268
:100C900013474FF0FF3E2EFA07F73842F3D022A356
:100CA000D3E9002315F044FF0022002316F082FB55
:100CB0000028DFD0002C20DB444626EA0706214628
:100CC0003046BDE8F08118A3D3E9002315F030FFCA
:100CD0000022002316F06EFB0028CBD0002C17DB7F
:100CE00000263446C6E715F023FFBDE8F0814FF437
:100CF000801343FA05F5A844B9E7142D10D0012359
:100D0000C5F1340503FA05F5AE1928BF9844D3E7B9
:100D100024F00042074B324318BF1C460026A9E7C7
:100D200004F10108C8E700BF9C7500883CE4377EE9
:100D3000FFFF0F000000F0BF2DE9F04FD84B9942A4
:100D400087B0804689460E4613DCD64B21F000441E
:100D50009C4218DD0022D44B16F004FB002879D009
:100D6000002200230020D14916F0BEF907B0BDE8EB
:100D7000F08FCF4B99422FDD42464B4615F0D8FEFF
:100D800007B0BDE8F08FCB4B9C4270DDCA4B1E44D0
:100D90009E427ED80022C94B4046494615F0C8FE07
:100DA0004FEA215AAAF2FF3ABAF1000F04460D4663
:100DB0000E4640F3DE8142464B4615F0B7FE024632
:100DC0000B460020BD4915F0B1FE22462B4616F019
:100DD0008BF9CDE902010BE0B94B9E42DADD9FEDC4
:100DE0009A7B8DED027B4FEA265A4446AAF2FF3ADF
:100DF000B44BC6F313069E4246F07F5500F3E780DE
:100E000045F44015204629460022AC4B15F08EFED5
:100E1000002204460D46AC4B16F03CF822462B4609
:100E200016F038F8A046CDE90401A946CDE9000145
:100E3000002E3AD1002200232046294616F092FACD
:100E4000002800F0CE80BAF1000F40F0748100203D
:100E5000002195E742464B464046314615F066FE76
:100E600002460B4616F040F907B0BDE8F08F0022AD
:100E7000964B15F05DFE0022002316F09BFA002829
:100E800000F0CC80924B9C4200F3C880404649461B
:100E900076E700228C4B15F0FDFF42464B4615F0DD
:100EA000F9FFCDE900014FF0000A00224FF0804326
:100EB0004046494615F03CFE02460B464046494630
:100EC00016F012F902460B4606460F4615F0E2FFF1
:100ED0005FA3D3E9002304460D4615F0DBFF5EA3B4
:100EE000D3E9002315F024FE22462B4615F0D2FF4D
:100EF0005BA3D3E9002315F01BFE22462B4615F019
:100F0000C9FF59A3D3E9002315F012FE22462B4650
:100F100015F0C0FF56A3D3E9002315F009FE2246C1
:100F20002B4615F0B7FF54A3D3E9002315F000FEBC
:100F300022462B4615F0AEFF51A3D3E9002315F04E
:100F4000F7FD22462B4615F0A5FF04460D46BAF1E3
:100F5000000F00F0BF80504615F036FF4AA3D3E9DA
:100F6000002382468B4615F095FFDDE90023CDE98D
:100F700004012046294615F0DBFD32463B4615F0BC
:100F800089FF43A3D3E9002304460D465046594642
:100F900015F080FFDDE9022315F0CAFD02460B467D
:100FA0002046294615F0C4FD02460B46DDE9000146
:100FB00015F0BCFD42464B4615F0B8FD02460B4607
:100FC000DDE9040115F0B2FD07B0BDE8F08F45F48E
:100FD0000015C6F5801620462946B6100AF1010A0A
:100FE00012E72DA3D3E900232046294615F052FF2E
:100FF00002460B460020314915F098FDDDE9042337
:1010000015F048FF06460F46BAF1000F73D10246AD
:101010000B462046294615F089FDB1E642464B466F
:101020004046494615F036FF0022274B15F032FFA7
:1010300002460B464046494615F078FD07B0BDE82C
:10104000F08F00BFAFF30080000000000000000040
:1010500044523EDF12F1C23F9FC678D0099AC33F87
:10106000DE03CB966446C73FAF788E1DC571CC3F7B
:10107000599322942449D23F04FA97999999D93FD8
:10108000935555555555E53F0000E0FE422EE63F8D
:10109000763C7935EF39EA3D555555555555E53F7F
:1010A0007982DA3FFFFFEF3F0000F0BF000050C33E
:1010B000FFFFEF7FFFFF1F3E3C412D400000F03F50
:1010C000FFFF3F439DA006000000E03F00005043AB
:1010D000FFFF8F3CDDE9004522462B4615F028FD39
:1010E00032463B4615F0D6FE02460B4620462946C0
:1010F00015F01CFD9CE7504615F066FE23A3D3E9CE
:10110000002382468B4615F0C5FE22A3D3E90023B7
:10111000804689465046594615F0BCFEDDE902235B
:1011200015F006FD02460B463046394615F0FEFC2A
:1011300022462B46DCE7504615F046FE15A3D3E9C0
:10114000002306460F4615F0A5FEDDE9022315F043
:10115000EFFC0EA3D3E9002304460D463046394682
:1011600015F098FE02460B462046294615F0E0FC95
:1011700006E60022044B15F0D9FC02460B46404619
:10118000494615F0D3FC20E60000F03F0000E0FEE9
:10119000422EE63F763C7935EF39EA3D000000000B
:1011A00008B514F0F9F804A3D3E9002315F09CFF67
:1011B00008BD00BFAFF30080EF39FAFE422EE63FD4
:1011C0002DE9F043DFF8B4808BB004460D4601F002
:1011D000F3F898F90030013306460F462BD022462B
:1011E0002B462046294616F0EFF8814618BB2046CC
:1011F000294613F04BFD1FA3D3E9002316F0DAF8BC
:10120000C8B1194A98F90030CDF820900321CDE9F2
:101210000445CDE902458DE806008BB9134B4FF02C
:101220006042CDE90623684615F082FA70B1089B4A
:101230009BB9DDE90667304639460BB0BDE8F0835F
:101240000B490020022BCDE90601ECD115F0FCFB87
:1012500022230360089B002BEBD015F0F5FB089BC5
:101260000360E6E7AFF30080C8910100FFFFEF479E
:101270000000F07F7DF8B98FCE338640FB0100205F
:101280002DE9F043DFF8E4808BB004460D4601F011
:1012900043F998F90030013306460F4633D0204613
:1012A000294615F03FFA70B32CA3D3E9002320465A
:1012B000294616F07FF8814650BB2AA3D3E90023C4
:1012C0002046294616F058F8E8B198F90030204A2F
:1012D000CDF82090002600270421022BCDE90445FB
:1012E000CDE90245CDE906678DE8060029D06846BC
:1012F00015F01EFA28B3089B1BB115F0A5FB089B3F
:101300000360DDE90667304639460BB0BDE8F0837F
:101310000F4A98F90030019203210022CDE90445DB
:10132000CDE90245009108922BB90A4B4FF060427B
:10133000CDE90623DBE708490020022BCDE90601B1
:10134000D5D115F081FB22230360D4E7AFF30080F1
:10135000D0910100FFFFEF470000F07FEF39FAFE68
:10136000422E864051302DD5104987C0FB01002008
:101370002DE9F04FDFF80C938DB006460F4614466A
:101380001D4601F0C5FC99F90080B8F1FF3FCDE999
:10139000000136D022462B462046294616F014F886
:1013A000834670BB32463B463046394616F00CF851
:1013B0008246002840F0A2803046394600220023B1
:1013C00015F0D0FF10B3002200232046294615F067
:1013D000C9FF834600286AD09FEDA17B0122A44B60
:1013E000CDF828A00292CDE90467CDE906458DED40
:1013F000087B0393B8F1000F45D09FED9B7B8DEDEB
:10140000007BDDE900010DB0BDE8F08FDDE90001F2
:1014100015F088F98046002800F08D804FF0000A12
:101420004FF0000BDDE9000152465B4615F09AFFD4
:101430000028E6D03046394615F074F90028E0D08F
:101440002046294615F06EF90028DAD099F90030C7
:10145000874A039204210022022BCDE90467CDE9DB
:101460000645CDE908AB02910A9203D002A815F017
:101470005FF968B915F0E8FA2223036008E09FEDF0
:10148000787B8DED087B02A815F052F9002830D04A
:101490000A9B1BB115F0D8FA0A9B03609DED087BEF
:1014A0008DED007BDDE900010DB0BDE8F08F204639
:1014B000294615F037F90028A3D000220023204642
:1014C000294615F059FF00289BD099F90030684A49
:1014D000CDF828B00121CDE90467CDE90645029198
:1014E0000392002BCBD063490020022BCDE90801E9
:1014F000C9D115F0A9FA21230360C9E7002200230E
:101500002046294615F02EFF00283FF47AAF5A4BAB
:101510005749CDF828B000220120B8F1020FCDE9DB
:1015200004670290CDE90645CDE908230391AAD1CD
:10153000CDE9002365E73046394615F0F3F8002879
:101540003FF46CAF2046294615F0ECF800283FF434
:1015500065AFDDE900231046194615F035FF002878
:101560005FD1032399F900800293414B0A90CDE9A2
:101570000467CDE906450393B8F1000F2BD1DFF8DE
:1015800008B14FF0604A0022002330463946CDE9C9
:1015900008AB15F0F1FE00283FF468AF0022374B8E
:1015A0002046294615F076FC04460D4615F0C8F88D
:1015B00002460B462046294615F0D4FE70BB304B40
:1015C00099F900804FF06042CDE90823B8F1020F8D
:1015D0007FF44CAF4EE7DFF8B4B04FF0000A0022C2
:1015E000002330463946CDE908AB15F0C5FE00288A
:1015F000ECD00022214B2046294615F04BFC044636
:101600000D4615F09DF802460B462046294615F07A
:10161000A9FE18B9174B0022CDE9082399F90080DB
:10162000D4E799F90090124BCDF828800122CDE93A
:101630000467CDE9064502920393B9F1000F3FF428
:101640001EAF002200231046194615F04DFDB9F1DA
:10165000020FCDE908013FF44CAF14E7AFF300806F
:101660000000000000000000000000000000F03F4B
:10167000E89101000000F0FF0000F03F0000E03FB3
:10168000FFFFEFC7FB010020FFFFEF470000F07FE7
:101690002DE9F84FC44E21F00043B34204460D46F5
:1016A0000DDD03F1404303F58013034340F0B9809F
:1016B000002940F3408100200021BDE8F88FBB4E97
:1016C000B34240F3A6800029C0F2788102460B465F
:1016D0000020B74915F02AFA0022B64B15F0DAFBC4
:1016E00004460D4614F096F995A3D3E900238946E4
:1016F00080462946204615F0CDFB93A3D3E900236D
:1017000015F016FA22462B4615F0C4FB90A3D3E938
:10171000002315F00BFA22462B4615F0BBFB8EA3D7
:10172000D3E9002315F004FA22462B4615F0B2FB4C
:101730008BA3D3E9002315F0F9F922462B4615F0C7
:10174000A9FB89A3D3E9002315F0F2F922462B4621
:1017500015F0A0FB86A3D3E9002382468B462046E2
:10176000294615F097FB84A3D3E9002315F0DEF991
:1017700022462B4615F08EFB81A3D3E9002315F0FA
:10178000D7F922462B4615F085FB7FA3D3E900232A
:1017900015F0CCF922462B4615F07CFB0022844B39
:1017A00015F0C6F902460B465046594615F09CFC0A
:1017B00042464B4615F06EFB002682468B4632466B
:1017C0004B463046494615F065FB02460B4620461F
:1017D000294615F0ABF9324604460D464B464046C5
:1017E000494615F0A5F902460B462046294615F054
:1017F0007BFC02460B465046594615F099F9324695
:101800004B4615F095F902460B4615F091F9BDE8E7
:10181000F88F694A93420EDC5DA1D1E90001BDE871
:10182000F88F02460B4615F081F902460B4615F07B
:101830005BFCBDE8F88F02460B4615F02BFB40A37E
:10184000D3E9002306460F4615F024FB3EA3D3E957
:10185000002315F06DF932463B4615F01BFB3CA307
:10186000D3E9002315F062F932463B4615F012FB2E
:1018700039A3D3E9002315F05BF932463B4615F056
:1018800009FB37A3D3E9002315F050F932463B4654
:1018900015F000FB34A3D3E9002315F049F93246D3
:1018A0003B4615F0F7FA32A3D3E900238046894678
:1018B0003046394615F0EEFA2FA3D3E9002315F090
:1018C00035F932463B4615F0E5FA2DA3D3E900235E
:1018D00015F02EF932463B4615F0DCFA2AA3D3E97F
:1018E000002315F023F932463B4615F0D3FA0022C7
:1018F0002F4B15F01DF902460B464046494615F0A0
:10190000F3FB22462B4615F0C5FA02460B4622A1F0
:10191000D1E9000115F00AF902460B462046294696
:1019200015F004F902460B4619A1D1E9000115F0A2
:10193000FDF8BDE8F88F1AA1D1E90001BDE8F88FE4
:1019400009F7FD0DE13D023F88B20175E0EF493F27
:101950003B8F68B52882A43F5544880E55C1C93FC6
:101960007D6FEB0312D6D43F555555555555C53FA0
:1019700082922EB1C5B8B33F59018D1B6C06E63F6C
:10198000C88A599CE52A00404B2D8A1C273A0340FF
:10199000182D4454FB21F93F075C143326A6913CD3
:1019A000182D4454FB210940FFFFEF3FFFFFDF3FAD
:1019B0000000F03F0000E03F0000603C00225C4B74
:1019C00015F0B6F800225B4B15F064FA40A3D3E99A
:1019D000002304460D4615F05DFA3FA3D3E900232A
:1019E00015F0A6F822462B4615F054FA3CA3D3E98D
:1019F000002315F09BF822462B4615F04BFA3AA32C
:101A0000D3E9002315F094F822462B4615F042FA4C
:101A100037A3D3E9002315F089F822462B4615F0A9
:101A200039FA35A3D3E9002315F082F822462B4674
:101A300015F030FA804689462046294613F0EAFF21
:101A40002FA3D3E9002306460F462046294615F06A
:101A500021FA2DA3D3E9002315F068F822462B467E
:101A600015F018FA2AA3D3E9002315F061F82246ED
:101A70002B4615F00FFA28A3D3E9002315F056F8EA
:101A800022462B4615F006FA0022294B15F050F895
:101A900002460B464046494615F026FB32463B4679
:101AA00015F0F8F91EA3D3E9002315F03FF83246EC
:101AB0003B4615F03DF802460B4615F039F8024654
:101AC0000B4619A1D1E9000115F030F8BDE8F88FF7
:101AD00009F7FD0DE13D023F88B20175E0EF493F96
:101AE0003B8F68B52882A43F5544880E55C1C93F35
:101AF0007D6FEB0312D6D43F555555555555C53F0F
:101B000082922EB1C5B8B33F59018D1B6C06E63FDA
:101B1000C88A599CE52A00404B2D8A1C273A03406D
:101B2000075C143326A6913C182D4454FB21094030
:101B30000000F03F0000E03F434A91422DE9F843A6
:101B400004460D4639DD414A914209DD02F17952E0
:101B5000914240DD02460B4614F0EAFFBDE8F883EF
:101B600001F1404202F58012024330D0B1F1804FC2
:101B70003ADC0022364B14F0D9FF02460B460446ED
:101B80000D4614F0D5FF224606460F462B4620464A
:101B9000294615F07FF902460B463046394614F0C7
:101BA000C7FF13F037FF0B4602462946204614F0C4
:101BB000BFFFBDE8F843FFF7BFB802460B4614F07D
:101BC000B5FF02460B4615F08FFABDE8F8830020FA
:101BD0000021BDE8F88300F017FE19A3D3E9002324
:101BE00014F0A6FFBDE8F88302460B4615F052F943
:101BF0000022174B14F09AFF13F00CFF2246804688
:101C000089462B462046294614F092FF4246064656
:101C10000F464B462046294614F08AFF02460B46E3
:101C200000200B4915F060FA0B4602463946304653
:101C300014F07CFFBDE8F84300F0E6BDAFF3008090
:101C4000EF39FAFE422EE63FFFFFEF3FFFFFAF41C5
:101C50000000F03F000000002DE9F047BE4B21F0EE
:101C60000048984584B004460D4612DD08F140480E
:101C700008F58018034658EA030321D002460B46B4
:101C800014F054FF02460B4615F02EFA04B0BDE8DE
:101C9000F087B24B98458A4629DCB8F1795F80F22B
:101CA000658191A3D3E9002314F042FF0022AC4BDD
:101CB00015F080FBD8B12046294604B0BDE8F08776
:101CC0008BA3D3E9002315F0E5F88BA3D3E9002318
:101CD00006460F462046294615F0DCF802460B461C
:101CE0003046394614F024FF04B0BDE8F0872046A2
:101CF000294612F0CBFF02460B460020984914F00B
:101D000015FF0022974B15F0C5F87DA3D3E90023FA
:101D100004460D4615F0BEF87BA3D3E9002314F06A
:101D200007FF22462B4615F0B5F879A3D3E9002327
:101D300014F0FCFE22462B4615F0ACF876A3D3E94E
:101D4000002314F0F5FE22462B4615F0A3F874A3E9
:101D5000D3E9002314F0EAFE22462B4615F09AF848
:101D600071A3D3E9002314F0E3FE22462B4615F0BD
:101D700091F86FA3D3E90023CDE90001204629465D
:101D800015F088F86CA3D3E9002314F0CFFE2246A7
:101D90002B4615F07FF86AA3D3E9002314F0C8FEA0
:101DA00022462B4615F076F867A3D3E9002314F0FA
:101DB000BDFE22462B4615F06DF8694B002214F04B
:101DC000B7FECDE902012046294613F023FE664BFB
:101DD000984506460F4666DCDDE90223DDE9000191
:101DE00015F082F93246CDE900013B4630463946CE
:101DF00014F09EFE02460B46DDE9000115F04AF89C
:101E00004FF00008CDE9000142463B4640463946C6
:101E100015F040F802460B462046294614F086FE8F
:101E2000424604460D463B463046394614F080FE95
:101E300002460B462046294615F056F902460B4647
:101E400014F076FE02460B462BA1D1E9000114F0F6
:101E50006DFE02460B46DDE9000114F067FE4246C6
:101E600004460D463B464046394614F061FE0246A4
:101E70000B4637A1D1E9000114F058FE02460B468B
:101E80002046294614F052FE02460B4630A1D1E905
:101E9000000114F04BFEBAF1000F3FF7F7AE01F16D
:101EA00000431946F2E6DDE90223DDE9000115F001
:101EB0001BF932463B4614F0EDFF32463B4614F028
:101EC00037FE02460B4614F033FE0BA3D3E9002382
:101ED00014F02CFE02460B4605A1D1E9000114F0D6
:101EE00025FED8E7AFF300809C7500883CE4377E80
:101EF000182D4454FB21F93F075C143326A6913C6E
:101F000009F7FD0DE13D023F88B20175E0EF493F61
:101F10003B8F68B52882A43F5544880E55C1C93F00
:101F20007D6FEB0312D6D43F555555555555C53FDA
:101F300082922EB1C5B8B33F59018D1B6C06E63FA6
:101F4000C88A599CE52A00404B2D8A1C273A034039
:101F5000182D4454FB21E93FFFFFEF3FFFFFDF3F18
:101F60000000F03F0000E03F3233EF3F02460B46F7
:101F700014F090FF37A3D3E9002306460F4614F070
:101F800089FF36A3D3E9002314F0D2FD32463B4645
:101F900014F080FF33A3D3E9002314F0C7FD3246C9
:101FA0003B4614F077FF31A3D3E9002314F0C0FDC2
:101FB00032463B4614F06EFF2EA3D3E9002314F003
:101FC000B5FD32463B4614F065FF2CA3D3E9002350
:101FD00014F0AEFD32463B4614F05CFF29A3D3E972
:101FE0000023804689463046394614F053FF27A324
:101FF000D3E9002314F09AFD32463B4614F04AFF21
:1020000024A3D3E9002314F093FD32463B4614F099
:1020100041FF22A3D3E9002314F088FD32463B465A
:1020200014F038FF00220A4B14F082FD02460B46E2
:102030004046494615F058F822462B4614F02AFF30
:1020400022462B4614F074FD04B0BDE8F08700BFB3
:102050000000F03F09F7FD0DE13D023F88B2017538
:10206000E0EF493F3B8F68B52882A43F5544880E76
:1020700055C1C93F7D6FEB0312D6D43F5555555519
:102080005555C53F82922EB1C5B8B33F59018D1B3E
:102090006C06E63FC88A599CE52A00404B2D8A1CF5
:1020A000273A0340000000002DE9F84F1D46534237
:1020B000134325F0004ADFF8E0E14AEAD3737345A1
:1020C000144606460F4647D8C0F1000848EA000803
:1020D00021F0004343EAD878F0458B463CD805F11F
:1020E000404808F5801858EA020850D04FEAA57811
:1020F00008F0020848EAD17850EA030134D052EAE5
:102100000A023CD0F24557D0734538D0A3EB0A03FE
:102110001B153C2B42DC002D70DB22462B46304643
:10212000394614F0E1FF12F0B1FDFEF751FBB8F1B2
:10213000010F5FD0B8F1020F4ED0B8F1000F62D09E
:1021400043A3D3E9002314F0F1FC43A3D3E9002314
:1021500014F0ECFCBDE8F88F32463B462046294699
:1021600014F0E6FCBDE8F88FB8F1020F1AD0B8F110
:10217000030F10D13AA1D1E90001BDE8F88FBBF1FE
:10218000000F14DB38A1D1E90001BDE8F88FBDE8EC
:10219000F84FFEF71DBB3946BDE8F88F32A1D1E9F3
:1021A0000001C4E72CA1D1E90001BDE8F88F30A1FE
:1021B000D1E90001BDE8F88F534526D0B8F1020FF0
:1021C000F0D0B8F1030FD5D0B8F1010F4FF00000F7
:1021D00029D00021BDE8F88F1DA3D3E9002314F016
:1021E000A5FC02460B461CA1D1E9000114F09EFC9F
:1021F000BDE8F88F01F10041BDE8F88F3C338CDA7F
:102200000020002193E7BDE8F88FB8F1020F18D045
:10221000B8F1030F10D0B8F1010F08D016A1D1E921
:102220000001BDE8F88F4FF00041BDE8F88F14A120
:10223000D1E90001BDE8F88F13A1D1E90001BDE8A3
:10224000F88F13A1D1E90001BDE8F88FAFF300804A
:10225000075C143326A6A13C182D4454FB210940E9
:10226000182D4454FB2109C0182D4454FB21F93F7B
:10227000182D4454FB21F9BF182D4454FB21E93F8C
:10228000182D4454FB21E9BFD221337F7CD902C0F1
:10229000D221337F7CD902400000F07F0000000093
:1022A00043422DE9F047034321F000463E4A46EA07
:1022B000D373934204460D4613D896423DD03B4B10
:1022C0009E428A4617DC36A3D3E9002314F030FC83
:1022D0000022002315F06EF8A8B320462946BDE879
:1022E000F08702460B4614F021FC02460B4614F020
:1022F000FBFEBDE8F0872E4B9E42354624DD33467B
:102300000246314614F014FC224606460F462B4680
:102310000020254914F00AFC02460B463046394697
:1023200014F0E2FEFEF708FD0022224B14F0B2FD8D
:10233000BAF1000F2FDBBDE8F0870022002314F074
:10234000D3FEBDE8F087354622462B462046294677
:1023500014F0EEFB22462B4606460F4614F09AFD7B
:102360002246804689462B4600200F4914F0DEFBAA
:1023700002460B464046494614F0B6FE32463B46FE
:1023800014F0D6FBFEF7D8FC00220A4B14F082FDB5
:10239000BAF1000FCFDA01F100431946BDE8F0872A
:1023A0009C7500883CE4377E0000F03FFFFF2F3E25
:1023B000FFFFDF3F0000E03F2DE9F8434E4B21F0E7
:1023C00000449C4206460F461BDC4C4B9C4222DDDF
:1023D0004B4B9C4263DD4B4B9C427BDD4A4B9C420A
:1023E00046DD01339C4240D041A3D3E9002310468F
:1023F000194614F04FFD06460F4630463946BDE8F3
:10240000F88302460B4614F045FD06460F4630465B
:102410003946BDE8F88312F039FC02F0B1FC002225
:102420003A4B8046894614F083FBB4F1725F06464E
:102430000F46ECDB42464B464046494614F02AFD27
:1024400032463B4604460D463046394614F070FB92
:1024500002460B462046294614F046FE00222B4B2E
:1024600014F066FB06460F46D1E7294B9842BBD8CD
:102470003046394612F00AFC0022264B14F00AFDC1
:1024800000F04AF8002204460D46224B14F002FDEB
:1024900022462B4614F0FEFC06460F46B7E712F024
:1024A000F5FB00F039F800221A4B06460F4614F0EF
:1024B000F1FC32463B4604460D460020154914F017
:1024C00013FE02460B462046294614F031FB064611
:1024D0000F469CE712F0DAFB00F01EF800220D4BCD
:1024E00014F0D8FC06460F4691E700BFAFF300801A
:1024F0009C7500883CE4377EFFFFEF7F422ED63F7D
:10250000FFFF3540412E8640CD3386400000F03F2E
:102510007DF8B98F0000E03F2DE9F04FB04E21F07B
:102520000042B24283B004460D464FEAD1770DD93E
:10253000AC4EB24225D9C1F31303034340F0EC8003
:102540000FB10020002103B0BDE8F08FA64B9A42E6
:1025500000F2CB80A54B9A4200F2DC808AA3D3E93B
:10256000002314F0E5FA0022A14B14F023FF002809
:1025700000F006812046294600229D4B14F0D8FA2F
:10258000E1E783A3D3E9002314F014FF002840F00F
:10259000C88081A3D3E900232046294614F0ECFE2D
:1025A0000028CED1934E7EA3D3E9002306EBC706C5
:1025B0002046294614F06EFCD6E9002314F0B8FA40
:1025C00014F018FF064614F0FFFB77A3D3E90023AD
:1025D0008046894614F05EFC02460B46204629469A
:1025E00014F0A4FA72A3D3E90023CDE90001404618
:1025F000494614F04FFC82468B4652465B46DDE965
:10260000000114F093FA04460D4622462B4620465C
:10261000294614F03FFC68A3D3E90023804689468D
:1026200014F038FC66A3D3E9002314F07FFA424685
:102630004B4614F02FFC64A3D3E9002314F078FA7E
:1026400042464B4614F026FC61A3D3E9002314F064
:102650006DFA42464B4614F01DFC5FA3D3E90023FC
:1026600014F066FA42464B4614F014FC02460B4640
:102670002046294614F05AFA80468946002E58D042
:102680002046294642464B4614F004FC4246044686
:102690000D464B4600204FF0804114F047FA0246A9
:1026A0000B462046294614F01FFD02460B465046B5
:1026B000594614F03BFADDE9002314F037FA0B46D3
:1026C00002464B49002014F031FA6FF47F739E42AA
:1026D00051DA06F57A7601EB065100224FF0B87315
:1026E00014F0D8FB03B0BDE8F08F434B9A423FF69D
:1026F00059AF424BFC002344D3E9002314F016FAEF
:102700003F4BC7F101062344CDE90001D3E900ABFB
:10271000F61B72E7002678E702460B4614F008FA2B
:1027200011E719A3D3E900231046194614F0B2FBB0
:1027300009E702460B462046294614F0ABFB00226F
:1027400006460F464FF080434046494614F0EEF9E6
:1027500002460B463046394614F0C6FC22462B464C
:1027600014F0E4F902460B460020214914F0DEF98A
:1027700003B0BDE8F08F01EB065103B0BDE8F08F68
:10278000064642E7AFF300809C7500883CE4377E44
:10279000EF39FAFE422E864051302DD5104987C0C0
:1027A000FE822B654715F73F0000E0FE422EE63F14
:1027B000763C7935EF39EA3DD0A4BE726937663E82
:1027C000F16BD2C541BDBB3E2CDE25AF6A56113F31
:1027D00093BDBE166CC1663F3E5555555555C53F18
:1027E000412E8640FFFFEF7F422ED63FFFFF2F3E58
:1027F0000000F03FD8800100B1A2F03FE880010066
:10280000F8800100000000002DE9F04FB1F5801FB5
:1028100085B006460F460B465ADA024621F00044C0
:10282000224300F0F8800029C0F27A810022D64BC2
:1028300014F030FBD54A0B46934206460F466FF024
:10284000350C4ADCC3F3130505F5152E0EF6647E30
:102850000EF4801E8EF07F5282F440121C1542EA64
:102860000507A4F2FF3464440022C94B30463946C0
:1028700004EB1E5414F05AF9AB1CC3F31303022BE0
:1028800082468B464FF0000230DC002314F06AFDD4
:10289000002800F0C980002C00F04B81204614F085
:1028A00093FAA5A3D3E9002306460F4614F0F2FAE3
:1028B000A3A3D3E9002304460D463046394614F05D
:1028C000E9FA02460B462046294614F031F90AE09F
:1028D000AE4A93424FF0000CB4DD32463B463046E0
:1028E000394614F025F905B0BDE8F08F4FF080436C
:1028F00014F01EF902460B465046594614F0F4FBFC
:10290000064620460F4614F05FFA3246CDE9000134
:102910003B4630463946CDE9026714F0BBFA024621
:102920000B468046894614F0B5FA87A3D3E9002305
:1029300006460F4614F0AEFA85A3D3E9002314F03F
:10294000F7F832463B4614F0A5FA83A3D3E90023F7
:1029500014F0EEF832463B4614F09CFA80A3D3E91B
:10296000002314F0E5F842464B4614F093FA7EA398
:10297000D3E90023804689463046394614F08AFA66
:102980007BA3D3E9002314F0D3F832463B4614F07E
:1029900081FA79A3D3E9002314F0CAF832463B4602
:1029A00014F078FA0B4602464946404614F0C0F847
:1029B000A5F5C223C5F5D725A3F27A4351351D43AA
:1029C000002D8046894656DD0022724B50465946FE
:1029D00014F060FA52465B4614F05CFA06460F4665
:1029E000002C68D132463B464046494614F0A0F8D8
:1029F000DDE9022314F04EFA02460B463046394612
:102A000014F094F802460B465046594614F08EF8DE
:102A100005B0BDE8F08F0022002300205E4914F0CD
:102A200063FB05B0BDE8F08F55A3D3E90023504602
:102A3000594614F02FFA02460B460020554914F06F
:102A400075F8524606460F465B465046594614F006
:102A500021FA02460B463046394614F01BFA064668
:102A60000F46002C40F09A8002460B4650465946CD
:102A700014F05CF837E7002C00F0A4802EA3D3E913
:102A80000023DDE9000114F005FA42464B460446F6
:102A90000D465046594614F049F8DDE9022314F07A
:102AA000F9F927A3D3E9002306460F46DDE9000123
:102AB00014F0F0F921E020A3D3E90023DDE90001BF
:102AC00014F0E8F932463B4604460D464046494676
:102AD00014F02EF8DDE9022314F0DCF918A3D3E991
:102AE000002380468946DDE9000114F0D3F902464F
:102AF0000B464046494614F01BF802460B4630464A
:102B0000394614F013F852465B4614F00FF80246AB
:102B10000B462046294614F009F805B0BDE8F08FB1
:102B200002460B4614F002F80022002314F0DCFAEF
:102B3000D9E600200021D6E60000E0FE422EE63F66
:102B4000763C7935EF39EA3D44523EDF12F1C23F1F
:102B5000DE03CB966446C73F599322942449D23F63
:102B6000935555555555E53F9FC678D0099AC33FB3
:102B7000AF788E1DC571CC3F04FA97999999D93FCA
:102B8000555555555555D53F00005043FFFFEF7F34
:102B90000000F03F0000E03F000050C3204614F06A
:102BA00013F90FA3D3E900238046894614F072F984
:102BB0000DA3D3E9002304460D464046494614F0D0
:102BC00069F99AE702460B465046594613F0AEFFA4
:102BD000DDE9022314F05EF914E700BFAFF30080D3
:102BE0000000E0FE422EE63F763C7935EF39EA3DC3
:102BF000B1F5801F2DE9F84304460D460B461ADA5D
:102C0000024621F00046324359D000295FDB002202
:102C10003B4B14F03FF93B4A0D462B46934204468A
:102C20006FF035010CDD22462B462046294613F075
:102C30007FFFBDE8F883334A93424FF00001F2DC96
:102C40001815A0F2FF3008444FEAD0794844C3F386
:102C5000130814F0B9F8C9F57F73033348EA035534
:102C600006460F4620462946FFF7CEFD1EA3D3E9B0
:102C70000023804689463046394614F00BF91CA3E0
:102C8000D3E9002304460D464046494614F002F9B4
:102C900002460B462046294613F04AFF16A3D3E905
:102CA000002304460D463046394614F0F3F8024638
:102CB0000B462046294613F03BFFBDE8F88300226F
:102CC00000230020104914F00FFABDE8F8830246F3
:102CD0000B4613F02BFF0022002314F005FABDE889
:102CE000F88300BFAFF30080362BF111F3FE593D9E
:102CF0000EE526157BCBDB3F00609F501344D33F8E
:102D000000005043FFFFEF7F000050C300000000B1
:102D10002DE9F04F23F0004757EA020493B037D073
:102D2000674C21F00046A64283460D4629DC9A46B0
:102D3000964625D0A74224DC614CA74279D0002DCD
:102D400080468946CDE9002377DB0024BEF1000FE1
:102D50002CD15B4B9F4200F08B805A4B9F4261D03D
:102D6000BAF1804F00F0C383574B9A451ED1002D16
:102D70001CDB4046494613B0BDE8F04F12F04ABE96
:102D800058B106F1404606F5801656EA0B0306D107
:102D90004C49002013B0BDE8F08FB742CCDD4B4862
:102DA00013B0BDE8F04F13F0C5BC002440464946BF
:102DB00011F06CFFBBF1000F19D126B1414B25F08A
:102DC00040429A4213D1BAF1000FC0F2CA83002DDB
:102DD000E0DA06F1404606F5801656EA040300F0F4
:102DE000A584012CD6D101F100431946D2E7ED0F9D
:102DF000013D54EA05034ED0354B9F426EDD03F191
:102E000004739F4240F3FE83324B9E424EDDBAF183
:102E1000000F4EDD28A3D3E900231046194614F015
:102E200039F8B7E7BAF1000FC0F25284404649467C
:102E3000B0E7BEF1000F82D0A3E7274B9F4228DC0A
:102E4000A3F154739F4280DD3B15A3F2FF33142B93
:102E500040F35484C3F134032EFA03F202FA03F36D
:102E60009E457FF472AF02F00102C2F102046DE7E9
:102E700006F1404303F5801353EA0B0388D0154B4A
:102E80009E4240F33B83BAF1000F12DBDDE9000103
:102E900080E702245AE742464B461046194613F093
:102EA00045FE02460B4614F01FF973E7BAF1000F16
:102EB000B0DB002000216DE79C7500883CE4377E84
:102EC0000000F07F0000F03F0000E03FB888010004
:102ED0000000E041FFFFEF3FFFFF3F43B6F5801FDB
:102EE0004FF0000205DAD84B13F0D4FF6FF0340234
:102EF0000E463315D54FC6F31306A3F2FF33134422
:102F000046F07F5ABE421A460D934AF4401A40F3E7
:102F10002F83CF4B9E4240F30D849FEDB57B8DED0B
:102F2000087B8DED0E7B9FEDB47B13468DED067B0C
:102F300001330D93AAF5801A0027DDE906235146D7
:102F4000CDE90A0113F0F2FDDDE90623804689464A
:102F5000DDE90A0113F0ECFD02460B460020BD49F5
:102F600014F0C2F80A460146CDE91012134649464C
:102F70000246404613F08EFF4FEA6A0343F00053C7
:102F80008C46834603F50023CDE904BCDA468B4624
:102F9000D9190023CDE902AB0293DDE902AB002091
:102FA00006460F4602460B465046594613F072FF3E
:102FB00002460B464046494613F0B8FDDDE90623BC
:102FC000804689463046394613F0B0FD02460B462E
:102FD000DDE90A0113F0AAFD52465B4613F05AFFE1
:102FE00002460B464046494613F0A0FDDDE910239A
:102FF00013F050FFDDE90467CDE9060132463B4698
:103000003046394613F046FF7DA3D3E90023064638
:103010000F4613F03FFF7CA3D3E9002313F088FD94
:1030200032463B4613F036FF79A3D3E9002313F071
:103030007FFD32463B4613F02DFF77A3D3E90023F3
:1030400013F076FD32463B4613F024FF74A3D3E918
:10305000002313F06DFD32463B4613F01BFF72A3B5
:10306000D3E9002313F064FD3246804689463B468F
:103070003046394613F00EFF02460B46404649469D
:1030800013F008FF524606460F465B46DDE9040191
:1030900013F04EFDDDE9062313F0FCFE32463B46FD
:1030A00013F046FD5246804689465B4650465946D7
:1030B00013F0F0FE0022684BCDE90A0113F038FD51
:1030C00042464B4613F034FD02980F460646324600
:1030D0003B465046594613F0DDFE002282468B46A1
:1030E0005D4B3046394613F021FDDDE90A2313F02C
:1030F0001DFD02460B464046494613F017FDDDE92B
:10310000042313F0C7FE3246804689463B46DDE97C
:10311000060113F0BFFE02460B464046494613F037
:1031200007FD8046894602460B4650465946CDE982
:1031300004AB13F0FDFCDDE902AB3DA3D3E90023B2
:1031400050460F4613F0A6FEDDE90423CDE9020147
:103150003946504613F0EAFC02460B4640464946C3
:1031600013F0E4FC34A3D3E9002313F093FE34A35B
:10317000D3E90023804689465046394613F08AFE3B
:1031800002460B464046494613F0D2FCDDE90E23C9
:1031900013F0CEFC80460D98894613F015FE42468A
:1031A00006460F464B46DDE9020113F0C1FCDDE99E
:1031B000082313F0BDFC32463B4613F0B9FC3246FF
:1031C0003B4650468B4613F0B1FCDDE9082313F073
:1031D000ADFCDDE9022313F0A9FC02460B46404694
:1031E000494613F0A3FC8046894637E0AFF30080E0
:1031F0000000000000000000000000000000F03FA0
:10320000EF4E454A287ECA3F65DBC9934A86CD3FCB
:1032100001411DA96074D13F4D268F515555D53FB1
:10322000FFAB6FDBB66DDB3F033333333333E33F49
:10323000000000E009C7EE3FFD033ADC09C7EE3F9E
:10324000F5015B14E02F3EBE000040438E98030062
:1032500079B60B000000F03F00000840013C54EA42
:10326000050300F079819FEDC87B8DED047BDDE9DE
:1032700000120B461446CDE9023400230293DDE927
:10328000024508462B461146224613F04FFC524693
:103290005B4613F0FFFDDDE9002306460F4640467E
:1032A000494613F0F7FD02460B463046394613F007
:1032B0003FFC2246804689462B4650465946CDE97A
:1032C000008913F0E7FD0B46024606460F464046CE
:1032D000494613F02DFCC64B994204460D468A46DA
:1032E00040F3168101F13F4303F5E003034340F04F
:1032F000F781A7A3D3E90023DDE9000113F018FC4F
:103300003246804689463B462046294613F00EFC4D
:1033100002460B464046494614F04CF8002840F05F
:10332000DF81A8464FEA28534FF48012A3F2FE3300
:1033300042FA03F35344C3F30A52AE4DA2F2FF32F2
:103340001541C3F3130423EA05010020C2F1140B55
:1033500044F48014BAF1000F02460B4644FA0BFB0A
:1033600030463946B8BFCBF1000B13F0DFFB024605
:103370000B4606460F46DDE9000113F0D9FB4FEA84
:103380000B5A0D46002484A3D3E900232046294686
:1033900013F080FD3246804689463B46204629464A
:1033A00013F0C4FB02460B46DDE9000113F0BEFB3F
:1033B0007BA3D3E9002313F06DFD7BA3D3E90023A6
:1033C00006460F462046294613F064FD02460B468A
:1033D0003046394613F0ACFB06460F4602460B4614
:1033E0004046494613F0A4FB42464B4604460D4670
:1033F00013F09CFB02460B463046394613F096FB11
:103400002246804689462B462046294613F042FD37
:1034100067A3D3E9002306460F4613F03BFD66A3DE
:10342000D3E9002313F082FB32463B4613F032FD12
:1034300063A3D3E9002313F07BFB32463B4613F032
:1034400029FD61A3D3E9002313F070FB32463B460C
:1034500013F020FD5EA3D3E9002313F069FB32468D
:103460003B4613F017FD02460B462046294613F053
:103470005DFB06460F4602460B462046294613F0E2
:1034800009FD0022CDE900014FF080433046394666
:1034900013F04CFB02460B46DDE9000113F024FE5D
:1034A000424606460F464B462046294613F0F2FC9C
:1034B00042464B4613F03CFB02460B46304639462B
:1034C00013F034FB22462B4613F030FB02460B462A
:1034D0000020494913F02AFB8A44BAF5801FC0F244
:1034E00039815146DDE9042313F0D4FC52E442460D
:1034F0004B464046494613F0CDFC4BE4BAF1000F71
:10350000BFF6D7ACDDE90034184604F1004141E4D0
:103510003A4B21F00048984540F3FF80384B0B446C
:1035200003430CD132463B4613F000FB02460B46E8
:10353000DDE9000113F02AFF00283FF4F3AEDDE9D6
:10354000040125A3D3E9002313F0A4FC22A3D3E9AB
:10355000002313F09FFC1DE49FED217B8DED047B88
:1035600085E602460B460020234913F0BDFD2EE4FC
:103570009FED1D7B8DED087B8DED0E7B9FED027B1E
:1035800000278DED067BD8E4000000000000F03F2E
:10359000FE822B654715973C00000000432EE63F56
:1035A000EF39FAFE422EE63F396CA80C615C20BE72
:1035B000D0A4BE726937663EF16BD2C541BDBB3E39
:1035C0002CDE25AF6A56113F93BDBE166CC1663F17
:1035D0003E5555555555C53F59F3F8C21F6EA501C7
:1035E000000000000000F0BF00000000000000002C
:1035F000FFFF8F40FFFF0F000000F03FFFCB904028
:1036000000346F3F684B9E427FF750AC674B9E4241
:103610003FF7FDAB0022654B13F088FA52A3D3E9C4
:10362000002306460F4613F035FC51A3D3E90023CF
:10363000804689463046394613F02CFC00228246EB
:103640008B465B4B3046394613F024FC02460B4652
:1036500049A1D1E9000113F069FA32463B4613F063
:1036600019FC02460B460020524913F05FFA32461D
:10367000CDE902013B463046394613F00BFC0246C9
:103680000B46DDE9020113F005FC3DA3D3E900235D
:1036900013F000FC02460B465046594613F046FA1A
:1036A00002460B4606460F464046494613F040FA8E
:1036B00042464B46002082468B4613F037FA0246BC
:1036C0000B463046394613F031FA80468946C5E547
:1036D00042464B460020354913F006FDFFF75ABB22
:1036E000DDE9040128A3D3E9002313F0D3FB26A3CB
:1036F000D3E9002313F0CEFBFFF74CBBBEF1000F64
:103700007FF453ABC3F1140347FA03F202FA03F355
:103710009F4223D07446FFF720BB264B98453FF7C6
:1037200001AEDDE90223924693462BE602460B46A4
:10373000FFF7B3BB9FED167B8DED087B9FED167BEE
:103740008DED0E7B9FED167B4FF480278DED067B74
:10375000FFF7F3BB5A4601F04FFDC3E602F001024A
:10376000C2F10204FFF7F9BA000000604715F73F05
:1037700044DF5DF80BAE543E555555555555D53F74
:10378000FE822B654715F73F9C7500883CE4377E29
:103790000000004003B8E23F06D0CF43EBFD4C3EB3
:1037A000000000000000F83FFEFFEF3F0000F03F88
:1037B0000000D03F0000E03F2DE9F0479C4B21F096
:1037C00000479F4290B08046894640F38E80994BD7
:1037D0009F420C46924626DC00298BA3D3E90023A6
:1037E00040F3B08113F0A2F9934B9F4204460D467B
:1037F00000F0908086A3D3E9002313F097F90246E6
:103800000B46CAE900232046294613F08FF980A30E
:10381000D3E9002313F08AF90125CAE902012846F9
:1038200010B0BDE8F087854B9F4240F39080844BF9
:103830009F4265DC3D15A5F21645A7EB05531946D9
:103840001F46064613F0D6FD13F0BEFA80468946A1
:1038500042464B4630463946CDE90A8913F066F9AF
:103860000022784B13F016FB8946804613F0C2FD08
:1038700013F0AAFA06460F4632463B4640464946F2
:10388000CDE90C6713F052F900226E4B13F002FBE6
:1038900000220023CDE90E0113F064FD002800F0A2
:1038A0006F81002330463946002213F05BFD00286B
:1038B00014BF01230223644A019202212A46009187
:1038C0000AA8514600F08CFB002C054614DADAF801
:1038D0000420DAF80C3002F1004203F100434542C3
:1038E000CAF80420CAF80C3006E000200021C2E922
:1038F0000089C2E902010025284610B0BDE8F08722
:1039000002460B4613F012F90025CAE90201CAE982
:103910000001F1E740A3D3E9002313F007F940A326
:10392000D3E900230D46044613F000F902460B4686
:10393000CAE900232946204613F0F8F838A3D3E952
:10394000002313F0F3F80125CAE90201D4E711F0CE
:103950009DF935A3D3E900238046894613F09AFAEE
:1039600000223A4B13F0E4F813F044FD054613F03F
:103970002BFA25A3D3E90023CDE9060113F08AFA37
:1039800002460B464046494613F0D0F820A3D3E93F
:103990000023CDE90201DDE9060113F07BFA1F2DBA
:1039A00080468946CDE9048954DC294B6A1E53F8C8
:1039B00022309F424ED002460B46DDE9020113F051
:1039C000B5F880468946CAE9008942464B46DDE99A
:1039D000020113F0ABF8DDE9042313F0A7F8002C83
:1039E000CAE9020188DA09F1004401F100436D429D
:1039F000CAF80080CAF80440CAF80800CAF80C30B7
:103A00007AE700BFAFF3008000004054FB21F93F8C
:103A10003163621A61B4D03D0000601A61B4D03DD8
:103A20007370032E8A19A33B83C8C96D305FE43FCE
:103A3000FB21E93F7BD90240FB21F93FFB213941C2
:103A4000FFFFEF7F00007041849201000000E03F23
:103A500004920100DDE90423DDE9020113F066F8B8
:103A60003F15C1F30A53FB1A80468946102BCAE959
:103A70000089AADD58A3D3E90023DDE9060113F08C
:103A800009FA8046894602460B46DDE9020113F039
:103A90004DF802460B46DDE90201CDE9082313F09B
:103AA00045F842464B4613F041F84DA3D3E90023B5
:103AB00080468946DDE9060113F0ECF942464B46A3
:103AC00013F034F80B46CDE904010246DDE90801A4
:103AD00013F02CF8C1F30A53FF1A80468946312FA0
:103AE000CAE900896CDD41A3D3E90023DDE90601C1
:103AF00013F0D0F9DDE9088906460F4602460B4669
:103B00004046494613F012F802460B4640464946E5
:103B1000CDE9022313F00AF832463B4613F006F8CB
:103B200034A3D3E9002306460F46DDE9060113F06E
:103B3000B1F932463B4612F0F9FF02460B46CDE999
:103B400004233AE712F0F4FF274B9F4204460D4648
:103B500018D01FA3D3E9002312F0EAFF02460B4658
:103B6000CAE900232946204612F0E0FF18A3D3E952
:103B7000002312F0DDFF4FF0FF35CAE90201BBE67A
:103B8000032398E614A3D3E9002312F0D1FF14A372
:103B9000D3E900230D46044612F0CAFF02460B4645
:103BA000CAE900232946204612F0C0FF0CA3D3E93E
:103BB000002312F0BDFF4FF0FF35CAE902019BE67A
:103BC0009DED087B8DED027BFFE600BFAFF300802B
:103BD0003163621A61B4D03D0000601A61B4D03D17
:103BE0007370032E8A19A33BFB21F93F0000002EBE
:103BF0008A19A33BC14920259A837B390000000024
:103C0000594A2DE9F84F21F00048904506460F46E5
:103C10002BDC564B0029B4BF554D564D98454FF0FF
:103C2000000410DC544B984570DC4DA3D3E900230D
:103C300012F07EFF0022514B13F0BCFBD8B130468E
:103C40003946BDE8F88F4E4B98457CDD4D4B984585
:103C500044DD013398453ED03046394640A3D3E990
:103C6000002313F017F9BDE8F88F02460B4612F057
:103C70005FFFBDE8F88F3046394611F007F801F0D4
:103C80007FF806460F4632463B463046394612F02C
:103C90004FFF324682468B463B463046394613F04C
:103CA000F9F8002280468946344B3046394612F0F6
:103CB0003FFF02460B464046494613F015FA0246BE
:103CC0000B465046594612F031FF22462B4613F060
:103CD000E1F8BDE8F88F2C4B9842BDD83046394604
:103CE00010F0D4FF0022234B13F0D4F8FEF714FC9D
:103CF00006460F4602460B462046294613F0CAF8F0
:103D000032463B4613F0C6F8BDE8F88F10F0BEFF10
:103D100001F036F81D4B984506460F46B3DD0022EC
:103D2000164B12F005FF02460B463046394613F09B
:103D3000DBF932463B4612F0FBFE22462B4613F0DF
:103D4000A9F8BDE8F88F10F0A1FFFEF7E5FB0246E9
:103D50000B462046294613F09DF8BDE8F88F00BFBA
:103D60003374AC3C1F7BAC7FFFFFEF7FFFFF354020
:103D70000000E0BF0000E03FFFFF2F3E0000F03FEB
:103D8000412E8640CD3386407DF8B98FFFFFEF3F4F
:103D90002DE9F04F21F00048B8F1795F85B0064673
:103DA0000F4692469B466BDA13F024FB002800F086
:103DB000EA8032463B463046394613F06BF874A32E
:103DC000D3E9002304460D4613F064F872A3D3E947
:103DD000002312F0ADFE22462B4613F05BF870A3D1
:103DE000D3E9002312F0A2FE22462B4613F052F82C
:103DF0006DA3D3E9002312F09BFE22462B4613F05D
:103E000049F86BA3D3E9002312F090FE22462B461B
:103E100013F040F868A3D3E9002312F089FE22468C
:103E20002B4613F037F8CDE900010022664B2046FF
:103E3000294613F02FF8DDE9002380468946204605
:103E4000294613F027F8524604460D465B46304695
:103E5000394613F01FF802460B462046294612F059
:103E600065FE02460B464046494612F05FFE02469A
:103E70000B460020554912F059FE05B0BDE8F08F01
:103E800002460B4613F006F841A3D3E9002304468B
:103E90000D4612F0FFFF40A3D3E9002312F048FEC5
:103EA00022462B4612F0F6FF3DA3D3E9002312F081
:103EB0003DFE22462B4612F0EDFF3BA3D3E9002343
:103EC00012F036FE22462B4612F0E4FF38A3D3E967
:103ED000002312F02BFE22462B4612F0DBFF36A306
:103EE000D3E9002312F024FE2B46224612F0D2FF23
:103EF000374B9845CDE9000197DD364B984539DCC5
:103F0000A8F500130022002030499046994612F08F
:103F10000DFECDE9020100222B4B2046294612F06E
:103F2000B9FF42464B4612F001FEDDE90023804610
:103F300089462046294612F0ADFF524604460D46FA
:103F40005B463046394612F0A5FF02460B46204636
:103F5000294612F0EBFD02460B464046494612F058
:103F6000E5FD02460B46DDE9020112F0DFFD05B07A
:103F7000BDE8F08F9FED127B4FF000088DED027BC6
:103F8000DFF85490C7E71149002005B0BDE8F08F75
:103F9000D43888BEE9FAA8BDC4B1B4BD9EEE213EB6
:103FA000AD529C804F7E923E9015CB19A001FA3EF7
:103FB0007751C1166CC1563F4C5555555555A53FC7
:103FC000000000000000E73F0000E03F0000F03F7D
:103FD0003233D33F0000E93F0000D23F0000000031
:103FE0002DE9F04FADF51B7D9F4CA49E9F4D54F8DD
:103FF000264007942646D41E85FB0475E417C4EBBF
:10400000A50424EAE4741D460A93631CA3EB83030E
:10401000013D02EBC30306932B460B940395651BEE
:10402000F418049008911AD42C4400260027013477
:104030000DF18808DDF8949208E059F8250012F097
:10404000C3FE0135A542E8E8020108D0002DF4DAEC
:10405000013530463946A542E8E80201F6D1079B12
:10406000002BC0F2DF83079B03F1010B0A9B22A9FF
:10407000DB001A4601EB03090093049B0DF5E47A7B
:1040800019460AEBCB0B01EB0208039B002BC0F295
:10409000F582049C4D460026002775E90223F4E8CA
:1040A000020112F0F7FE02460B463046394612F086
:1040B0003FFD444506460F46EFD1EAE80267DA4580
:1040C00009F10809E1D107990098049C009101F1D8
:1040D0008043013B9B0020441A1F83460EA80244E4
:1040E00003440C920D93009A9AA901EBC203002A93
:1040F00053E9284529DD0DF5E47A0AEBC2080DF1F4
:10410000340900225A4B2046294612F0C3FE13F010
:1041100071F912F059FE0022564B06460F4612F076
:10412000B9FE02460B462046294612F0FFFC13F06A
:1041300061F978E9022349F8040F3946304612F054
:10414000F7FCD04504460D46DBD1DDF8189020463B
:1041500029464A4601F050F800224FF07F530446AA
:104160000D4612F097FEFCF75FFD0022424B12F065
:1041700091FE02460B462046294612F0D7FC0D461A
:10418000044613F037F9804612F01EFE0B46024635
:104190002946204612F0CAFC4B46002B06460F4625
:1041A00040F3F980009A0EA9013AC9F1180351F8B9
:1041B000225045FA03F101FA03F30EA8EB1A40F876
:1041C0002230C9F11705884443FA05F5002D6DDD4D
:1041D000009B002B08F1010840F36F820E9C002C1D
:1041E00040F01683009B012B40F38F820EAA01231F
:1041F00052F8044F002C00F08382581C0EAAC4F120
:10420000807442F82340009A824219DD0EAA0EAC57
:1042100052F820106FF07F42511A44F82010009994
:10422000023399420CDD1046009A0EA901EB83037C
:1042300001EB82011A68821A43F8042B8B42F9D1F0
:10424000069B002B1ADD069B012B4FF0010440F06A
:104250003C82009B5A1E0EAB0EA953F82230C3F3CA
:10426000160341F822303CE224970100ABAAAA2AA7
:104270000000703E0000704100002040022D15D16A
:1042800032463B460020924912F050FC06460F464B
:10429000069A8F49002000F0AFFF02460B463046D9
:1042A000394612F043FC022506460F460022002341
:1042B0003046394613F056F8002800F03782009A4D
:1042C000079B501E83420FDC02F18043013B0EAA84
:1042D0000D9C02EB8303002253F80419A34242EA27
:1042E0000102F9D1002A67D1079B0EAA013B52F8BF
:1042F0002330002B40F018820C9A012352F8041945
:1043000001330029FAD0009AD31802F1010A9A4524
:1043100009933DDC009B0A990B9A0B4409990AEB1F
:104320000208994622AB08F1804803EBC9098B18B3
:10433000A59A08F1FF3802EB880872AA02EBCA0AB4
:10434000A59A02EB8303009358F8040F12F03CFD8A
:10435000039B002BE9E802014FF000064FF0000735
:1043600011DB049C4D4675E90223F4E8020112F0CA
:1043700091FD02460B463046394612F0D9FB5C45AA
:1043800006460F46EFD1009B9845EAE80267DBD16D
:10439000099B0093A7E606D1009B0EAA013B52F8A9
:1043A0002350ED1512E700224A4B12F0F9FF0028C6
:1043B00040F06E81054679E70EA9039551F820304B
:1043C0000699CDF8248018390246009006916BB901
:1043D00000F18043013B0EA800EB830353F804096E
:1043E000013A18390028F9D000920691069A384906
:1043F000002000F001FF009B002B04460D46C0F298
:10440000F781DA0072A901EB020B06920EAA02EB09
:104410008306DFF8C4904FF000080BF1080704365C
:1044200056F8040D12F0D0FC22462B4612F032FD55
:104430004B4667E9020142462046294612F02AFD12
:104440000EAB9E4204460D46EAD14AACDDF81C9004
:1044500004944FF0000AB9F1000FC0F22B81DFF88D
:104460007C805D4618A1D1E90001002600270024C8
:1044700003E0544510DCF8E80201F5E8022312F0ED
:1044800009FD02460B463046394612F051FB013415
:10449000A14506460F46ECDA049B03EBCA03ABF1D9
:1044A000080BC3E9006770AB9B450AF1010AD2D142
:1044B000A49B049C032B00F28980DFE803F0C58EE7
:1044C0008E1100BFAFF3008000000040FB21F93FD8
:1044D0000000F03F0000E03F0000703E208101003E
:1044E000009B002B40F38181069A04EB020ADAE973
:1044F000008902F1080525440DF5987B1AED027B31
:1045000042464B4651EC170B8DED047B12F010FB2D
:1045100006460F4602460B46DDE9040112F006FB93
:1045200042464B4612F004FB65E902015D45B04688
:10453000B9466AE90267E1D1009B012B40F355813E
:10454000069BE518D5E9008903F1080B04EB0B0A7B
:1045500015ED027B42464B4651EC170B8DED007B6F
:1045600012F0E6FA06460F4602460B46DDE9000168
:1045700012F0DCFA4B46424612F0DAFA6AE902011E
:104580004EAB5345B046B94665E90267E0D100201D
:10459000002104EB0B0575E9022312F0C9FAAA45C4
:1045A000F9D1039B002B00F00A816268E368089F41
:1045B0002568A4683D6002F1004203F1004301F167
:1045C00000417A60FB60BC6038617961099B03F04F
:1045D00007000DF51B7DBDE8F08F069D08352544CD
:1045E0000020002175E9022312F0A2FAA542F9D1B8
:1045F000039B002B00F0D280089E024601F100438D
:1046000086E80C000B460246D4E9000112F08EFA4F
:10461000009B002B0BDD4CAD0124F5E8022312F0CA
:1046200087FA009B0134A342F7DA039B13B101F12F
:1046300000431946089BC3E90201099B03F00700E8
:104640000DF51B7DBDE8F08F069D0835002000218B
:10465000254475E9022312F06BFAAC42F9D1039BB1
:1046600013B101F100431946089BC3E90001099BFE
:1046700003F007000DF51B7DBDE8F08F0026002735
:10468000EAE80267DA4509F108097FF4FEAC1AE5A9
:10469000009B002B08F10108C8BF02253FF79EAD23
:1046A00032463B460020614912F040FA0225064698
:1046B0000F46FBE500260027EEE6069B002B27DDD4
:1046C0000024069B012B3FF4C4AD022B09D1009BB3
:1046D0005A1E0EAB0EA953F82230C3F3150341F84E
:1046E0002230022D7FF4E2AD32463B4600204F4996
:1046F00012F01CFA06460F46002C3FF4D7ADC7E572
:104700000099013399427FF473AD069B002BD8DCEE
:10471000022D7FF4CBAD32463B460020434912F0D8
:1047200005FA06460F46C1E50123ECE53946069F2A
:1047300003957A423046CDF8248000F05DFD0022DA
:104740003B4B04460D4612F02BFE002843D00022BE
:10475000384B2046294612F09DFB12F04BFE0646D0
:1047600012F032FB0022324B12F094FB02460B4651
:104770002046294612F0DAF912F03CFE00990B4669
:1047800001331A4600933B46183306930B460EA995
:1047900041F82300134641F8236027E6089B0246B0
:1047A000C3E900010B46D4E9000112F0BFF9009BF8
:1047B000002B3FF730AF089BC3E902013DE7D4E986
:1047C0000067D4E90223089DC5E90401C5E9006733
:1047D000C5E90223FAE62946204612F00BFE009AAC
:1047E0000EA941F8220001E64AAC00200021D8E6DB
:1047F000A49B032B3FF6EAAE01A252F823F000BFC0
:104800001F4800001748000017480000E947000053
:1048100001200023F2E4002000214AACE8E6002059
:1048200000211CE70A9BDB0000934CE40000F03FF2
:10483000000070410000703E2DE9F04F21F000466D
:10484000B6F1795F85B004460D469046994604DA84
:1048500012F0D0FD002800F0858022462B4620462D
:10486000294612F017FB06460F4602460B46204625
:10487000294612F00FFB41A3D3E9002382468B4661
:104880003046394612F006FB3EA3D3E9002312F06E
:104890004DF932463B4612F0FDFA3CA3D3E9002322
:1048A00012F046F932463B4612F0F4FA39A3D3E946
:1048B000002312F03BF932463B4612F0EBFA37A3E5
:1048C000D3E9002312F034F90E9BCDE900019BB32C
:1048D0000022294B4046494612F0DCFADDE900236C
:1048E000CDE902015046594612F0D4FA02460B4671
:1048F000DDE9020112F01AF932463B4612F0CAFA1B
:1049000042464B4612F012F919A3D3E9002306469A
:104910000F465046594612F0BDFA02460B46304645
:10492000394612F005F902460B462046294612F098
:10493000FDF805B0BDE8F08F02460B46304639461B
:1049400012F0A8FA0AA3D3E9002312F0EFF85246B6
:104950005B4612F09FFA22462B4612F0E9F805B0AA
:10496000BDE8F08F2046294605B0BDE8F08F00BFB6
:10497000495555555555C53F0000E03F7CD5CF5AA8
:104980003AD9E53DEB9C2B8AE6E55A3E7DFEB157D0
:10499000E31DC73ED561C119A0012A3FA6F8101139
:1049A0001111813F000000002DE9F04FBE4C21F0B5
:1049B000004687B0A64282468B460F46CDE90023CB
:1049C0001BDC12F017FD002837D153461E43109B05
:1049D0000133334300F0B381109B012B00F0C881F9
:1049E00052465B460020B14912F07EFB04460D465C
:1049F0002046294607B0BDE8F08FAD4B9E421CDD36
:104A00000029C0F2A98152465B4687A1D1E9000185
:104A100012F08CF8DDE9002304460D4684A1D1E9AB
:104A2000000112F083F89FED847B22462B468DED2A
:104A3000007B12F07DF882468B4652465B4650461C
:104A4000594612F027FA02460B468046894612F074
:104A500021FA424604460D464B465046594612F04E
:104A600019FA77A3D3E90023CDE9020120462946AC
:104A700012F010FA74A3D3E9002312F059F8224679
:104A80002B4612F007FA72A3D3E9002312F050F874
:104A900022462B4612F0FEF96FA3D3E9002312F051
:104AA00047F822462B4612F0F5F96DA3D3E900230F
:104AB00012F03EF822462B4612F0ECF96AA3D3E935
:104AC000002312F035F842464B4612F0E3F968A392
:104AD000D3E90023CDE904012046294612F0DAF992
:104AE00065A3D3E9002312F023F822462B4612F0E7
:104AF000D1F963A3D3E9002312F01AF822462B461A
:104B000012F0C8F960A3D3E9002312F011F822468D
:104B10002B4612F0BFF95EA3D3E9002312F008F888
:104B200022462B4612F0B6F95BA3D3E9002311F01D
:104B3000FFFF02460B46DDE9040111F0F9FFDDE954
:104B4000022312F0A7F9DDE9004522462B4611F0B9
:104B5000EFFF42464B4612F09DF902460B462046B7
:104B6000294611F0E5FF4EA3D3E9002304460D4684
:104B7000DDE9020112F08EF922462B4611F0D8FF32
:104B80000B460246804689465046594611F0D0FFF2
:104B9000474B9E4204460D4600F38E80109B012B2E
:104BA0003BD002460B460020404912F09DFA0024FB
:104BB00006460F462046294652465B46CDE9006729
:104BC000CDE90201009411F0B1FFDDE900AB02462E
:104BD0000B464046494611F0A9FF52465B4612F08B
:104BE00059F9524604460D465B46DDE9020112F0D2
:104BF00051F900222F4B11F09BFF02460B46204635
:104C0000294611F095FF32463B4612F043F95246D1
:104C10005B4611F08DFF04460D462046294607B03D
:104C2000BDE8F08FAFF30080182D4454FB21E93F1D
:104C3000075C143326A6813C000000000000000041
:104C4000D47ABF74702AFB3EE9A7F0320FB8123F46
:104C500068108D1AF726303F1583E0FEC8DB573FFA
:104C600093846EE9E326823FFE41B31BBAA1AB3FBA
:104C7000735360DBCB75F3BEA69237A0887E143FDA
:104C80000165F2F2D844433F280356C9226D6D3FB7
:104C900037D60684F464963F7AFE10111111C13F95
:104CA000635555555555D53FFFFF2F3E0000F0BFCA
:104CB0002794E53F0000F03F109812F085F8224657
:104CC000CDE900012B462046294612F0E3F8DDE944
:104CD0000023CDE902012046294611F029FF0246B2
:104CE0000B46DDE9020112F0FFF942464B4611F096
:104CF0001DFF02460B465046594611F017FF02466B
:104D00000B4611F015FF02460B46DDE9000111F0DC
:104D10000DFF0446B81700F00200C0F101000D4677
:104D200012F052F802460B462046294612F0B2F81D
:104D300004460D462046294607B0BDE8F08F504690
:104D400059460FF0A3FF02460B4600200A4912F015
:104D5000CBF904460D4660E7DDE9004501F100416D
:104D6000224605F1004382468B46CDE900234AE600
:104D700054465D4651E700BF0000F03F00000000D0
:104D80002DE9F04FD24A21F00043934285B082468C
:104D90008B460C462DD9CF4A93421AD8002C80F26C
:104DA0001681B5A3D3E900235046594611F0C0FE41
:104DB0000022002312F0E0FAC0B9B1A3D3E9002326
:104DC0005046594612F066F802460B460020C2498A
:104DD00008E1C24A934240F2D0800346C1F3130275
:104DE000134340F0F481002980F2C4800020BC49C4
:104DF000C0E0BC4A934200F22981BB4A934240F290
:104E0000DE80002301930022B84B5046594612F031
:104E100041F806460F4602460B465046594612F0E8
:104E200039F899A3D3E9002304460D4612F032F86D
:104E300097A3D3E9002311F07BFE22462B4612F004
:104E400029F895A3D3E9002311F070FE22462B46E2
:104E500012F020F892A3D3E9002311F069FE224654
:104E60002B4612F017F890A3D3E9002311F05EFE51
:104E700022462B4612F00EF800229D4B11F058FEF0
:104E80008046894602460B463046394612F002F803
:104E900002460B460020974911F048FE064602469E
:104EA0000B460F464046494611F040FE32468046CA
:104EB00089463B465046594611F0ECFF02460B46E8
:104EC00000208D4911F032FE02460B46404649460D
:104ED00012F00AF922462B4611F0DCFF019E024631
:104EE0000B46002E38D0DDE9026732463B4611F012
:104EF0001DFE52465B4611F0CDFF32463B4611F097
:104F000015FE2B46224611F011FE019B0133064689
:104F10000F4600F00F81019B012B00F0F180019BF7
:104F20000133392B39D8019B132B40F31281019C9B
:104F3000C4F57F75033500222B0511F0F9FD0246FB
:104F40000B465046594611F0F1FD0022684B11F016
:104F5000EFFD01EB04510DE05046594611F09AFF68
:104F600022462B4611F0E2FD02460B4650465946BA
:104F700011F0DCFD05B0BDE8F08F4DA3D3E90023AF
:104F800012F018FA00283FF409AF4BA3D3E900232D
:104F90001046194611F07EFFECE752465B4611F0D1
:104FA000C5FD02460B460020514911F0BFFD019A94
:104FB0004F4B01EB0251002211F0B8FDDAE73EA39E
:104FC000D3E9002311F0B4FD02460B46CAE72CA337
:104FD000D3E900235046594611F05CFF0B46434984
:104FE0000246002011F0A4FD12F004FA019011F025
:104FF000EBFE33A3D3E9002306460F4611F04AFF28
:1050000002460B465046594611F090FD2EA3D3E9B7
:105010000023804689463046394611F03BFF06465C
:105020000F4632463B464046494611F07FFD024658
:105030000B4682468B464046494611F077FD324684
:105040003B4611F073FDCDE90201DCE62B4A9342A9
:1050500000F2958000291AA3D3E90023C0F2AC80A6
:1050600011F064FD012380468946019316A7D7E914
:105070000067D6E7AFF3008059F3F8C21F6EA501B1
:10508000FE822B654715F73F2DC3096EB7FD8ABE1B
:105090003952E686CACFD03EB7DBAA9E19CE143F5E
:1050A0008555FE19A0015A3FF41011111111A13FAD
:1050B000EF39FAFE422E86409C7500883CE4377E2C
:1050C0000000E0FE422EE63F763C7935EF39EA3DBE
:1050D00079684340412E86400000E0BFFFFFEF7F2C
:1050E0000000F0BF422ED63FFFFF8F3C0000E03FA4
:1050F0000000F03F0000084000001840B1A2F03F5F
:105100000022394B5046594612F036F9002844D057
:10511000504659460022354B11F00AFD02460B4617
:105120003046394611F002FD00224FF0404311F0A5
:10513000B1FE1FE702460B465046594611F0F6FCF9
:1051400000222A4B11F0A6FE0022284B11F0EEFCA3
:1051500010E7019C4FF400132341C3F17F575246DF
:105160005B4611F0E3FC002607F5401702460B46AC
:105170003046394611F0DAFC01EB0451FAE616A389
:10518000D3E9002311F086FE002C02460B464FF0B7
:105190000000FFF61CAE154924E732463B46504658
:1051A000594611F0C3FC02460B4611F0C1FC002227
:1051B0000F4B11F0BDFCDDE611F0BAFC4FF0FF33F0
:1051C00080468946019306A7D7E9006729E702468A
:1051D0000B4611F0ADFCCDE6FE822B654715F73F7F
:1051E000763C7935EF39EABD0000D0BF0000E03FE2
:1051F0000000F03F00000000F8B5C1F30A56044675
:105200000D460B4617460EBB21F00043034386466E
:1052100025D00022344B11F03DFE344A974204461B
:105220000D460B462ADBC1F30A56363E3E4440F299
:10523000FE72964228DC002E12DD23F0FF4323F499
:10524000E00343EA065520462946F8BD40F2FF72C6
:105250009642EBD102460B4611F06AFCF8BDF8BD50
:1052600016F1350F1DDA4CF250339F4222462B4681
:1052700025DC19A1D1E9000111F0CAFB16A3D3E97D
:10528000002311F007FEF8BD22462B4614A1D1E9F8
:10529000000111F0BDFB12A3D3E9002311F0FAFDC8
:1052A000F8BD23F0FF4323F4E003363643EA065506
:1052B0002046294600220E4B11F0ECFDF8BD08A156
:1052C000D1E9000111F0A4FB05A3D3E9002311F0FB
:1052D000E1FDF8BDAFF3008059F3F8C21F6EA501E0
:1052E0009C7500883CE4377E00005043B03CFFFFD3
:1052F0000000903C10B5054C237833B9044B13B132
:105300000448AFF300800123237010BD1005002076
:10531000000000007C9801000C4B43B10C480D4983
:1053200010B5AFF300800C48036823B910BD0A48DC
:10533000036833B97047094B002BF7D0BDE8104024
:105340001847064B002BF5D0184700BF000000009F
:105350007C980100140500201002002000000000CD
:10536000154B002B08BF134B9D46A3F5803A002137
:105370008B460F461348144A121A07F091FF0F4B41
:10538000002B00D098470E4B002B00D098470020F0
:10539000002104000D000D48002802D00C48AFF396
:1053A000008011F06BFB2000290005F03BF911F0A3
:1053B00051FB00BF000008000000022000000000B8
:1053C0000000000000040020800C0020000000000D
:1053D0000000000070B504460E4600F0D1F888B118
:1053E0000368DB6A05469847082C0CD0A4F1090332
:1053F000012B14D93246214610230D20BDE8704000
:1054000004F064B870BD2B6828465B6A9847022890
:10541000F0DC2B6828461B6A04219847EAE72B68D2
:1054200028465B6A98470528E4DC2B6828461B6AF7
:1054300008219847DEE700BF30B52DED028B83B021
:10544000054600F09DF8044640B10368DB6A9847C2
:10545000032D50D8DFE805F0373F47080190019849
:1054600003B0BDEC028B30BD20460BF0C7F907EE50
:10547000900A2046F8EEE78A0BF0D0F907EE900A82
:105480002046B8EEE78A0BF0D9F968EE087A07EE05
:10549000100AE8EEA87AB8EEC77AE7EE077AF5EEDA
:1054A000407AF1EE10FAB1EEE78A03D517EE900AD2
:1054B00010F038F9FDEEC87ACDED017A019803B00D
:1054C000BDEC028B30BD204603B0BDEC028BBDE8C5
:1054D00030400BF093B9204603B0BDEC028BBDE821
:1054E00030400BF09BB9204603B0BDEC028BBDE809
:1054F00030400BF0A3B900230193B0E738B505465F
:1055000000F03EF858B10368DB6A0446984745B19D
:10551000012D04D12046BDE83840FBF79DB800209E
:1055200038BD2046BDE83840FBF776B810B50446D4
:1055300000F026F828B1036821461B6ABDE8104038
:10554000184710BD0048704716FCFFFF704700BFAA
:1055500010B5034B036004460AF030FF204610BD2F
:10556000F08D010010B5054B036004460AF026FFDC
:10557000204612F0D1F9204610BD00BFF08D010089
:105580002DE9F043C04C236885B01BB1986805B085
:10559000BDE8F0834FF0FF31012001F0D1FCC0B233
:1055A00004F0E4FA002800F0ED800C2012F0B6F9C7
:1055B00003210646512001F0C3FCDFF8FCE2B34BA7
:1055C000054605F00F07C5F3031815F4807518BFDD
:1055D0007346AF48394642460AF0EEF82A1C18BF17
:1055E00001223946434630460DF06EF80023A948A3
:1055F000B3600AF0E1F84FF0FF31032001F0A0FCA6
:10560000C0B204F0B3FA4FF0FF310546022001F0BA
:1056100097FCC0B204F0AAFA002D00F09A8000288E
:1056200000F097800146284604F032F8074600282B
:1056300000F0A4804FF0FF31462001F081FC3228B9
:1056400080462BD028DD382869D068283FD14FF01C
:10565000FF31012001F074FCC0B204F087FA8146EA
:105660004C2012F05BF90523054601934A46CDF81C
:105670000080394633460BF0F7FF2846B0600368D8
:105680009B6A9847B0680368DB6A984782480AF0CB
:1056900093F82660B0687AE7302818D14FF0FF31D0
:1056A000012001F04DFCC0B204F060FA81464C20AC
:1056B00012F034F91FFA88F1054605234A46009195
:1056C0000193394633460BF0B1FD2846D6E73A68D8
:1056D0000125002301950095D2F82080B3600F22A8
:1056E0000DF10F0332213846C047002856D14FF044
:1056F0003208414669480AF05FF84FF0FF31012057
:1057000001F01EFCC0B204F031FA81464C2012F0C8
:1057100005F9052305464A46CDF80080D0E74FF04D
:10572000FF31012001F00CFCC0B204F01FFA8146E9
:10573000442012F0F3F8052305464A46CDF80080D0
:105740003946019333460BF0E7FE554B2B60284654
:1057500094E754480AF030F84FF0FF31192001F077
:10576000EFFBC0B204F002FA4FF0FF3105461820FB
:1057700001F0E6FBC0B204F0F9F953E74A480AF039
:105780001BF886E74FF0FF31032001F0D9FBC0B2D0
:1057900004F0ECF900287FF408AFF8E63B680195C7
:1057A0000095D3F820800F220DF10F0330213846E9
:1057B000C04718B94FF0300841469BE73B68019558
:1057C0000095D3F820800D220DF10F0338213846C3
:1057D000C047C0B93821314809F0EEFF4FF0FF3122
:1057E000284601F0ADFBC0B204F0C0F98046442069
:1057F00012F094F84FF0050E38230546424639461C
:105800008DE808409EE73A6801950095D2F820801F
:105810000DF10F03752268213846C047E0B96821B1
:105820001E4809F0C9FF4FF0FF31284601F088FB00
:10583000C0B204F09BF980464C2012F06FF84FF094
:10584000050E682305468DE8084042463946334632
:105850000BF00AFF284611E7144809F0ADFFB068C5
:1058600000287FF40CAF4FF0FF31032001F068FBFC
:10587000C0B204F07BF918B10D4809F09DFF08E7AC
:105880000C4809F099FF04E72C050020AC810100C9
:10589000B4810100D48101006C820100908201007A
:1058A00070810100E4810100F88101007C82010027
:1058B000108201004C820100A481010008B501F0B2
:1058C00067FCFBF76DFCBDE8084001F0CFB900BFF5
:1058D00008B501F05DFCFBF7D3FCBDE8084001F022
:1058E000C5B900BF08B501F053FC0FF045FABDE89B
:1058F000084001F0BBB900BF08B501F049FC0FF04A
:105900004DFEBDE8084001F0B1B900BF08B501F097
:105910003FFCFBF755FCBDE8084001F0A7B900BF0C
:1059200008B501F035FC0FF065FCBDE8084001F05A
:105930009DB900BF08B501F02BFCFAF7ADFEBDE83C
:10594000084001F093B900BF08B501F021FC0FF049
:10595000A5FBBDE8084001F089B900BF70B5049E01
:1059600096420C4628DB15466BB1002A00EB02017B
:1059700007DD2046A21811F8013D00F8013B9042D6
:10598000F9D1002070BD042A0FD0022A02D110F0F4
:10599000010306D001462A46204606F09BFA002065
:1059A00070BD02880A80184670BD10F00303F1D163
:1059B00002680A60184670BD0846002107F070FCB6
:1059C0004FF0FF3070BD00BF0830704740B1002974
:1059D00005DB4368994202DA0844007A70470020E8
:1059E000704700BF30B1002904DB43689942BCBF57
:1059F00040180272704700BF40B1002905DB4368C0
:105A0000994202DA0844007A70470020704700BFCC
:105A1000830705D120B1030F0CBF01200020704780
:105A20000120704730B1002904DB43689942BCBFB4
:105A300040180272704700BF002B23DB002921DBD6
:105A400070B54668B1421ADC5568761A1446EA1AEF
:105A5000B242A8BF3246002A11DB84420D4607D06D
:105A6000083408300844E11806F034FA002070BD0C
:105A70000834E118601911F07FFF002070BD4FF06D
:105A8000FF3070BD4FF0FF30704700BF4068704777
:105A900010B4141E10DB426894420DDC33EA230379
:105AA00028BF1346121B08309A422044A8BF1A464A
:105AB0005DF8044B07F0F4BB5DF8044B704700BF82
:105AC00043688B4210B400F108041846A8BF08468A
:105AD00032EA220128BF19461B1A99422044A8BF66
